:100000000C9495000C94BD000C94BD000C94BD00A4
:100010000C94BD000C94BD000C94BD000C94BD006C
:100020000C94BD000C94BD000C94BD000C94BD005C
:100030000C94BD000C94C60F0C94BD000C94BD0034
:100040000C94BD000C94BD000C94361D0C94BD00A6
:100050000C946D210C94BD000C94BD000C94BD005B
:100060000C94BD000C94BD000C94BD000C94BD001C
:100070000C94AA210C94BD000C94BD0000212427EF
:100080002A002225282B0020232629020202020210
:10009000020202040404040404040403030303032B
:1000A0000303030101010101010101010204081020
:1000B0002040800102040810204080010204081042
:1000C000204080804020100804020100000001024E
:1000D000000000000000000403070600000000000C
:1000E0000000000000000000000000494E46494E9C
:1000F0004954594E414ECDCCCC3D0AD7233C17B77D
:10010000D13877CC2B329595E6241FB14F0A0000E9
:1001100020410000C84200401C4620BCBE4CCA1B07
:100120000E5AAEC59D74540B321F11241FBECFEF63
:10013000D0E1DEBFCDBF12E0A0E0B1E0E8E6FAE436
:1001400002C005900D92A23EB107D9F718E0A2EEC9
:10015000B2E001C01D92AB32B107E1F711E0CAE293
:10016000D1E004C02297FE010E94EC24C632D107E0
:10017000C9F70E942F1D0C9432250C940000A0E0BA
:10018000B0E0E5ECF0E00C940125EC015B016115B9
:10019000710519F0FB0191838083F9908F2D90E018
:1001A0000E94F024892BC9F7FDE2FF1621F4F99093
:1001B000EE24E39405C02BE2F21609F4F990EE2444
:1001C0008E0101501040C8016BEE70E043E050E03A
:1001D0000E944E03892B01F58E010E5F1F4FC8014F
:1001E0006EEE70E045E050E00E944E03892B19F45A
:1001F0008E01095F1F4FA114B10419F0F50111839D
:100200000083E0FC04C070E090E080E814C070E07F
:1002100090E080E86FEF08C1C80163EF70E043E051
:1002200050E00E944E03892B69F4A114B10429F413
:1002300070E090E080EC6FE7F7C02296F501D18383
:10024000C083F6CF8824992440E050E060E070E05D
:10025000EF2DE053EA30A0F5F2E0EF2A8E2D90E08A
:100260009C0128703070E2FE06C0232B79F50894BB
:10027000811C911C2BC0232B19F008948108910834
:10028000DB01CA0112E0880F991FAA1FBB1F1A9534
:10029000D1F7480F591F6A1F7B1F440F551F661F58
:1002A000771F4E0F511D611D711D483929E95207F5
:1002B00029E9620729E1720748F084E0E82A06C0CC
:1002C000EE3F31F4E3FC39C098E0E92AF990C0CF61
:1002D000E53311F0E53189F529912D3219F4E0E18A
:1002E000EE2A05C02B3219F081E090E003C029917D
:1002F00082E090E0E22FE053EA3018F0C81BD90BFF
:100300001CC020E030E0FCE020383F075CF4C9016D
:10031000880F991F880F991F280F391F220F331F2D
:100320002E0F311DE991E053EA3068F3E4FE03C07B
:10033000309521953F4F820E931ECE2CDD24E1FE99
:1003400007C0A114B10421F02197F501D183C08326
:10035000CB01BA010E94E9227B018C01F3E0CF229C
:10036000DD2423E0C216D10421F417FB109517F900
:10037000109557016801C801B70120E030E040E066
:1003800050E00E944C22882309F44AC097FE0DC019
:100390002AE0E22E21E0F22E909481949108939429
:1003A000C0E2D0E000E010E012C092E2E92E91E05D
:1003B000F92EF6CFF7012591359145915491C6015B
:1003C000B5010E949F235B016C018C1A9D0A8C165B
:1003D0009D0684F7D595C7950F5F1F4F0630110511
:1003E00029F08CEF9FEFE80EF91EF1CFC501D60181
:1003F0007C018D018C2D880F8D2D881F8F3F51F032
:10040000C601B50120E030E040E050E00E944C22FF
:10041000882331F482E290E090932A08809329089F
:100420007E2D9F2D802F612F272F392F482F562F5C
:10043000B901CA01CDB7DEB7ECE00C941D252F92AF
:100440003F925F926F927F928F929F92AF92BF92F4
:10045000CF92DF92EF92FF920F931F93CF93DF9390
:100460008C011B01EA016115710519F0FB019183F3
:100470008083209749F0CE010297839728F020E0EF
:1004800030E040E050E0F6C0F801A1908F018A2DE5
:1004900090E00E94F024892BB9F7FDE2AF1631F409
:1004A000F801A1908F015524539407C0FBE2AF16C9
:1004B00019F4F801A1908F015524209719F0C0314B
:1004C000D105C1F4F0E3AF1679F4F80180818837E3
:1004D00011F0883549F4F801A1800E5F1F4FF2E05A
:1004E0005F2AC0E1D0E006C0209721F480E3A8167F
:1004F000E9F427C0C830D10531F1C930D10524F461
:10050000C230D10531F50CC0CA30D10589F0C031F7
:10051000D105F9F4C12CD12CE12CB8E0FB2E28C078
:10052000C12CD12CE12CA0E4FA2E22C0CAE0D0E0EC
:10053000FCECCF2EFCECDF2EFCECEF2EFCE0FF2ED3
:1005400017C0C8E0D0E0C12CD12CE12CE0E1FE2E98
:100550000FC09E01442737FD4095542F60E070E0A6
:1005600080E090E80E949924C901DA016C017D01C4
:1005700020E030E040E050E060E03E01882477FC7D
:100580008094982C70EDB72EBA0CE9E0EB1570F45E
:100590008A2D81548A3118F499ECB92E06C08A2D1F
:1005A00081568A3150F589EAB82EBA0C8B2D90E02D
:1005B0008C179D0714F56F3FE1F0C216D306E406D1
:1005C000F506B0F0CA01B901A40193010E946724A5
:1005D0009B01AC012B0D311D411D511D2130F0E05F
:1005E0003F07F0E04F07F0E85F0710F461E001C05B
:1005F0006FEFF801A1908F01C5CF2114310481F074
:10060000662331F001501040F1011183008308C0CE
:1006100051FE1AC002501040F1011183008314C032
:1006200067FF12C050FC05C02FEF3FEF4FEF5FE7B1
:1006300004C020E030E040E050E882E290E0909397
:100640002A088093290816C050FE08C0509540958E
:10065000309521953F4F4F4F5F4F0CC057FF0AC059
:1006600082E290E090932A08809329082FEF3FEFD1
:100670004FEF5FE7B901CA01DF91CF911F910F9151
:10068000FF90EF90DF90CF90BF90AF909F908F90B2
:100690007F906F905F903F902F900895FB01DC0159
:1006A0004150504088F08D9181341CF08B350CF412
:1006B000805E659161341CF06B350CF4605E861BC6
:1006C000611171F3990B0895881BFCCFFA01CF9348
:1006D000FF93EF93223044F1253234F5C22FE89492
:1006E000CA3049F497FB3EF49095809570956195DA
:1006F0007F4F8F4F9F4F2C2F332744275527FF9332
:10070000EF930E949924EF91FF91605D6A330CF0A2
:10071000695D6193B901CA016050704080409040AA
:1007200051F716F4CDE2C19310828F919F91CF9132
:100730000C949A03DC01FC01672F71917723E1F798
:10074000329704C07C916D9370836291AE17BF079E
:10075000C8F308952F923F924F925F926F927F92CB
:100760008F929F92AF92BF92CF92DF92EF92FF92C1
:100770000F931F93DF93CF93CDB7DEB72E970FB6AE
:10078000F894DEBF0FBECDBF9E878D878B017A01A7
:10079000FB016081718182819381FA012081318125
:1007A000428153810E949F235B016C01F8016481A7
:1007B000758186819781F701248135814681578132
:1007C0000E949F233B014C01F80160857185828561
:1007D0009385F70120853185428553850E949F23AB
:1007E0001B012C01F8016485758586859785F701C5
:1007F00024853585468557850E949F2369877A879A
:100800008B879C87F8016089718982899389F701B8
:1008100020893189428953890E949F237B018C0161
:10082000C601B50120E030E040E050E00E949B238B
:1008300088234CF0C601B50120E030E040E05FE3E2
:100840000E94E82108C0C601B50120E030E040E088
:100850005FE30E94E7210E94B82269837A838B8339
:100860009C83C401B30120E030E040E050E00E94EE
:100870009B2388234CF0C401B30120E030E040E02A
:100880005FE30E94E82108C0C401B30120E030E02A
:1008900040E05FE30E94E7210E94B8226D837E83DF
:1008A0008F839887C201B10120E030E040E050E042
:1008B0000E949B2388234CF0C201B10120E030E06C
:1008C00040E05FE30E94E82108C0C201B10120E0DE
:1008D00030E040E05FE30E94E7210E94B8223B0144
:1008E0004C0169857A858B859C8520E030E040E06D
:1008F00050E00E949B2388235CF069857A858B8574
:100900009C8520E030E040E05FE30E94E8210AC0DF
:1009100069857A858B859C8520E030E040E05FE347
:100920000E94E7210E94B8225B016C01C801B70157
:1009300020E030E040E050E00E949B2388234CF010
:10094000C801B70120E030E040E05FE30E94E82109
:1009500008C0C801B70120E030E040E05FE30E943A
:10096000E7210E94B82229813A814B815C81ED8583
:10097000FE8520833183428353832D813E814F81C5
:1009800058852483358346835783608671868286A3
:100990009386A486B586C686D786608B718B828B3C
:1009A000938BCF012E960FB6F894DEBF0FBECDBF4E
:1009B000CF91DF911F910F91FF90EF90DF90CF903B
:1009C000BF90AF909F908F907F906F905F904F906F
:1009D0003F902F900895882321F4809181008B7F90
:1009E00029C0813049F4809181008B7F8093810000
:1009F00080918100826015C0823049F4809181002D
:100A00008B7F8093810080918100826018C0833049
:100A100071F48091810084608093810080918100D5
:100A20008D7F80938100809181008E7F0DC08091A9
:100A30008100846080938100809181008D7F80930C
:100A40008100809181008160809381000895E0E8B9
:100A5000F0E01082A1E8B0E01C92109282001092A7
:100A60006F008C918F7E8C938C9188608C938081A9
:100A70008D7F808380818E7F808380818F7780834C
:100A800080818F7B808380818F7D808380818F7E3A
:100A9000808384E00E94EB048FEF9FEF90938900A6
:100AA000809388000895FC0180819181A281B381A7
:100AB000803020E0920721E0A20720E0B2070CF48A
:100AC00041C0893F2FEF920727E0A20720E0B2073D
:100AD00044F453E0B595A795979587955A95D1F726
:100AE00031C0813C2FEF92072FE3A20720E0B2072D
:100AF00044F446E0B595A795979587954A95D1F723
:100B000021C081302FEF92072FEFA20720E0B2071C
:100B10003CF4892F9A2FAB2FBB27A7FDBA9512C0A3
:100B200081302CEF92072FEFA20723E0B2071CF0D1
:100B3000EFEFFFEF08C02AE0B595A7959795879549
:100B40002A95D1F7FC01CF010895EF92FF920F9300
:100B50001F93DF93CF9300D000D0CDB7DEB77B01DA
:100B60008C0164E0EE0CFF1C001F111F6A95D1F789
:100B7000E982FA820B831C83CE0101960E94530501
:100B8000909389008093880080E0E81680E0F80662
:100B900081E0080780E0180714F480E022C089EFA4
:100BA000E8168FEFF80687E0080780E0180714F4CE
:100BB00081E017C081ECE8168FEFF8068FE3080795
:100BC00080E0180714F482E00CC081E0E8168FEF93
:100BD000F8068FEF080780E0180714F084E001C0E2
:100BE00083E00E94EB040F900F900F900F90CF9135
:100BF000DF911F910F91FF90EF900895DF93CF93B6
:100C0000CDB7DEB7C456D0400FB6F894DEBF0FBEE6
:100C1000CDBFDE011196E0E0F1E088E001900D9299
:100C20008150E1F7FE0139968CE5DF011D928A952E
:100C3000E9F760914E0470914F04809150049091B7
:100C400051046F5F7F4F8F4F9F4FAE01485F5F4FE3
:100C50002AE030E00E9466038BE197E00E94471F84
:100C60008BE197E0BE016F5F7F4F0E948A1FCC59D6
:100C7000DF4F0FB6F894DEBF0FBECDBFCF91DF912F
:100C80000895AF92BF92CF92DF92EF92FF920F93AF
:100C90001F93DF93CF9300D0CDB7DEB78C017B01DC
:100CA0006A015901BE016F5F7F4F4AE050E00E9428
:100CB0001F0229813A81201B310B121613066CF496
:100CC000F7016083718382839383F6018081918130
:100CD0008A299B299183808305C0F70110821182A4
:100CE00012821382C9010F900F90CF91DF911F9153
:100CF0000F91FF90EF90DF90CF90BF90AF9008954D
:100D0000AF92BF92CF92DF92EF92FF920F931F9319
:100D1000DF93CF9300D0CDB7DEB78C017B016A01A2
:100D20005901BE016F5F7F4F4AE050E00E941F02F1
:100D300029813A81201B310B121613065CF4F7014E
:100D400071836083F601808191818A299B29918337
:100D5000808303C0F70111821082C9010F900F90A8
:100D6000CF91DF911F910F91FF90EF90DF90CF9087
:100D7000BF90AF900895AF92BF92CF92DF92EF9263
:100D8000FF920F931F93DF93CF9300D0CDB7DEB7C1
:100D90008C017B016A015901BE016F5F7F4F0E9488
:100DA000BF0029813A81201B310B121613066CF407
:100DB000F7016083718382839383F601808191813F
:100DC0008A299B299183808309C080E090E0A0E07C
:100DD000B0E0F70180839183A283B383C9010F90B0
:100DE0000F90CF91DF911F910F91FF90EF90DF90C7
:100DF000CF90BF90AF9008952F923F924F925F9205
:100E00006F927F928F929F92AF92BF92CF92DF921A
:100E1000EF92FF920F931F93DF93CF93CDB7DEB77F
:100E200068970FB6F894DEBF0FBECDBF8B015E8B07
:100E30004D8BFC01119211926F017C019C012C5F82
:100E40003F4F3C8B2B8BFC013696FA8BE98B9C0138
:100E5000285D3F4F388B2F87FC013896FE87ED8742
:100E60009C01245F3F4F3C872B87FC017096FA87DB
:100E7000E9879C012C5E3F4F38872F83FC017C96CD
:100E8000FE83ED839C01205E3F4F3C832B83FC015E
:100E9000B496FA83E9832CE2222E312C280E391ED7
:100EA000B0E34B2E512C480E591EA8E16A2E712C2E
:100EB000680E791EF6E38F2E912C880E991EE4E3BE
:100EC000AE2EB12CA80EB91E188E1F8AEDC0EF8968
:100ED000F88DE00FF11FE081E03509F45DC0E135E8
:100EE000DCF4E93409F484C0EA3474F4E63409F437
:100EF00095C0E73434F4EA3209F4C4C0E53409F5A6
:100F0000A9C0E734F1F420C0ED3441F1EE3409F426
:100F1000ADC0EA34B1F477C0E43559F1E5354CF4AD
:100F2000E23509F486C08F89988D0196E33564F522
:100F30008AC0E93509F446C0EA3509F44EC0E835FF
:100F4000B1F180E090E0A9C08F89988D0196800F63
:100F5000911FB601A70121E030E09DC08F89988DD7
:100F60000196800F911F6B897C89A70122E030E0F8
:100F700092C08F89988D0196800F911F69897A8917
:100F8000A70120E030E487C0800F911F6F8578892A
:100F9000A70120E034E067C08F89988D0196800F0B
:100FA000911F6D857E85A70124E030E05CC08F89AC
:100FB000988D0196800F911F6B857C85A70128E095
:100FC00030E051C08F89988D0196800F911F6985FF
:100FD0007A85A70120E130E046C08F89988D01967F
:100FE000800F911F6F817885A70120E230E03BC020
:100FF0008F89988D0196800F911F6D817E81A70149
:1010000020E430E030C08F89988D0196800F911FC9
:101010006B817C81A70120E030E825C08F89988D05
:101020000196800F911F69817A81A70120E032E04B
:101030001AC08F89988D0196800F911FB101A70169
:1010400020E030E110C0800F911FB201A70120E025
:1010500038E009C08F89988D0196800F911FB301E8
:10106000A70120E030E20E94BB0617C08F89988D4F
:101070000196800F911FB401A70120E830E00E9483
:1010800041060BC08F89988D0196800F911FB50185
:10109000A70120E031E00E94800601962F89388D5B
:1010A000280F391F388F2F8B8F89988DED89FE89F6
:1010B0008E179F070CF40BCF68960FB6F894DEBF1F
:1010C0000FBECDBFCF91DF911F910F91FF90EF9099
:1010D000DF90CF90BF90AF909F908F907F906F9058
:1010E0005F904F903F902F900895EF92FF920F9353
:1010F0001F937C01FC0185890E940A1E8C01F70167
:1011000085890E940A1E080F191FF70185890E9410
:101110000A1E800F911F63E070E00E948624CB01BD
:101120001F910F91FF90EF900895CF93DF930E944E
:101130007508AC01EAE8F2E0C1E0D0E060817181BD
:10114000461757075CF5FE013197EE0FFF1FEE0FB4
:10115000FF1FDF01AA57BD4F2D913C91E857FD4F6E
:101160000190F081E02D421B530BCC0FDD1FCC0F03
:10117000DD1FC857DD4F888199818E1B9F0B621B35
:10118000730B9C01429FC001439F900D529F900D95
:1011900011240E9486246E0F7F1F10C09E012F5FB6
:1011A00021963496C431D10549F6243119F060E016
:1011B00070E00BC06091D4027091D5026F3F710551
:1011C00021F01CF06FEF70E004C077FF02C060E018
:1011D00070E0CB01DF91CF910895CF93DF93EC01C5
:1011E0000E9495089C0189819A812817390714F477
:1011F0006E8108C08B819C812817390714F060E04C
:1012000001C06D818F81861729F06F838B8970E013
:101210000E94281EDF91CF9108958091E202909163
:10122000E3020E94ED080895EF92FF920F931F933F
:101230007C010BE117E0C80164E671E00E945B1FCE
:10124000C7010E949508BC01C8010E9454201F914B
:101250000F91FF90EF900895EF92FF920F931F93DD
:10126000CF93DF93EC011A861E861D861C861B8693
:10127000FF24EE24E3940E940D090D851E85CE0106
:101280000E9495089C01200F311F3E872D878A857B
:101290008F5F8A87863020F1C90165E070E00E9487
:1012A00086247E876D8789819A81059768177907DB
:1012B00034F08AE08F15D8F0F394EE240EC0EE20BF
:1012C00061F08B859C85861797071CF47C876B875C
:1012D00004C0CE010E9414090AC01E861D861A860B
:1012E00068EE73E080E090E00E94A61DC4CFDF911D
:1012F000CF911F910F91FF90EF900895BF92CF92E1
:10130000DF92EF92FF920F931F938C01B62E6A012A
:101310000E942C09F801B08A86896B2D0E949B1EC1
:10132000F801878961E00E949B1EEE24D7FCE094BF
:10133000FE2CC701B6010E94A61DF801878960E056
:101340000E949B1E1F910F91FF90EF90DF90CF9016
:10135000BF9008958FE160E00E949B1E0895FC01FC
:10136000E855FF4F108232971082E65AF040CF01C5
:101370000E94AA090895CF93DF93EC01C859DF4F6B
:1013800088819981AA81BB81C856D0400097A10568
:10139000B10521F083E161E00E949B1EC459DF4F3B
:1013A00088819981AA81BB81CC56D0400097A10544
:1013B000B10521F083E161E00E949B1EC059DF4F1F
:1013C00088819981AA81BB81C057D0400097A1052F
:1013D000B10521F08FE161E00E949B1ECC58DF4FE8
:1013E00088819981AA81BB810097A105B10571F01F
:1013F000E091E402F0E0EE0FFF1FEE51FD4F01908F
:10140000F081E02D808D61E00E949B1EDF91CF91E5
:1014100008951F93CF93DF93EC01CA55DF4F888166
:10142000C65AD040882369F5CC56DF4F699111E048
:1014300082E10E949B1E699186E10E949B1E699138
:1014400061278EE10E949B1EE091E402F0E0EE0F26
:10145000FF1FEE51FD4F0190F081E02D6881C759CB
:10146000D040678781890E949B1ECE010E94BB09E4
:1014700068EE73E080E090E00E94A505C855DF4F5C
:101480001883DF91CF911F9108958091530391E0CC
:10149000892780935303882319F080E061E002C01C
:1014A00080E060E00E949B1E08956F927F928F9271
:1014B000AF92CF92EF920F93DF93CF93CDB7DEB77A
:1014C0003C01862FF301618B428B238B048BE58AD1
:1014D000C68AA78A808E61E00E947D1EF301828900
:1014E00061E00E947D1EF301838961E00E947D1E00
:1014F000F301858960E00E947D1EF301868961E029
:101500000E947D1EF301878961E00E947D1EF30128
:10151000818961E00E949B1EF301838960E070E095
:101520000E94281EF301828960E070E00E94281E5C
:10153000F301868960E00E949B1EF301878960E0C9
:101540000E949B1EF301808D61E00E947D1EF301CD
:10155000108280E485838FEF86831782108A81E072
:1015600087871282118280E090E06AE070E00E943A
:10157000862474836383CF91DF910F91EF90CF9096
:10158000AF908F907F906F9008950F931F938C0171
:1015900008551F4FF801108202501040F8011082C8
:1015A0000251104081E0F8018193819381938193EE
:1015B0008F0180830859104080E090E0A0E0B0E007
:1015C000F801848B958BA68BB78B808F918FA28F20
:1015D000B38F848F958FA68FB78F80A391A3A2A37B
:1015E000B3A380E090E0A8ECB3E484A395A3A6A302
:1015F000B7A38FE061E00E947D1E82E161E00E945E
:101600007D1E87E161E00E947D1E86E161E00E940F
:101610007D1E8DE161E00E947D1E8EE161E00E94F1
:101620007D1E83E161E00E947D1E83E161E00E94F6
:101630007D1E8FE161E00E947D1EC8010E94AA0903
:1016400084E160E00E947D1E89E160E00E947D1ED1
:1016500081E060E00E947D1E83E890ECA0EAB0E4A7
:10166000F80180839183A283B38384839583A683C7
:10167000B78381EE9AECA6EDB4E480879187A287C8
:10168000B38780E090E0A0E0B0E484879587A687E8
:10169000B78780E090E0A0E8BFE3808B918BA28BBE
:1016A000B38B1F910F9108958F92AF92CF92EF92CB
:1016B0000F9382E594E060E14CE02EE003E0E4E08B
:1016C000EE2E71E1C72E5DE0A52E33E0832E0E9441
:1016D000550A8BE694E00E94C50A84E195E00E94D9
:1016E000C50A8DEB95E00E94C50A86E696E00E9449
:1016F000C50A0F91EF90CF90AF908F900895AF9261
:10170000CF92DF92EF92FF920F931F93CF93DF93CD
:10171000EB01C016D106E206F30611F420E010C07A
:1017200077FD0DC0AA2059F4862F0E94E61E892B52
:1017300031F48C2F0E94E61E20E0892B09F021E075
:10174000822FDF91CF911F910F91FF90EF90DF904B
:10175000CF90AF9008952F923F924F925F926F92E9
:101760007F928F929F92AF92BF92CF92DF92EF9231
:10177000FF920F931F93DF93CF93CDB7DEB7AC9754
:101780000FB6F894DEBF0FBECDBF88559F4FDC016A
:101790008C91A85AB040BCA7ABA7882309F4DDC33D
:1017A000AC56BF4FBA83A983EBA5FCA5E05CFF4F05
:1017B000FC83EB832BA53CA52C5A3F4F3E832D8306
:1017C0008BA59CA587569F4F98878F83ABA5BCA5FB
:1017D000AB56BF4FBA87A987EBA5FCA5EC5BFF4FC3
:1017E000FC87EB872BA53CA5285A3F4F3E872D87CA
:1017F0008BA59CA586569F4F988B8F87ABA5BCA5C4
:10180000AA56BF4FBA8BA98BEBA5FCA5E85BFF4F8F
:10181000FC8BEB8B2BA53CA5245A3F4F3E8B2D8B8D
:101820008BA59CA585569F4F988F8F8BABA5BCA58C
:10183000A956BF4FBA8FA98F9CE4292E312CEBA556
:10184000FCA52E0E3F1EE05AFF4FFC8FEB8F2BA501
:101850003CA524563F4F3E8F2D8F8BA59CA58856C7
:101860009F4F98A38F8F80E5482E512CABA5BCA528
:101870004A0E5B1EAC59BF4FBAA3A9A3EBA5FCA5AA
:10188000E356FF4FFCA3EBA307EA602E712C2BA5B8
:101890003CA5620E731E28593F4F3EA32DA38BA576
:1018A0009CA584589F4F98A78FA31EE9812E912C49
:1018B000ABA5BCA58A0E9B1EA459BF4FBAA7A9A76A
:1018C000E981FA81A080AB81BC810D911D912D91A0
:1018D0003C91ED81FE81C080D180E280F3808BA5B8
:1018E0009CA564E170E045E150E00E947F0BAF8170
:1018F000B8858C93E985FA85A080AB85BC850D9170
:101900001D912D913C91ED85FE85C080D180E280B6
:10191000F3808BA59CA569E170E04AE150E00E944C
:101920007F0BAF85B8898C93E989FA89A080AB8950
:10193000BC890D911D912D913C91ED89FE89C0804E
:10194000D180E280F3808BA59CA561E070E042E04D
:1019500050E00E947F0BAF89B88D8C93E98DFA8D92
:10196000A080D1010D911D912D913C91EB8DFC8DAD
:10197000C080D180E280F3808BA59CA56FEF7FEFC4
:101980004FEF5FEF0E947F0BAD8DBE8D8C93EF8D7F
:10199000F8A1A080D2010D911D912D913C91E9A15A
:1019A000FAA1C080D180E280F3808BA59CA56FEF67
:1019B0007FEF4FEF5FEF0E947F0BABA1BCA18C9339
:1019C000F3011082AF81B8858C91882309F45AC045
:1019D000EDA1FEA180819181A281B381EFA1F8A543
:1019E0002081318142815381820F931FA41FB51F33
:1019F00080839183A283B383181619061A061B06E7
:101A00000CF040C08FE061E00E949B1E8EE090E0F1
:101A10000197F1F78FE060E00E949B1E81E0D30107
:101A20008C93F4012081318142815381EFA1F8A58B
:101A300080819181A281B381821B930BA40BB50B92
:101A400080839183A283B383A981BA818C91EB8136
:101A5000FC812081318142815381882349F02F5FAD
:101A60003F4F4F4F5F4F20833183428353830AC0E0
:101A70002150304040405040EB81FC812083318335
:101A800042835383AF85B8898C91882309F45AC067
:101A90000BA51CA500581F4FE9A5FAA580819181CF
:101AA000A281B381F8012081318142815381820F6B
:101AB000931FA41FB51F80839183A283B38318163D
:101AC00019061A061B060CF03DC087E161E00E9472
:101AD0009B1E8EE090E00197F1F787E160E00E94A5
:101AE0009B1E81E0D3018C93F401208131814281DE
:101AF0005381F80180819181A281B381821B930B74
:101B0000A40BB50B80839183A283B383A985BA8587
:101B10008C91882351F0EB85FC8580819181A28195
:101B2000B3810196A11DB11D09C0EB85FC858081A3
:101B30009181A281B3810197A109B1098083918329
:101B4000A283B383AF89B88D8C91882309F460C0D8
:101B50000BA51CA50C571F4FEBA5FCA5E059FF4F8B
:101B600080819181A281B381E057F040FCA7EBA76F
:101B7000F8012081318142815381820F931FA41F7C
:101B8000B51F80839183A283B383181619061A06A2
:101B90001B060CF03DC08DE161E00E949B1E8EE0B3
:101BA00090E00197F1F78DE160E00E949B1E81E0DB
:101BB000D3018C93F4012081318142815381F8015A
:101BC00080819181A281B381821B930BA40BB50B01
:101BD00080839183A283B383A989BA898C91882356
:101BE00051F0EB89FC8980819181A281B3810196BA
:101BF000A11DB11D09C0EB89FC8980819181A28161
:101C0000B3810197A109B10980839183A283B38332
:101C1000AD8DBE8D8C91882309F46BC0B8E8EB2E96
:101C2000F12CEBA5FCA5EE0EFF1EEC58FF4F8081BA
:101C30009181A281B381E457F040FCA7EBA7F701A3
:101C40002081318142815381820F931FA41FB51FD0
:101C500080839183A283B383181619061A061B0684
:101C60000CF047C0E091E402F0E0EE0FFF1FEE51F0
:101C7000FD4F00811181D80152968C9161E00E9444
:101C80009B1E8EE090E00197F1F7F801828960E0F9
:101C90000E949B1E81E0D3018C93F401208131814D
:101CA00042815381F70180819181A281B381821B9E
:101CB000930BA40BB50B80839183A283B383A98D6F
:101CC000BA8D8C91882349F0F10180819181A281A4
:101CD000B3810196A11DB11D08C0F10180819181E0
:101CE000A281B3810197A109B10980839183A28365
:101CF000B383ABA1BCA18C91882309F44AC0EBA5A6
:101D0000FCA5E457FF4F2BA53CA528583F4FD90110
:101D10002D913D914D915C911397A857B040BCA770
:101D2000ABA780819181A281B381280F391F4A1FFF
:101D30005B1F2083318342835383121613061406DC
:101D400015063CF5D401ED90FD900D911C912E19D6
:101D50003F09400B510B2083318342835383EF8D26
:101D6000F8A18081882349F0F20180819181A281CC
:101D7000B3810196A11DB11D08C0F201808191813E
:101D8000A281B3810197A109B10980839183A283C4
:101D9000B383D3018C91882309F48EC0EBA5FCA5F5
:101DA000E057FF4FFCA7EBA7D2016D917D918D917C
:101DB0009C9120813181428153810E946724EBA54F
:101DC000FCA57296DF016083718382839383A25A9C
:101DD000B040BCA7ABA70E94EB227B018C01EBA516
:101DE000FCA564AD75AD86AD97AD20EC31EE44E653
:101DF0005CE40E949F235B016C01D4016D917D9195
:101E00008D919C910E94EB229B01AC01C801B7010E
:101E10000E949F239B01AC01C601B5010E94502284
:101E200020E030E040E050E00E949B238823D4F083
:101E3000F40160817181828193810E94EB229B0178
:101E4000AC01C801B7010E949F239B01AC01C601F0
:101E5000B5010E94502220E030E040E05FE30E94A4
:101E6000E82119C0D4016D917D918D919C910E94C2
:101E7000EB229B01AC01C801B7010E949F239B018B
:101E8000AC01C601B5010E94502220E030E040E0E4
:101E90005FE30E94E7210E94B822EBA5FCA5EE5566
:101EA000FF4FDF016083718382839383A25AB04026
:101EB000BCA7ABA70E94A505F3018081882309F088
:101EC0003FC0ABA1BCA18C918823D1F1F9CCEBA58B
:101ED000FCA5E656FF4F8081EA59F040FCA7EBA72E
:101EE0008823D1F4E556FF4F8081EB59F040FCA7E1
:101EF000EBA7882389F4E456FF4F8081EC59F0402A
:101F0000FCA7EBA7882341F4E356FF4F8081ED59EE
:101F1000F040FCA7EBA701C081E0EBA5FCA5E855CC
:101F2000FF4F808380818823C1F48BA59CA50E94EC
:101F3000AA0968EE73E080E090E00E94A5050DC05C
:101F40002BA53CA527563F4FD9018C91A959B040EC
:101F5000BCA7ABA7882301F7BACFAC960FB6F8940D
:101F6000DEBF0FBECDBFCF91DF911F910F91FF90CC
:101F7000EF90DF90CF90BF90AF909F908F907F9029
:101F80006F905F904F903F902F9008951F920F9207
:101F90000FB60F9211241F932F933F934F935F938C
:101FA0006F937F938F939F93AF93BF93EF93FF9321
:101FB00080916F008D7F80936F008091540390918A
:101FC0005503019690935503809354038058924093
:101FD00031F40E94450A1092550310925403E09187
:101FE0005203F0E0EE0FFF1FE75BFC4F0190F08122
:101FF000E02DE855FF4F8081882361F0E091520386
:10200000F0E0EE0FFF1FE75BFC4F808191810E94A3
:10201000AB0B22C09091520380915103981799F510
:10202000E0915203F0E0EE0FFF1FE75BFC4F0190E1
:10203000F081E02DE855FF4F8081882321F50CC009
:10204000E12FF0E0EE0FFF1FE75BFC4F80819181F5
:102050000E94090A1093520380916F00826080935E
:102060006F00FF91EF91BF91AF919F918F917F9101
:102070006F915F914F913F912F911F910F900FBEE4
:102080000F901F901895109152031F5F1430C0F2EB
:1020900010E0D6CF2F923F924F925F926F927F9235
:1020A0008F929F92AF92BF92CF92DF92EF92FF9268
:1020B0000F931F93DF93CF93CDB7DEB7A4970FB6DF
:1020C000F894DEBF0FBECDBF2C01362E272EDC01CB
:1020D0005496862F972F9C01F90184E101900D926F
:1020E0008150E1F726EA30E0420E531ED2011C92E5
:1020F000EAE5FFEF4E0E5F1ED20154966D917D9181
:102100008D919C91579720915603309157034091A0
:102110005803509159030E94E7215B016C01E89438
:10212000D7F8F201608D718D828D938D20915A03C5
:1021300030915B0340915C0350915D030E94E72165
:102140007B018C01E89417F9D2015C966D917D9129
:102150008D919C915F9720915E0330915F03409138
:102160006003509161030E94E7213B014C01E89418
:1021700097F8F20160A171A182A193A1209162035D
:102180003091630340916403509165030E94E721FD
:102190009B01AC015F772D8F3E8F4F8F58A3D201EB
:1021A00094966D917D918D919C9197972091660366
:1021B0003091670340916803509169030E94E721C1
:1021C0009B01AC015F7729A33AA34BA35CA3D20187
:1021D000D8962D933D934D935C93DB972D8D3E8D3B
:1021E0004F8D58A1D4962D933D934D935C93D797E3
:1021F000F20160AA71AA82AA93AA9C96ED92FD921E
:102200000D931C939F97A0A6B1A6C2A6D3A6C60104
:10221000B501A60195010E949F235B016C01C801D5
:10222000B701A80197010E949F239B01AC01C60141
:10223000B5010E94E8217B018C01C401B301A40116
:1022400093010E949F239B01AC01C801B7010E942A
:10225000E821D201DC966D937D938D939C93DF975B
:1022600027E137EB41ED58E30E944C2288236CF4C0
:102270006D8D7E8D8F8D98A19B01AC010E949F2357
:10228000F20164AF75AF86AF97AFD201DC966D9166
:102290007D918D919C91DF9727E137EB41ED58E3DC
:1022A0000E944C2288236CF469A17AA18BA19CA185
:1022B0009B01AC010E949F23F20164AF75AF86AF12
:1022C00097AFD201DC966D917D918D919C91DF97B6
:1022D0000E940624F20164AF75AF86AF97AFF42C6D
:1022E000E52C8E010F5F1F4FC801B20146E553E098
:1022F0000E94AA03D201A05CBF4FF80184E10190C3
:102300000D928150E1F724E130E0420E531E8E0120
:102310000F5F1F4FC8016F2D7E2DA2010E94AA03DF
:1023200040E450E0440E551ED2018CEA9FEF480E67
:10233000591EF80184E101900D928150E1F7F201FC
:10234000EC5AFF4FA0E4B0E04A0E5B1E20813181C1
:10235000428153812D8B3E8B4F8B588FF2018081B0
:102360009181A281B38120EC3FEF420E531E2D8953
:102370003E894F89588D281B390B4A0B5B0B2D8BDF
:102380003E8B4F8B588F57FF0BC050954095309523
:1023900021953F4F4F4F5F4F2D8B3E8B4F8B588F6B
:1023A000F201E85AFF4F44E450E0440E551EE0802D
:1023B000F18002811381F20180819181A281B38138
:1023C0002CEB3FEF420E531EE81AF90A0A0B1B0BC7
:1023D00017FF08C010950095F094E094E11CF11CE3
:1023E000011D111DF201E45AFF4F48E450E0440E74
:1023F000551E80819181A281B381898F9A8FAB8F85
:10240000BC8FF20180819181A281B38128EB3FEFE3
:10241000420E531E298D3A8D4B8D5C8D281B390B36
:102420004A0B5B0B298F3A8F4B8F5C8F57FF0BC08A
:1024300050954095309521953F4F4F4F5F4F298FD5
:102440003A8F4B8F5C8FF201E05AFF4F4CE450E023
:10245000440E551E80809180A280B380F20180815D
:102460009181A281B38124EB3FEF420E531E881A63
:10247000990AAA0ABB0AB7FE08C0B094A094909427
:102480008094811C911CA11CB11CB20168587F4F23
:10249000F201EC59FF4F40E550E0440E551E2081FB
:1024A000318142815381F20180819181A281B38186
:1024B000E0EBFFEF4E0E5F1E281B390B4A0B5B0B48
:1024C00057FF07C050954095309521953F4F4F4F8E
:1024D0005F4FDB012D933D934D935C931397E4E79E
:1024E000F0E04E0E5F1ED2018D929D92AD92BC9295
:1024F0001397298D3A8D4B8D5C8D5E934E933E9351
:102500002E93FD0112930293F292E292DF012D8944
:102510003E894F89588D5E934E933E932E932D01A5
:10252000E8E9FFEF4E0E5F1EDA01C9012E153F05E7
:102530004007510714F4D801C701F201E256FF4FDA
:1025400080839183A283B383E080F1800281138131
:1025500020E730E0420E531ED2012D913D914D9166
:102560005C9180E99FEF480E591E2E153F054007EC
:10257000510724F42081318142815381F201E256D6
:10258000FF4F2083318342835383E080F1800281B7
:102590001381A4E7B0E04A0E5B1ED2012D913D915C
:1025A0004D915C918CE89FEF480E591E2E153F050A
:1025B0004007510724F42081318142815381F20187
:1025C000E256FF4F20833183428353838081918180
:1025D000A281B3810097A105B10599F4A6EAB0E004
:1025E0004A0E5B1E81E0F2018083A6E5B3E0232D55
:1025F000322DC901FC0184E101900D928150E1F777
:10260000B7C1B20168587F4FF201EC59FF4F20E586
:1026100030E0420E531E2081318142815381F2010C
:1026200080819181A281B381E0EBFFEF4E0E5F1EAE
:10263000281B390B4A0B5B0B57FF07C05095409581
:10264000309521953F4F4F4F5F4FDB012D933D93C9
:102650004D935C93139770E9672E712C640C751C75
:1026600021E030E040E050E0D3012D933D934D93C5
:102670005C931397E8E7F0E04E0E5F1ED201ED90F9
:10268000FD900D911C91E8E8FFEF4E0E5F1E6EE984
:10269000C62ED12CC40CD51CF60180819181A2815B
:1026A000B3818E159F05A007B1070CF07BC0208178
:1026B000318142815381C801B7010E94BB24490185
:1026C0005A01D3018D929D92AD92BC921397B3E0C3
:1026D0008B169104A104B1040CF455C082010C596D
:1026E0001F4FF8016081718182819381A50194015E
:1026F0000E94BB2469017A01D8012D933D934D932B
:102700005C9313978201005B1F4FF8016081718118
:1027100082819381A50194010E94BB24C901DA0141
:10272000F80180839183A283B383A7019601281BBC
:10273000390B4A0B5B0B57FF07C0509540953095FE
:1027400021953F4F4F4F5F4F88E790E0480E591E4D
:10275000D2012D933D934D935C931397E8E8FFEFDF
:102760004E0E5F1EF201E256FF4F80819181A281E1
:10277000B38182179307A407B507A4F4208331839C
:10278000428353830FC021E030E040E050E0D301AA
:102790002D933D934D935C931397F601E082F18264
:1027A0000283138310E0D20154966D917D918D9137
:1027B0009C915797209156033091570340915803AD
:1027C000509159030E949B2388230CF011E0E4E907
:1027D000F0E04E0E5F1ED2011C93ECE6FFEF4E0EB2
:1027E0005F1E10E0D20158966D917D918D919C9164
:1027F0005B9720915A0330915B0340915C035091A9
:102800005D030E949B2388230CF011E0E5E9F0E0D2
:102810004E0E5F1ED2011C93EBE6FFEF4E0E5F1EC5
:1028200010E0D2015C966D917D918D919C915F97A6
:1028300020915E0330915F034091600350916103EA
:102840000E949B2388230CF011E0E6E9F0E04E0E95
:102850005F1ED2011C93EAE6FFEF4E0E5F1E10E0F2
:10286000D20190966D917D918D919C91939720913D
:1028700062033091630340916403509165030E94A9
:102880009B2388230CF011E0E7E9F0E04E0E5F1E79
:10289000D2011C93E9E6FFEF4E0E5F1E10E0D2015D
:1028A00094966D917D918D919C919797209166035F
:1028B0003091670340916803509169030E949B2304
:1028C00088230CF011E0E8E9F0E04E0E5F1ED20123
:1028D0001C93E6E0F0E04E0E5F1ED2016D917D91FB
:1028E0008D919C91E2E6FFEF4E0E5F1E22E030E0FC
:1028F00040E050E00E94BB245095409530952195D2
:102900003F4F4F4F5F4FD201A458BF4F2C931196AA
:102910003C93119712964C93129713965C931397CE
:10292000F201E058FF4F208331834283538324E830
:1029300030E0420E531E8D919D910D90BC91A02DC3
:10294000F20181939193A193B19381939193A19378
:10295000B19380839183A283B383A6E5B3E0232D53
:10296000322DC901FC0184E101900D928150E1F703
:10297000A4960FB6F894DEBF0FBECDBFCF91DF9106
:102980001F910F91FF90EF90DF90CF90BF90AF908D
:102990009F908F907F906F905F904F903F902F907F
:1029A00008951F93CF93DF93EC0106C061E070E0C0
:1029B00080E090E00E94A61D80915203882329F4B4
:1029C00080915103833059F4F1CF209151038091CC
:1029D000520330E090E001972817390739F310913E
:1029E00051031F5F143008F010E0E12FF0E0EE0F0C
:1029F000FF1FE75BFC4F80819181BE010E944A105E
:102A000010935103DF91CF911F910895CF93DF93DE
:102A1000EC019B01A0E0B4E0E6E5F3E084E1019085
:102A20000D928150E1F788819981AA81BB818093C1
:102A3000000490930104A0930204B0930304F901ED
:102A400080819181A281B3818093100490931104BD
:102A5000A0931204B093130480E094E00E94D11478
:102A6000DF91CF910895CF93DF93EC019B01A0E01C
:102A7000B4E0E6E5F3E084E101900D928150E1F7E6
:102A800088819981AA81BB81809304049093050475
:102A9000A0930604B0930704F90180819181A2817B
:102AA000B3818093100490931104A0931204B09307
:102AB000130480E094E00E94D114DF91CF91089537
:102AC000CF93DF93EC019B01A0E0B4E0E6E5F3E0F7
:102AD00084E101900D928150E1F788819981AA816A
:102AE000BB818093080490930904A0930A04B093D7
:102AF0000B04F90180819181A281B381809310043C
:102B000090931104A0931204B093130480E094E016
:102B10000E94D114DF91CF9108954F925F926F92EE
:102B20007F928F929F92AF92BF92CF92DF92EF925D
:102B3000FF920F931F93DF93CF93CDB7DEB7C45CA3
:102B4000D0400FB6F894DEBF0FBECDBF7C01AB0105
:102B5000DC018C918F3209F481C680E090E0A0E026
:102B6000B0E08093EC039093ED03A093EE03B09359
:102B7000EF038093F0039093F103A093F203B093DB
:102B8000F3038093F4039093F503A093F603B093BB
:102B9000F7038093F8039093F903A093FA03B0939B
:102BA000FB038093FC039093FD03A093FE03B0937B
:102BB000FF0384E194E0B7010E94FC060091140435
:102BC00010911504C801880F892F881F990B9195C2
:102BD0008170912F917010FD03C0882309F48AC081
:102BE000981749F08091D70282FF71C08BE197E07E
:102BF00068E671E06AC0992309F47CC060E080E077
:102C000002C06E278F5FF701E80FF11DE081EA3205
:102C1000C1F7262F30E08091480490914904821733
:102C2000930751F18091D70282FF51C0FE01EF5905
:102C3000FF4F9F014FE052E089E3DA010D90AD01B3
:102C4000D9010D929D018150C1F7F9968BE2DF0108
:102C50001D928A95E9F770E080E090E08E010F59AF
:102C60001F4FA801485C5F4F2AE030E00E946603D6
:102C70008BE197E0B80129C001FF07C080911804DB
:102C8000909119048E36910529F180914E0490910E
:102C90004F04A0915004B09151040196A11DB11DA3
:102CA00020914A0430914B0440914C0450914D04C2
:102CB000281739074A075B0769F08091D70282FF1E
:102CC00006C08BE197E06FEB71E00E948A1F0E94C3
:102CD000FE05C4C580914A0490914B04A0914C0418
:102CE000B0914D0480934E0490934F04A0935004F0
:102CF000B0935104C80183709074892B91F401152D
:102D0000110579F08091D8029091D90297FD09C000
:102D10009093170480931604016010931504009398
:102D20001404009114041091150400FFF6C380915F
:102D30001604909117049093D9028093D802ACEEB8
:102D4000B3E0E6E5F3E084E101900D928150E1F714
:102D50008091DA02980128703070882309F449C004
:102D6000232B81F08091200490912104A0912204D2
:102D7000B09123048093EC039093ED03A093EE03B2
:102D8000B093EF0304FF10C08091240490912504B8
:102D9000A0912604B09127048093F0039093F1034F
:102DA000A093F203B093F30305FF10C080912804B1
:102DB00090912904A0912A04B0912B048093F403EC
:102DC0009093F503A093F603B093F70315FF81C02A
:102DD00080912C0490912D04A0912E04B0912F0489
:102DE0008093F8039093F903A093FA03B093FB0345
:102DF00070C0232BD1F06091EC037091ED038091B2
:102E0000EE039091EF032091200430912104409132
:102E10002204509123040E94E8216093EC037093F4
:102E2000ED038093EE039093EF0304FF1AC06091CB
:102E3000F0037091F1038091F2039091F3032091DC
:102E400024043091250440912604509127040E94C7
:102E5000E8216093F0037093F1038093F203909361
:102E6000F30305FF1AC06091F4037091F50380919C
:102E7000F6039091F70320912804309129044091A2
:102E80002A0450912B040E94E8216093F40370936C
:102E9000F5038093F6039093F70315FF1AC0609132
:102EA000F8037091F9038091FA039091FB0320914C
:102EB0002C0430912D0440912E0450912F040E9437
:102EC000E8216093F8037093F9038093FA039093D9
:102ED000FB0311FF10C08091380490913904A09138
:102EE0003A04B0913B048093FC039093FD03A093BC
:102EF000FE03B093FF038091160490911704813074
:102F0000910539F18C31910549F1892B09F01BC2EA
:102F1000E090FC03F090FD030091FE031091FF038D
:102F200080E090E8ABE3B5E48093FC039093FD036D
:102F3000A093FE03B093FF038CEE93E00E94D114A4
:102F4000E092FC03F092FD030093FE031093FF0355
:102F500085C48CEE93E00E94D11480C40F2EF0E063
:102F60006F2EF0E07F2EF8EC8F2EF3E49F2EF02DE5
:102F7000609266037092670380926803909269037F
:102F800060915603709157038091580390915903B3
:102F900020E030E040EA50E40E94E72169837A8330
:102FA0008B839C830F2EF0E0EF2EF0E8FF2EFBE3E7
:102FB0000F2FF5E41F2FF02DED82FE820F8318876F
:102FC000CE010196BE016B5F7F4F0E940615609196
:102FD000560370915703809158039091590320E054
:102FE00030E04AE753E40E94E72169877A878B87BC
:102FF0009C87ED86FE860F87188BCE010996BE0151
:10300000635F7F4F0E94061520E030E040E050E013
:10301000209356033093570340935803509359031A
:1030200060926603709267038092680390926903CE
:1030300080E090E0A0E8BFE3898B9A8BAB8BBC8BE0
:103040006D8A7E8A8F8A988ECE014196BE016B5E14
:103050007F4F0E940615609156037091570380912F
:1030600058039091590320E030E040E251E40E947F
:10307000E721698F7A8F8B8F9C8F6D8E7E8E8F8EDE
:1030800098A2CE014996BE01635E7F4F0E9406154D
:1030900020E030E040E050E02093560330935703A7
:1030A000409358035093590360915A0370915B0306
:1030B00080915C0390915D0320E030E040EA50E4B1
:1030C0000E94E72169A37AA38BA39CA3EDA2FEA291
:1030D0000FA318A7CE018196BE016B5D7F4F0E94A2
:1030E000331560915A0370915B0380915C0390915A
:1030F0005D0320E030E04AE753E40E94E72169A73E
:103100007AA78BA79CA7EDA6FEA60FA718ABCE01AA
:103110008996BE01635D7F4F0E94331580E090E089
:10312000A0E0B0E080935A0390935B03A0935C030C
:10313000B0935D03609266037092670380926803A8
:103140009092690320E030E040E85FE329AB3AABBE
:103150004BAB5CAB6DAA7EAA8FAA98AECE01C1968E
:10316000BE016B5C7F4F0E94331560915A037091D2
:103170005B0380915C0390915D0320E030E040E2CE
:1031800051E40E94E72169AF7AAF8BAF9CAFFE019B
:10319000FD966082718282829382CE01C996BF01C0
:1031A0000E94331580E090E0A0E0B0E080935A03E5
:1031B00090935B03A0935C03B0935D030F2EF0E04C
:1031C000AF2EF0E0BF2EF8ECCF2EF1E4DF2EF02D85
:1031D000A0926603B0926703C0926803D09269031D
:1031E00061E4462E512C4C0E5D1E60915E03709181
:1031F0005F03809160039091610320E030E040E044
:103200005FE30E94E721D2016D937D938D939C93A0
:103210001397FE01EB5BFF4F0F2EF0E0EF2EF0E077
:10322000FF2EF6E90F2FF2E41F2FF02DE082F1823E
:1032300002831383C201BF010E94601559E4452E29
:10324000512C4C0E5D1E60915E0370915F03809166
:1032500060039091610320E030E04AE753E40E946C
:10326000E721F2016083718382839383FE01E35B34
:10327000FF4FE082F18202831383C201BF010E94EB
:10328000601520E030E040E050E020935E03309392
:103290005F034093600350936103A0926603B09272
:1032A0006703C0926803D0926903DE01AF5ABF4F33
:1032B00020E030E040E85FE32D933D934D935C9335
:1032C0001397FE01EB5AFF4FA082B182C282D382D4
:1032D000CD01BF010E9460158E01075A1F4F6091FA
:1032E0005E0370915F03809160039091610320E021
:1032F00030E040E050E40E94E721D8016D937D93D7
:103300008D939C931397FE01E35AFF4FA082B182E5
:10331000C282D382C801BF010E94601520E030E064
:1033200040E050E020935E0330935F0340936003DE
:103330005093610360926603709267038092680302
:10334000909269038BC29091520380915103981718
:1033500009F06FC2E0915203F0E0EE0FFF1FE75B50
:10336000FC4F0190F081E02DE855FF4F80818823CC
:1033700009F05FC280911604909117048531910580
:1033800009F467C0863191053CF48430910589F0D9
:10339000449709F0A8C024C08B35910509F496C064
:1033A0008C35910509F495C08A35910509F09BC0CB
:1033B00089C060911C0470911D0480911E0490913D
:1033C0001F0420E030E040E05FE30E94E8210E941B
:1033D000B822882777FD8095982F0E94A61D9DC052
:1033E000A9E4B3E02DE931E34FEF52E40F2EF6EDFF
:1033F000AF2EFDE7BF2EFAE2CF2EF7E4DF2EF02D41
:103400000F2EF3E3EF2EF3E3FF2EFBE40F2FF2E496
:103410001F2FF02D60E070E080E89FE3ED91FD91BB
:1034200020833183428353832483358346835783A8
:10343000A086B186C286D386E486F586068717877E
:10344000608B718B828B938BE3E0A135BE0731F7E4
:1034500064C0A9E4B3E023E830EC40EA50E40F2E66
:10346000F1EEAF2EFAECBF2EF6EDCF2EF4E4DF2E08
:10347000F02D0F2EF0E0EF2EF0E0FF2EF0E00F2FFA
:10348000F0E41F2FF02D60E070E080E89FE3ED9105
:10349000FD91208331834283538324833583468384
:1034A0005783A086B186C286D386E486F5860687D2
:1034B0001787608B718B828B938BF3E0A135BF07ED
:1034C00031F72BC081E08093DA0227C01092DA0234
:1034D00024C0A6E5B3E0ECEEF3E084E101900D92A8
:1034E0008150E1F71AC08091D70282FF16C08BE1AC
:1034F00097E06DEE71E00E945B1F409116045091C1
:103500001704662757FD6095762F8BE197E02AE038
:1035100030E00E9479200E94FE058091140481FF12
:1035200066C19091520380915103981709F088C1A8
:10353000E0915203F0E0EE0FFF1FE75BFC4F0190BC
:10354000F081E02DE855FF4F8081882309F078C194
:1035500080911804909119048D36910509F478C072
:103560008E36910584F48936910509F45AC08A365D
:1035700091050CF03CC1009709F439C188369105DA
:1035800009F01BC11BC080379105A9F08137910557
:103590004CF48E36910509F486C08F36910509F0FA
:1035A0000CC1A0C08E37910509F4C8C08F379105B2
:1035B00009F003C1E1C002E310E0A9C08091140446
:1035C0009091150492FF13C1E091E402F0E0EE0F38
:1035D000FF1FEE51FD4F0081118160913C047091FD
:1035E0003D0480913E0490913F040E94B8229B01CB
:1035F000D80112967C936E9311978BE090E0FC01BA
:103600002E9FC0012F9F900D3E9F900D11246AE0C8
:1036100070E00E948624D80114967C936E931397D1
:10362000E6C08BE197E064EF71E00E945B1FE091E0
:10363000E402F0E0EE0FFF1FEE51FD4F808191811B
:103640000E949508BC018BE197E00E945420CFC0F6
:10365000E091E402F0E0EE0FFF1FEE51FD4F00811C
:10366000118160913C0470913D0480913E049091E1
:103670003F040E94B8229B01F801728361838BE0B2
:1036800090E0AC01249FC001259F900D349F900DC8
:1036900011246AE070E00E94862474836383C80169
:1036A0000E942C09A4C08091140487FFA0C08091BF
:1036B0004A0490914B04A0914C04B0914D04809326
:1036C0004E0490934F04A0935004B0935104809102
:1036D000D70281FF8CC08BE197E067EF71E00E9419
:1036E0008A1F85C060913C0470913D0480913E0426
:1036F00090913F040E94BD226093D70278C00E943F
:10370000450A62E370E080E090E00E94A61D01504F
:1037100010405FEF0F3F150791F7809151038093A1
:10372000520309E413E0D8018D919D918D010E940F
:10373000AF09B3E001351B07B1F759C0E091E402CE
:10374000F0E0EE0FFF1FEE51FD4F008111816091FF
:103750001C0470911D0480911E0490911F0420E0B0
:1037600030E040E05FE30E94E8210E94B8229B0124
:10377000AC01C80161E01DC0E091E402F0E0EE0F91
:10378000FF1FEE51FD4F0081118160911C0470916B
:103790001D0480911E0490911F0420E030E040E061
:1037A0005FE30E94E8210E94B8229B01AC01C8019E
:1037B00060E0A9010E947E091AC08091D70282FFB1
:1037C00016C08BE197E068E072E00E945B1F4091B9
:1037D000180450911904662757FD6095762F8BE1E8
:1037E00097E02AE030E00E9479200E94FE05809157
:1037F00014049091150496FF31C09091520380916A
:103800005103981721F5E0915203F0E0EE0FFF1FEE
:10381000E75BFC4F0190F081E02DE855FF4F808180
:103820008823A9F48091E4028823C1F01092E40275
:1038300015C061E070E080E090E00E94A61D83CD9D
:1038400061E070E080E090E00E94A61D6ACE61E039
:1038500070E080E090E00E94A61DCFCFCC53DF4FF8
:103860000FB6F894DEBF0FBECDBFCF91DF911F9191
:103870000F91FF90EF90DF90CF90BF90AF909F900F
:103880008F907F906F905F904F9008958BE197E0BD
:103890000E94511F882331F18BE197E00E944C1F59
:1038A0008093D6020E94450A8091D6028D3019F489
:1038B0008AE08093D6029091D60290329CF09B339E
:1038C00019F481E08093EB038091EB03882351F49A
:1038D0008091EA03E82FF0E0E659FC4F90838F5F78
:1038E0008093EA038091EA0387FF04C01092EA0301
:1038F0001092EB03E091EA03EE2309F440C08091BB
:10390000D6028A30E1F5F0E0E659FC4F1082809152
:10391000D70280FF0CC08BE197E063E772E00E9462
:103920005B1F8BE197E06AE673E00E948A1F60915B
:10393000EA038AE693E070E00E948D151092EA0394
:103940001092EB038091E502882399F08091D702D1
:1039500081FF0FC08BE197E069E772E00E945B1F77
:103960008BE197E065EE72E00E948A1F1092E502FB
:1039700008958BE197E06DE772E00E948A1F089539
:103980000E940D090E94461C0895EF92FF920F932A
:103990001F93EFE6EE2EF12CF70180818D7F80835F
:1039A0000E942705109255031092540380E061E0B5
:1039B0000E947D1E1092E502109253038FEF9FEF3D
:1039C000AFEFBFEF80934E0490934F04A093500449
:1039D000B093510482E594E09093E3028093E20275
:1039E0001092E40210925103109252038BE694E07D
:1039F00090934A038093490384E195E090934C03AC
:103A000080934B038DEB95E090934E0380934D0391
:103A100086E696E09093500380934F031092EA035A
:103A20001092EB030BE117E0C80140E05BE460E0BB
:103A300070E00E94561FC80160E872E00E948A1F71
:103A400068EE73E080E090E00E94A505F7018081B8
:103A5000826080831F910F91FF90EF9008950E94E4
:103A6000D01D0E94C51C0E94C01CFDCF1F920F924A
:103A70000FB60F9211242F938F939F93AF93BF9301
:103A800080910F0790911007A0911107B091120734
:103A90000196A11DB11D80930F0790931007A0936D
:103AA0001107B09312078091130790911407A0910A
:103AB0001507B09116078050904CAF4FBF4F8093C1
:103AC000130790931407A0931507B093160727C008
:103AD0008091130790911407A0911507B0911607D4
:103AE00080589E43A040B0408093130790931407E2
:103AF000A0931507B09316078091170790911807A8
:103B0000A0911907B0911A070196A11DB11D8093CC
:103B1000170790931807A0931907B0931A0780917D
:103B2000130790911407A0911507B09116078158BB
:103B30009E43A040B04060F6BF91AF919F918F919E
:103B40002F910F900FBE0F901F901895EF92FF923C
:103B50000F931F937B018C018FB7F8944091170747
:103B6000509118076091190770911A078FBF2FB7EE
:103B7000F8948091170790911807A0911907B091B8
:103B80001A072FBF841B950BA60BB70BE816F90677
:103B90000A071B0760F71F910F91FF90EF900895A0
:103BA000789484B5826084BD84B5816084BD85B518
:103BB000826085BD85B5816085BDEEE6F0E08081DF
:103BC00081608083E1E8F0E0808182608083808191
:103BD00081608083E0E8F0E0808181608083E1EBB8
:103BE000F0E0808184608083E0EBF0E080818160A0
:103BF0008083EAE7F0E08081846080838081826056
:103C0000808380818160808380818068808310923E
:103C1000C10008959091DB029295990F990F907CC5
:103C20008770892B80937C0080917A0080648093D8
:103C30007A0080917A0086FDFCCF20917800409137
:103C40007900942F80E030E0282B392BC9010895AA
:103C50001F93CF93DF93182FEB0161E00E947D1E2D
:103C6000E12FF0E0E553FF4F8491833051F48091D0
:103C70008000806880938000D0938900C093880082
:103C800038C0843051F4809180008062809380003D
:103C9000D0938B00C0938A002CC0813029F484B566
:103CA000806884BDC7BD25C0823029F484B5806298
:103CB00084BDC8BD1EC0863041F48091B0008068CC
:103CC0008093B000C093B30014C0873041F480915A
:103CD000B00080628093B000C093B4000AC0C038C6
:103CE000D1051CF4812F60E002C0812F61E00E94A9
:103CF0009B1EDF91CF911F910895282F30E0C901BD
:103D000085559F4FFC01949125573F4FF9018491B0
:103D1000882381F0E82FF0E0E458FF4FE491F0E0D1
:103D2000662329F48081909589238083089580817A
:103D3000892B80830895482F50E0CA0185539F4FF7
:103D4000FC012491CA0185559F4FFC019491455770
:103D50005F4FFA0134913323C1F1222331F1213035
:103D600019F484B58F7704C0223021F484B58F7D97
:103D700084BD1BC0233021F4809180008F7705C063
:103D8000243031F4809180008F7D809380000DC0BD
:103D9000263021F48091B0008F7705C0273029F4B8
:103DA0008091B0008F7D8093B000E32FF0E0EF575B
:103DB000FF4FE491F0E0662329F4808190958923F8
:103DC000808308958081892B80830895482F50E057
:103DD000CA0185539F4FFC012491CA0185559F4F0D
:103DE000FC01949145575F4FFA013491332319F444
:103DF00020E030E035C0222331F1213019F484B5C0
:103E00008F7704C0223021F484B58F7D84BD1BC020
:103E1000233021F4809180008F7705C0243031F465
:103E2000809180008F7D809380000DC0263021F42A
:103E30008091B0008F7705C0273029F48091B000C1
:103E40008F7D8093B000E32FF0E0EA57FF4FE491BD
:103E5000F0E0808120E030E0892311F021E030E0C3
:103E6000C901089580EE92E090931C0780931B0790
:103E700010921D0790931F0780931E0781E0809387
:103E800020070895FC0182810E940C210895FC0105
:103E900082810E945F210895FC0182810E9432216B
:103EA0000895FC0182810E941C210895FC018281F9
:103EB0000E94842008950F931F93CF93DF938C016A
:103EC000EB0109C02196D801ED91FC910190F081A0
:103ED000E02DC801099568816623A1F7DF91CF9194
:103EE0001F910F9108950F931F938C01DC01ED91A9
:103EF000FC910190F081E02D6DE00995D801ED91E4
:103F0000FC910190F081E02DC8016AE009951F91B4
:103F10000F9108950F931F938C010E945B1FC8019E
:103F20000E94731F1F910F9108952F923F924F92FD
:103F30005F926F927F928F929F92AF92BF92CF9239
:103F4000DF92EF92FF920F931F93DF93CF93CDB742
:103F5000DEB7A0970FB6F894DEBF0FBECDBF1C0131
:103F60006A017B01411551056105710549F4DC01C8
:103F7000ED91FC910190F081E02D60E3099554C032
:103F8000882499245401422E55246624772401E084
:103F900010E00C0F1D1F080D191DC701B601A3016C
:103FA00092010E949924F80160830894811C911C5D
:103FB000A11CB11CC701B601A30192010E94992462
:103FC000C901DA016C017D01C114D104E104F104DD
:103FD000F1F681E0E82EF12CEC0EFD1EE80CF91C48
:103FE0003E010894611C711CD501C4010197A1090F
:103FF000B1096C01C818D90814C0F601EE0DFF1DF7
:1040000060816A3010F4605D01C0695CD101ED919E
:10401000FC910190F081E02DC10109950894E1081F
:10402000F1086E147F0449F7A0960FB6F894DEBF2E
:104030000FBECDBFCF91DF911F910F91FF90EF90F9
:10404000DF90CF90BF90AF909F908F907F906F90B8
:104050005F904F903F902F900895EF92FF920F93B3
:104060001F93CF93DF93EC017A018B0177FF0FC091
:10407000E881F9810190F081E02D6DE209951095BC
:104080000095F094E094E11CF11C011D111DCE017E
:10409000B801A7012AE00E94951FDF91CF911F91DF
:1040A0000F91FF90EF9008950F931F938C01AB0138
:1040B000662757FD6095762F0E942D20C8010E942B
:1040C000731F1F910F910895DC012115310541F4F3
:1040D000ED91FC910190F081E02D642F09950895F8
:1040E0002A30310519F40E942D2008950E94951F51
:1040F00008950F931F938C010E946420C8010E94B1
:10410000731F1F910F910895EF92FF920F931F93CA
:104110007A018B018823F1F5CB01BA0122E030E06E
:1041200040E050E00E94BB24205C3D4B404F5F4F7D
:10413000CA01B901A80197010E94BB24C901DA0193
:104140000197A109B109292F3A2F4B2F552747FD78
:104150005A950196A11DB11D2093C50081508093F1
:10416000C4001092C0001092C1001092C200809151
:10417000C10080618093C1008091C10088608093FC
:10418000C1008091C10080688093C10086E0809367
:10419000C2003DC0CB01BA0122E030E040E050E077
:1041A0000E94BB24205C3D4B404F5F4FCA01B901C8
:1041B000A80197010E94BB24C901DA010197A10956
:1041C000B109292F3A2F4B2F552747FD5A950196B4
:1041D000A11DB11D2093CD0081508093CC00109281
:1041E000C8001092C9001092CA008091C900806175
:1041F0008093C9008091C90088608093C900809134
:10420000C90080688093C90086E08093CA001F912E
:104210000F91FF90EF900895882339F48091C000AA
:1042200085FFFCCF6093C60008958091C80085FF8C
:10423000FCCF6093CE000895E82FF0E0EE0FFF1F53
:10424000DF01AF5DB84F8D919C9180589F4FEB5D22
:10425000F84F20813181821B930B60E870E00E944F
:1042600086240895CF93DF93A82FB0E0FD01EE0FD1
:10427000FF1FEF01CB5DD84F48815981EF5DF84FAB
:10428000808191818417950719F42FEF3FEF13C0B8
:10429000B695BA2FAA27B795A795A40FB51FA75D06
:1042A000B84F2C91CA01019660E870E00E94862404
:1042B0009983888330E0C901DF91CF910895E82F79
:1042C000F0E0EE0FFF1FDF01AB5DB84F8D919C91C9
:1042D000EF5DF84F9183808308951F920F920FB680
:1042E0000F9211242F933F934F935F936F937F937C
:1042F0008F939F93AF93BF93EF93FF934091C6002B
:10430000E0912107F0912207CF01019660E870E06B
:104310000E9486249C0180912507909126072817EA
:10432000390739F0E75DF84F408330932207209337
:104330002107FF91EF91BF91AF919F918F917F9155
:104340006F915F914F913F912F910F900FBE0F9002
:104350001F9018951F920F920FB60F9211242F9352
:104360003F934F935F936F937F938F939F93AF93FD
:10437000BF93EF93FF934091CE00E0912307F0911C
:104380002407CF01019660E870E00E9486249C011A
:1043900080912707909128072817390739F0E755AA
:1043A000F84F40833093240720932307FF91EF9128
:1043B000BF91AF919F918F917F916F915F914F913D
:1043C0003F912F910F900FBE0F901F90189550584E
:1043D000BB27AA270ED075C166D130F06BD120F073
:1043E00031F49F3F11F41EF45BC10EF4E095E7FB3E
:1043F00051C1E92F77D180F3BA1762077307840799
:10440000950718F071F49EF58FC10EF4E0950B2E10
:10441000BA2FA02D0B01B90190010C01CA01A00116
:104420001124FF27591B99F0593F50F4503E68F171
:104430001A16F040A22F232F342F4427585FF3CFB2
:10444000469537952795A795F0405395C9F77EF483
:104450001F16BA0B620B730B840BBAF09150A1F0CC
:10446000FF0FBB1F661F771F881FC2F70EC0BA0F52
:10447000621F731F841F48F4879577956795B795DA
:10448000F7959E3F08F0B3CF9395880F08F09927D2
:10449000EE0F979587950895D9D008F481E0089597
:1044A0000CD00FC107D140F0FED030F021F45F3FB7
:1044B00019F0F0C0511139C1F3C014D198F3992308
:1044C000C9F35523B1F3951B550BBB27AA276217D8
:1044D0007307840738F09F5F5F4F220F331F441F1D
:1044E000AA1FA9F333D00E2E3AF0E0E830D0915055
:1044F0005040E695001CCAF729D0FE2F27D0660F42
:10450000771F881FBB1F261737074807AB07B0E880
:1045100009F0BB0B802DBF01FF2793585F4F2AF096
:104520009E3F510568F0B6C000C15F3FECF3983E76
:10453000DCF3869577956795B795F7959F5FC9F7F3
:10454000880F911D9695879597F90895E1E0660F7C
:10455000771F881FBB1F621773078407BA0720F0F5
:10456000621B730B840BBA0BEE1F88F7E09508955E
:1045700004D06894B111D9C00895BCD088F09F5779
:1045800090F0B92F9927B751A0F0D1F0660F771F9F
:10459000881F991F1AF0BA95C9F712C0B13081F07F
:1045A000C3D0B1E00895C0C0672F782F8827B85FC7
:1045B00039F0B93FCCF3869577956795B395D9F7E0
:1045C0003EF490958095709561957F4F8F4F9F4FEA
:1045D0000895E89409C097FB3EF4909580957095F6
:1045E00061957F4F8F4F9F4F9923A9F0F92F96E93F
:1045F000BB279395F695879577956795B795F111B4
:10460000F8CFFAF4BB0F11F460FF1BC06F5F7F4F50
:104610008F4F9F4F16C0882311F096E911C0772362
:1046200021F09EE8872F762F05C0662371F096E86B
:10463000862F70E060E02AF09A95660F771F881F3A
:10464000DAF7880F9695879597F90895990F0008DE
:10465000550FAA0BE0E8FEEF16161706E807F90754
:10466000C0F012161306E407F50798F0621B730BEF
:10467000840B950B39F40A2661F0232B242B252B70
:1046800021F408950A2609F4A140A6958FEF811D13
:10469000811D089597F99F6780E870E060E00895B4
:1046A0009FEF80EC089500240A941616170618064A
:1046B0000906089500240A94121613061406050626
:1046C0000895092E0394000C11F4882352F0BB0FB7
:1046D00040F4BF2B11F460FF04C06F5F7F4F8F4F1A
:1046E0009F4F089557FD9058440F551F59F05F3F55
:1046F00071F04795880F97FB991F61F09F3F79F004
:1047000087950895121613061406551FF2CF469585
:10471000F1DF08C0161617061806991FF1CF869507
:104720007105610508940895E894BB2766277727EB
:10473000CB0197F908958ADF08F48FEF08950BD025
:10474000C0CFB1DF28F0B6DF18F0952309F0A2CF73
:10475000A7CF1124EACFC6DFA0F3959FD1F3950F21
:1047600050E0551F629FF001729FBB27F00DB11DF5
:10477000639FAA27F00DB11DAA1F649F6627B00D85
:10478000A11D661F829F2227B00DA11D621F739F6E
:10479000B00DA11D621F839FA00D611D221F749F7C
:1047A0003327A00D611D231F849F600D211D822FC3
:1047B000762F6A2F11249F5750408AF0E1F088230A
:1047C0004AF0EE0FFF1FBB1F661F771F881F915017
:1047D0005040A9F79E3F510570F05CCFA6CF5F3FD8
:1047E000ECF3983EDCF3869577956795B795F7954A
:1047F000E7959F5FC1F7FE2B880F911D96958795D2
:1048000097F9089511F40EF44BCF4AC073DFD0F33B
:104810009923D9F3CEF39F57550B87FF51D0569567
:104820009795B0E020F4660F771F881FBB1F1F937A
:104830000F9300249001A0018001F001A0E80E0F69
:104840001F1F0A1E511D601B710B8009B50B48F418
:10485000600F711F801DB51F0E1B1F0B0A0A510927
:1048600007C02E0F3F1F4A1F0E0F1F1F0A1E511D8C
:10487000660F771F881FBB1FA695F795E795F8F67B
:104880000617170708065B07211D311D411D0F91F3
:104890001F91B901842F9158880F96958795089597
:1048A0009F3F49F0915028F4869577956795B79585
:1048B0009F5F80389F4F880F9695879597F9089549
:1048C00091505040660F771F881FD2F70895629F5E
:1048D000D001739FF001829FE00DF11D649FE00DF8
:1048E000F11D929FF00D839FF00D749FF00D659F59
:1048F000F00D9927729FB00DE11DF91F639FB00D58
:10490000E11DF91FBD01CF011124089597FB092E68
:1049100007260AD077FD04D049D006D000201AF42B
:10492000709561957F4F0895F6F7909581959F4F0B
:104930000895A1E21A2EAA1BBB1BFD010DC0AA1FE0
:10494000BB1FEE1FFF1FA217B307E407F50720F0F8
:10495000A21BB30BE40BF50B661F771F881F991F73
:104960001A9469F760957095809590959B01AC01BC
:10497000BD01CF01089597FB092E05260ED057FDE6
:1049800004D0D7DF0AD0001C38F4509540953095FC
:1049900021953F4F4F4F5F4F0895F6F790958095C3
:1049A000709561957F4F8F4F9F4F0895AA1BBB1B3A
:1049B00051E107C0AA1FBB1FA617B70710F0A61B1F
:1049C000B70B881F991F5A95A9F780959095BC0140
:1049D000CD010895EE0FFF1F0590F491E02D09948D
:1049E000911106C0803219F089508550D0F7089592
:1049F0009927882708952F923F924F925F926F9246
:104A00007F928F929F92AF92BF92CF92DF92EF925E
:104A1000FF920F931F93CF93DF93CDB7DEB7CA1BDF
:104A2000DB0B0FB6F894DEBF0FBECDBF09942A880A
:104A3000398848885F846E847D848C849B84AA84B2
:104A4000B984C884DF80EE80FD800C811B81AA813F
:104A5000B981CE0FD11D0FB6F894DEBF0FBECDBF0A
:084A6000ED010895F894FFCF69
:104A6800526573656E643A000000000000000000A3
:104A7800000000000000000000000000000000002E
:104A8800000000000000000000000000000000001E
:104A9800000000000000000000000000000000000E
:104AA80000000000000000000000000000000000FE
:104AB80000000000000000000000000000000000EE
:104AC80000000000453A200053657269616C20457A
:104AD80072726F723A526563696576656420612007
:104AE8004C696E654E7220636F64652077697468DF
:104AF8006F7574206120436865636B73756D2063FF
:104B08006F6465206F7220436865636B73756D20F1
:104B1800776974686F7574204C696E654E720053BE
:104B2800657269616C204572726F723A204C696EC9
:104B3800654E72206973206E6F7420746865206CEE
:104B4800617374206C696E654E722B3100687568EC
:104B58003F204700543A0044454255473A4C696E55
:104B6800654E7220736574004875683F204D005388
:104B7800657269616C204572726F723A206368656C
:104B8800636B73756D206D69736D61746368202D37
:104B980020492063616C63756C6174656420636887
:104BA80065636B73756D3A0000000000000000003B
:104BB80000000000000000000000000000000000ED
:104BC80000000000000000000000000000000000DD
:104BD8000000004563686F3A006F6B20006F6B0040
:104BE800737461727400010049033600FF006B00A2
:104BF800D100A000B800D500A6000A0199003F0125
:104C08008E0074018400A9017C00DE017400130287
:104C18006C00480265007D025D00B2025600E702A2
:104C28004E001C03460051033D0086033200BB03BF
:104C38002200F00303003F07FFFF0101000000000E
:024C4800421F09
:00000001FF
