:100000000C943F000C9467000C9467000C946700FC
:100010000C9467000C9467000C9467000C946700C4
:100020000C9467000C9467000C9467000C946700B4
:100030000C9467000C9480010C9467000C9467008A
:100040000C9467000C9467000C941A020C946700DF
:100050000C9436050C9467000C94D0040C94670043
:100060000C9467000C9467000C9467000C94670074
:100070000C940A050C9467000C94A2048B041124C0
:100080001FBECFEFD0E1DEBFCDBF11E0A0E0B1E0F9
:10009000E4E4F0E102C005900D92A231B107D9F776
:1000A00012E0A2E1B1E001C01D92A435B107E1F771
:1000B00010E0CEE7D0E004C02297FE010E941D08A8
:1000C000CC37D107C9F70E9411020C9421080C9477
:1000D00000000895EFE6F0E080818260808308955B
:1000E000EFE6F0E080818D7F808308959093890012
:1000F000809388000895882321F4809181008B7F6C
:1001000029C0813049F4809181008B7F80938100E8
:1001100080918100826015C0823049F48091810015
:100120008B7F8093810080918100826018C0833032
:1001300071F48091810084608093810080918100BE
:100140008D7F80938100809181008E7F0DC0809192
:100150008100846080938100809181008D7F8093F5
:100160008100809181008160809381000895E0E8A2
:10017000F0E01082A1E8B0E01C9210928200109290
:100180006F008C918F7E8C938C9188608C93808192
:100190008D7F808380818E7F808380818F77808335
:1001A00080818F7B808380818F7D808380818F7E23
:1001B000808384E00E947B008FEF9FEF9093890003
:1001C000809388000895603020E0720721E0820764
:1001D00020E09207F8F0693F2FEF720727E08207CF
:1001E00020E0920740F453E09695879577956795C0
:1001F0005A95D1F70FC0613C2FEF72072FE38207AA
:1002000020E0920748F446E09695879577956795A4
:100210004A95D1F7CB01089561302FEF72072FEF88
:10022000820720E0920728F4BB27A92F982F872F59
:10023000089561302CEF72072FEF820723E09207B9
:1002400018F08FEF9FEF08952AE0969587957795A0
:1002500067952A95D1F7CB010895603020E07207A9
:1002600021E0820720E0920718F480E090E00895F2
:10027000693F2FEF720727E0820720E0920718F40A
:1002800081E090E00895613C2FEF72072FE3820731
:1002900020E0920718F482E090E0089561507F4FCB
:1002A0008F4F904018F483E090E0089584E090E050
:1002B0000895CF92DF92EF92FF920F931F936B01FD
:1002C0007C010FE610E0F80180818D7F8083C701FB
:1002D000B6010E94E3009093890080938800C701D3
:1002E000B6010E942D010E947B00F801808182608E
:1002F00080831F910F91FF90EF90DF90CF90089532
:100300001F920F920FB60F9211242F933F934F938A
:100310005F936F937F938F939F93AF93BF93EF936D
:10032000FF938091120190911301A0911401B0915B
:1003300015010196A11DB11D809312019093130127
:10034000A0931401B09315010B97A105B1056CF1B1
:100350008091160190911701A0911801B091190197
:100360000196A11DB11D8093160190931701A093D2
:100370001801B093190160E071E082E291E00E94FF
:100380003504409116015091170160911801709148
:10039000190182E291E00E94FF0310921201109273
:1003A00013011092140110921501FF91EF91BF916A
:1003B000AF919F918F917F916F915F914F913F91FD
:1003C0002F910F900FBE0F901F9018950F931F93B2
:1003D0001092120110921301109214011092150143
:1003E0001092160110921701109218011092190123
:1003F00002E211E040E855E260E070E0C8010E94CE
:100400007B0466E071E0C8010E9460040E94B700AE
:1004100060E070E080E091E00E9459011F910F912F
:100420000895CFEFD0E1DEBFCDBF0E9490020E94C1
:10043000E601FFCF1F920F920FB60F9211242F9358
:100440008F939F93AF93BF9380911A0190911B015B
:10045000A0911C01B0911D018050904CAF4FBF4F37
:1004600080931A0190931B01A0931C01B0931D016E
:1004700027C080911A0190911B01A0911C01B0919D
:100480001D0180589E43A040B04080931A01909374
:100490001B01A0931C01B0931D0180911E0190913E
:1004A0001F01A0912001B09121010196A11DB11D54
:1004B00080931E0190931F01A0932001B09321010E
:1004C00080911A0190911B01A0911C01B0911D0116
:1004D00081589E43A040B04060F6BF91AF919F917C
:1004E0008F912F910F900FBE0F901F9018952FB7DF
:1004F000F89460911E0170911F01809120019091EC
:1005000021012FBF0895019751F0880F991F880F7F
:10051000991F02972FB7F8940197F1F72FBF08950D
:10052000789484B5826084BD84B5816084BD85B5CE
:10053000826085BD85B5816085BDEEE6F0E0808195
:1005400081608083E1E8F0E0808182608083808147
:1005500081608083E0E8F0E0808181608083E1EB6E
:10056000F0E0808184608083E0EBF0E08081816056
:100570008083EAE7F0E0808184608083808182600C
:1005800080838081816080838081806880831092F5
:10059000C1000895EF92FF920F931F937B018C018E
:1005A0008FB7F89440911E0150911F016091200176
:1005B000709121018FBF2FB7F89480911E01909107
:1005C0001F01A0912001B09121012FBF841B950B29
:1005D000A60BB70B8E159F05A007B10760F31F91FF
:1005E0000F91FF90EF900895FC01662311F41082A3
:1005F000089581E080830895FC01662311F4108240
:10060000089581E080830895CF93DF93CDB7DEB75F
:1006100021970FB6F894DEBF0FBECDBFFC016983F2
:1006200041E0BE016F5F7F4F80810E94620521968D
:100630000FB6F894DEBF0FBECDBFDF91CF91089506
:10064000CF93DF93CDB7DEB721970FB6F894DEBF17
:100650000FBECDBFFC01698341E0BE016F5F7F4FDC
:1006600080810E94620521960FB6F894DEBF0FBE0E
:10067000CDBFDF91CF9108952F923F924F925F921D
:100680006F927F928F929F92AF92BF92CF92DF92A2
:10069000EF92FF920F931F93CF93DF93CDB7DEB707
:1006A000A0970FB6F894DEBF0FBECDBF1C016A0144
:1006B0007B01411551056105710521F460E30E943C
:1006C00020033EC066247724822E9924AA24BB24CA
:1006D0002E010894411C511C8201060D171DC701F3
:1006E000B601A50194010E94F907F80160830894FE
:1006F000611C711CC701B601A50194010E94F90794
:1007000069017A01211531054105510529F7730168
:100710000894E108F1086201CE0CDF1CF60160814B
:100720006A3010F4605D01C0695CC1010E94200361
:100730000894E108F1080894C108D108F7FEEECF4B
:10074000A0960FB6F894DEBF0FBECDBFDF91CF915C
:100750001F910F91FF90EF90DF90CF90BF90AF90DF
:100760009F908F907F906F905F904F903F902F90D1
:1007700008950F931F938C016DE00E9420036AE09F
:10078000C8010E9420031F910F9108950F931F939A
:100790008C010E940403C8010E94B9031F910F91AC
:1007A00008950F931F938C010E942003C8010E949B
:1007B000B9031F910F910895EF92FF920F931F932A
:1007C000CF93DF93EC017A018B0177FF0BC06DE2D1
:1007D0000E94200310950095F094E094E11CF11C18
:1007E000011D111D2AE0B801A701CE010E943C03A2
:1007F000DF91CF911F910F91FF90EF9008950F938C
:100800001F938C010E94DC03C8010E94B9031F9151
:100810000F910895AB01662757FD6095762F0E94D2
:10082000FF0308952115310521F4642F0E94200350
:1008300008952A30310519F40E94DC0308950E94BE
:100840003C0308950F931F938C010E941204C8016A
:100850000E94B9031F910F910895AB01662757FDC0
:100860006095762F0E94DC030895CF92DF92EF927D
:10087000FF920F931F93CF93DF936C018B01EB01DA
:1008800009900020E9F72197C61BD70BEE24FF241F
:100890000BC0B8016E0D7F1D41E0F60180810E9402
:1008A00062050894E11CF11CEC16FD0694F3DF913F
:1008B000CF911F910F91FF90EF90DF90CF9008950F
:1008C0000F931F938C010E943504C8010E94B90345
:1008D0001F910F910895FC0180810E94B705089532
:1008E000FC0180810E94FE040895FC0180810E9429
:1008F000940499270895FC0180810E94C105089500
:10090000019741F46F5F7F4F29F41092220181E03B
:100910008093230108956FEF7FEF81E090E00E94C4
:100920008004089518951895882331F488E392E09F
:100930000E94AC069927089584E292E00E94AC06DA
:10094000992708951F920F920FB60F9211242F939B
:100950003F934F935F936F937F938F939F93AF9347
:10096000BF93EF93FF9382E492E00E94AC0688234A
:1009700031F082E492E00E9486068093CE00FF91DF
:10098000EF91BF91AF919F918F917F916F915F9107
:100990004F913F912F910F900FBE0F901F90189580
:1009A0001F920F920FB60F9211242F933F934F93E4
:1009B0005F936F937F938F939F93AF93BF93EF93C7
:1009C000FF938EE292E00E94AC06882331F08EE223
:1009D00092E00E9486068093C600FF91EF91BF913E
:1009E000AF919F918F917F916F915F914F913F91C7
:1009F0002F910F900FBE0F901F901895882329F408
:100A000088E392E00E948606089584E292E00E94C4
:100A1000860608951F920F920FB60F9211242F93FE
:100A20003F934F935F936F937F938F939F93AF9376
:100A3000BF93EF93FF936091CE008091C80084FD37
:100A400004C084E292E00E946106FF91EF91BF91A1
:100A5000AF919F918F917F916F915F914F913F9156
:100A60002F910F900FBE0F901F9018951F920F920D
:100A70000FB60F9211242F933F934F935F936F9371
:100A80007F938F939F93AF93BF93EF93FF93609167
:100A9000C6008091C00084FD04C088E392E00E94FB
:100AA0006106FF91EF91BF91AF919F918F917F91DF
:100AB0006F915F914F913F912F910F900FBE0F90CB
:100AC0001F901895DF92EF92FF920F931F93CF9391
:100AD000DF93042F442309F442C0DFB6F89488233F
:100AE000E9F4EB0110E09EE2E92E92E0F92E699123
:100AF000C7010E9461061F5F1017C9F78091C000EF
:100B000080648093C0008091C00085FFFCCF8EE29E
:100B100092E00E9486068093C6001CC0EB0110E0A4
:100B200082E4E82E82E0F82E6991C7010E946106F6
:100B30001F5F1017C9F78091C80080648093C800B8
:100B40008091C80085FFFCCF82E492E00E94860677
:100B50008093CE008FB790E8D922D82ADFBEDF91EC
:100B6000CF911F910F91FF90EF90DF900895882310
:100B700019F488E392E002C084E292E00E94F20657
:100B80000895EF92FF920F931F937A018B019A01C0
:100B9000AB0156954795379527958823B1F5205C8D
:100BA0003D4B404F5F4FCA01B901A80197010E9418
:100BB000F9072150304040405040BB27A52F942FCB
:100BC000832F2F5F3F4F4F4F5F4F8093C5002150C2
:100BD0002093C4001092C0001092C1001092C20075
:100BE00088ED8093C10086E08093C20040E850E029
:100BF00064E271E088E392E00E94550640E850E02C
:100C000064EA71E08EE292E049C0205C3D4B404FC7
:100C10005F4FCA01B901A80197010E94F90721504D
:100C2000304040405040BB27A52F942F832F2F5F8B
:100C30003F4F4F4F5F4F8093CD0021502093CC000A
:100C40001092C8001092C9001092CA0088ED8093DB
:100C5000C90086E08093CA0080E890E00E94FC060C
:100C600090934F0280934E0280E890E00E94FC0631
:100C700090934D0280934C0260914E0270914F020E
:100C800042E050E084E292E00E94550660914C02FE
:100C900070914D0242E050E082E492E00E945506DD
:100CA0001F910F91FF90EF900895FC0157834683A9
:100CB0001186108671836083738362837583648376
:100CC0000895CF93DF93DC01EC01288539858E816F
:100CD0009F8128173907B8F4ED91FC911197619322
:100CE0001196FC93EE93888599850196998788875C
:100CF0002C813D818E819F81820F931FE817F90718
:100D000010F02D933C93DF91CF910895CF93DF9313
:100D1000DC01EC0188859985009719F48FEF9FEF2E
:100D200018C0ED01EA81FB814191FB83EA830197C1
:100D3000998788872C813D818E819F81820F931FA7
:100D4000E817F90710F03B832A83842F992787FD42
:100D50009095DF91CF910895FC01808599270895A2
:100D6000FC0180859185892B19F480E090E008953D
:100D70000280F381E02D8081992708950F931F93BE
:100D8000CF93DF93DC01EC0148855985411551056E
:100D900011F1EA81FB810D911C91119770E018C04F
:100DA0008081861719F4862F992717C07F5F872FB8
:100DB00099278417950778F43196ED012C813D81B0
:100DC0008E819F81820F931F8E179F0708F4F90170
:100DD000E017F10729F780E090E0DF91CF911F91B4
:100DE0000F910895FC01118610868481958191836D
:100DF0008083938382830895CF93DF93AC0102971E
:100E000010F442E050E0A0915202B0915302FD0173
:100E1000C0E0D0E020E030E020C0808191818417E4
:100E2000950769F482819381209719F09B838A83C7
:100E300004C090935302809352029F0132C048171E
:100E4000590738F42115310519F08217930708F472
:100E50009C01EF010280F381E02D3097F1F621151E
:100E6000310599F1C901841B950B049708F4A90178
:100E7000E0E0F0E028C08D919C91119782179307D4
:100E8000F9F44817590781F4ED018A819B81309765
:100E900019F09383828304C090935302809352028B
:100EA0009D012E5F3F4F4BC0841B950BFD01E80F4A
:100EB000F91F4193519302978D939C939F013FC0DB
:100EC000FD01A281B3811097B1F6809150029091FB
:100ED0005102892B41F480910E0190910F01909362
:100EE000510280935002209110013091110121157F
:100EF000310541F42DB73EB780910C0190910D0161
:100F0000281B390BA0915002B09151022A1B3B0BB8
:100F10002417350790F0CA0102962817390768F0A0
:100F20009D012E5F3F4FC901840F951F9093510281
:100F3000809350024D935C9302C020E030E0C901E1
:100F4000DF91CF910895CF93DF93009709F44EC0BE
:100F5000EC0122971B821A82A0915202B091530297
:100F6000109711F140E050E001C0DC01AC17BD0763
:100F700000F1BB83AA83FE0121913191E20FF31F9F
:100F8000EA17FB0771F48D919C911197280F391F77
:100F90002E5F3F4F39832883FD01828193819B839C
:100FA0008A834115510559F4D0935302C0935202DC
:100FB0001DC0FD0182819381AD010097B1F6FA0158
:100FC000D383C28321913191E20FF31FEC17FD0708
:100FD00069F488819981280F391F2E5F3F4FFA01EC
:100FE000318320838A819B8193838283DF91CF9198
:100FF0000895A1E21A2EAA1BBB1BFD010DC0AA1F5A
:10100000BB1FEE1FFF1FA217B307E407F50720F071
:10101000A21BB30BE40BF50B661F771F881F991FEC
:101020001A9469F760957095809590959B01AC0135
:10103000BD01CF010895EE0FFF1F0590F491E02D43
:041040000994FFCF41
:1010440031302078200053746172740020005402FF
:0210540000009A
:00000001FF
