:100000000C9476000C9493000C9493000C94930041
:100010000C9493000C9493000C9493000C94930014
:100020000C9493000C9493000C9493000C94930004
:100030000C9493000C9493000C9493000C949300F4
:100040000C9493000C9493000C94FE000C94930079
:100050000C9493000C9493000C9493000C949300D4
:100060000C9493000C9493000C9493000C949300C4
:100070000C9493000C9493000C949300002124277B
:100080002A002225282B0020232629020202020210
:10009000020202040404040404040403030303032B
:1000A0000303030101010101010101010204081020
:1000B0002040800102040810204080010204081042
:1000C000204080804020100804020100000001024E
:1000D000000000000000000403070600000000000C
:1000E00000000000000000000000000011241FBEFE
:1000F000CFEFD0E1DEBFCDBF11E0A0E0B1E0E8E09E
:10010000F5E002C005900D92A030B107D9F711E0DB
:10011000A0E0B1E001C01D92A430B107E1F70E9458
:10012000F3000C9483020C94000060E08DE00E94C8
:10013000160260E084E10E94160260E08CE00E94FA
:10014000160260E083E10E94160260E085E10E94F1
:10015000160260E086E10E94160268EE73E080E01D
:1001600090E00E943B0161E08DE00E94160261E098
:1001700084E10E94160261E08CE00E94160261E0B8
:1001800083E10E94160261E085E10E94160261E0AF
:1001900086E10E94160268EE73E080E090E00E9423
:1001A0003B0160E084E10E94160260E085E10E946C
:1001B0001602089561E08DE00E94AC0161E084E1E7
:1001C0000E94AC0161E08CE00E94AC0161E083E13F
:1001D0000E94AC0161E085E10E94AC0161E086E132
:1001E0000E94AC010895CFEFD0E1DEBFCDBF0E94E9
:1001F0006A010E94DA000E949500FDCF1F920F92C3
:100200000FB60F9211248F939F93AF93BF9380915A
:10021000000190910101A0910201B09103010196AA
:10022000A11DB11D8093000190930101A0930201D3
:10023000B0930301BF91AF919F918F910F900FBE2B
:100240000F901F90189560910001709101018091AD
:1002500002019091030127E0660F771F881F991F05
:100260002A95D1F72DE730E040E050E00E9461028E
:10027000CA01B9010895AF92BF92CF92DF92EF9277
:10028000FF920F931F935B016C010E9423017B017E
:100290008C010E9423016E197F09800B910B6A1556
:1002A0007B058C059D05A8F31F910F91FF90EF90A2
:1002B000DF90CF90BF90AF900895019751F0880FD5
:1002C000991F880F991F02972FB7F8940197F1F79C
:1002D0002FBF08957894109200011092010110929E
:1002E00002011092030184B5826084BD84B58160EF
:1002F00084BD85B5826085BD85B5816085BDEEE62E
:10030000F0E0808181608083E1E8F0E080818260BC
:100310008083808181608083E0E8F0E0808181607B
:100320008083E1EBF0E0808184608083E0EBF0E0AB
:10033000808181608083EAE7F0E08081846080834F
:1003400080818260808380818160808380818068F9
:1003500080831092C1000895282F3327C901855545
:100360009F4FFC01949125573F4FF90184918823B9
:1003700081F0E82FFF27E458FF4FE491FF27662321
:1003800029F4808190958923808308958081892B29
:1003900080830895482F5527CA0185539F4FFC013C
:1003A0002491CA0185559F4FFC01949145575F4F99
:1003B000FA013491332319F480E090E00895222368
:1003C00031F1213019F484B58F7704C0223021F443
:1003D00084B58F7D84BD1BC0233021F480918000C3
:1003E0008F7705C0243031F4809180008F7D809319
:1003F00080000DC0263021F48091B0008F7705C0B9
:10040000273029F48091B0008F7D8093B000E32FD6
:10041000FF27EA57FF4FE491FF27808120E030E07B
:10042000892311F021E030E0C9010895482F5527B4
:10043000CA0185539F4FFC012491CA0185559F4FE6
:10044000FC01949145575F4FFA0134913323C1F178
:10045000222331F1213019F484B58F7704C0223082
:1004600021F484B58F7D84BD1BC0233021F480919D
:1004700080008F7705C0243031F4809180008F7D1B
:10048000809380000DC0263021F48091B0008F77DA
:1004900005C0273029F48091B0008F7D8093B00093
:1004A000E32FFF27EF57FF4FE491FF27662329F43F
:1004B000808190958923808308958081892B808312
:1004C0000895A1E21A2EAA1BBB1BFD010DC0AA1F95
:1004D000BB1FEE1FFF1FA217B307E407F50720F0AD
:1004E000A21BB30BE40BF50B661F771F881F991F28
:1004F0001A9469F760957095809590959B01AC0171
:08050000BD01CF010895FFCFFA
:00000001FF
