:100000000C945B000C9483000C9483000C9483008C
:100010000C9483000C9483000C9483000C94830054
:100020000C9483000C9483000C9483000C94830044
:100030000C9483000C9483000C9483000C94830034
:100040000C9441010C9483000C94EC030C948300F9
:100050000C9483000C9483000C9483000C94830014
:100060000C9483000C948300000024272A000025B0
:10007000282B000023262904040404040404040299
:100080000202020202030303030303010204081035
:100090002040800102040810200102040810200002
:1000A0000000070002010000030406000000000039
:1000B00000000000710311241FBECFEFD4E0DEBFAB
:1000C000CDBF11E0A0E0B1E0E4EFFAE002C005909E
:1000D0000D92AA33B107D9F711E0AAE3B1E001C04C
:1000E0001D92A33CB107E1F710E0C6EBD0E004C0DD
:1000F0002297FE010E947505C43BD107C9F70E94F3
:1001000036010C9479050C940000AF92BF92CF9207
:10011000DF92EF92FF920F931F93CF93DF9300EA4A
:100120001FE020E0A22E21E0B22E9AE3E92E91E01A
:10013000F92E88E0C82E81E0D82EB501C7010E94B3
:100140005203B801C7010E944703C0E0D0E061E05C
:1001500084E00E94610282E090E00E94A00160E0E1
:1001600084E00E946102C8010E94A001219687E0FC
:10017000C03DD80761F764EF71E080E090E00E9435
:100180007E01B601C7010E94560385E00E94150258
:1001900060E0892B09F461E085E00E946102C0E023
:1001A000D0E061E084E00E94610282E090E00E9481
:1001B000A00160E084E00E946102C8010E94A001E9
:1001C000219687E0C03DD80761F768EE73E080E0D4
:1001D00090E00E947E01B601C7010E94560385E0AF
:1001E0000E94150260E0892B09F461E085E00E941D
:1001F00061020659104087E00C36180709F09DCFC0
:10020000DF91CF911F910F91FF90EF90DF90CF90F2
:10021000BF90AF9008950F931F930AE311E040E859
:1002200055E260E070E0C8010E946B036EE171E08E
:10023000C8010E94560361E084E00E94F70161E07A
:1002400085E00E94F70161E086E00E94F70161E02D
:1002500085E00E94610260E084E00E94610260E04B
:1002600086E00E9461021F910F910895CFEFD4E0C4
:10027000DEBFCDBF0E94AD010E940B010E94850030
:10028000FDCF1F920F920FB60F9211248F939F9361
:10029000AF93BF9380913F0190914001A0914101A4
:1002A000B09142010196A11DB11D80933F01909331
:1002B0004001A0934101B0934201BF91AF919F9142
:1002C0008F910F900FBE0F901F90189560913F0176
:1002D00070914001809141019091420127E0660FA9
:1002E000771F881F991F2A95D1F72DE730E040E04E
:1002F00050E00E942205CA01B9010895AF92BF9251
:10030000CF92DF92EF92FF920F931F935B016C01EC
:100310000E9466017B018C010E9466016E197F09B3
:10032000800B910B6A157B058C059D05A8F31F9129
:100330000F91FF90EF90DF90CF90BF90AF90089516
:10034000019751F0880F991F880F991F02972FB7B7
:10035000F8940197F1F72FBF0895789410923F0118
:1003600010924001109241011092420184B58260C6
:1003700084BD84B5816084BD85B5826085BD85B549
:10038000816085BDEEE6F0E0808181608083E1E8F8
:10039000F0E0808182608083808181608083E0E8FA
:1003A000F0E0808181608083E1EBF0E08081846017
:1003B0008083E0EBF0E0808181608083ECE7F0E017
:1003C00080818F778083808180648083EAE7F0E09A
:1003D000808184608083808182608083808181606D
:1003E00080838081806880831092C1000895282FC7
:1003F0003327C90185579F4FFC01949129583F4FDE
:10040000F9018491882381F0E82FFF27E859FF4FF5
:10041000E491FF27662329F48081909589238083C6
:1004200008958081892B80830895482F5527CA011C
:1004300081569F4FFC012491CA0185579F4FFC01B3
:10044000949149585F4FFA013491332319F480E0B5
:1004500090E00895222331F1233021F4809180002F
:100460008F7705C0243031F4809180008F7D809398
:10047000800018C0213019F484B58F7704C0223071
:1004800021F484B58F7D84BD0DC0263021F4809188
:10049000B0008F7705C0273029F48091B0008F7DA0
:1004A0008093B000E32FFF27EE58FF4FE491FF2722
:1004B000808120E030E0892311F021E030E0C901A3
:1004C0000895482F5527CA0181569F4FFC0124915A
:1004D000CA0185579F4FFC01949149585F4FFA011B
:1004E00034913323C1F1222331F1233021F480915F
:1004F00080008F7705C0243031F4809180008F7D9B
:100500008093800018C0213019F484B58F7704C01F
:10051000223021F484B58F7D84BD0DC0263021F4B6
:100520008091B0008F7705C0273029F48091B0000A
:100530008F7D8093B000E32FFF27E359FF4FE491B5
:10054000FF27662329F4808190958923808308956D
:100550008081892B8083089508950895CB01BA0185
:100560003327442755270E94320408952AE00E9429
:10057000AE020895AB01662777270E94B602089560
:10058000862F0E942A040895862F0E942A04089527
:100590000F931F938C016DE00E94C4026AE0C801B2
:1005A0000E94C4021F910F9108950F931F938C0115
:1005B0000E94B602C8010E94C8021F910F910895BF
:1005C0000F931F938C010E94C002C8010E94C802B1
:1005D0001F910F9108950F931F938C010E94C402E5
:1005E000C8010E94C8021F910F910895EF92FF92D7
:1005F0000F931F93CF93DF93EC017A018B0177FF69
:100600000BC06DE20E94C40210950095F094E09436
:10061000E11CF11C011D111D2AE0B801A701CE014A
:100620000E94AE02DF91CF911F910F91FF90EF904A
:1006300008950F931F938C010E94F602C8010E9437
:10064000C8021F910F9108952115310521F4642FDF
:100650000E94C40208952A30310519F40E94F6025E
:1006600008950E94AE0208950F931F938C010E947B
:100670002403C8010E94C8021F910F910895AB0185
:10068000662757FD6095762F0E94F60208950F9316
:100690001F938C010E943F03C8010E94C8021F9152
:1006A0000F910895CB010E94020508950F931F93A7
:1006B0008C010E945203C8010E94C8021F910F9131
:1006C00008950E94E30308950E94C40308950E94C0
:1006D000B30399270895CB01BA010E9472030895CC
:1006E00008950895EF92FF920F931F937B018C0161
:1006F00022E030E040E050E00E944405205C3D4BA9
:10070000404F5F4FCA01B901A80197010E944405FB
:100710002150304040405040BB2757FDBA95A52F8F
:10072000942F832F2F5F3F4F4F4F5F4F8093C50014
:1007300021502093C400E1ECF0E08081806180834F
:100740008081886080838081806880831F910F9181
:10075000FF90EF900895982F8091C00085FFFCCF07
:100760009093C600089580913B0190913C01805880
:100770009F4F20913D0130913E01821B930B60E819
:1007800070E00E940F05089540913D0150913E0197
:1007900080913B0190913C018417950719F48FEFEC
:1007A0009FEF0895FA01ED5BFE4F2081CA0101968B
:1007B00060E870E00E940F0590933E0180933D0138
:1007C000822F9927089580913D0190913E01909349
:1007D0003C0180933B0108951F920F920FB60F9238
:1007E00011242F933F934F935F936F937F938F9336
:1007F0009F93AF93BF93EF93FF934091C600E09117
:100800003B01F0913C01CF01019660E870E00E944D
:100810000F059C0180913D0190913E0128173907F9
:1008200039F0ED5BFE4F408330933C0120933B0158
:10083000FF91EF91BF91AF919F918F917F916F91B8
:100840005F914F913F912F910F900FBE0F901F908E
:1008500018950895982F8091C00085FFFCCF909344
:10086000C60008952F923F924F925F926F927F92AF
:100870008F929F92AF92BF92CF92DF92EF92FF92B0
:100880000F931F93CF93DF93CDB7DEB7A0970FB62B
:10089000F894DEBF0FBECDBF6B017C0129013A0188
:1008A000611571058105910541F48091C00085FFB6
:1008B000FCCF80E38093C6004BC088249924540168
:1008C0001E010894211C311C8101080D191DC7014E
:1008D000B601A30192010E942205F80160830894E9
:1008E000811C911CA11CB11CC701B601A30192017E
:1008F0000E94220569017A01211531054105510542
:1009000019F7089481089108A108B108F101E80DD0
:10091000F91D0894811C911CA11CB11C14C00894E1
:1009200081089108A108B10880818A3018F4982FB5
:10093000905D02C0982F995C8091C00085FFFCCF2C
:100940009093C600319781149104A104B10439F742
:10095000A0960FB6F894DEBF0FBECDBFDF91CF914A
:100960001F910F91FF90EF90DF90CF90BF90AF90CD
:100970009F908F907F906F905F904F903F902F90BF
:10098000089520E130E040E050E00E9432040895F4
:1009900028E030E040E050E00E943204089522E078
:1009A00030E040E050E00E94320408958091C000A1
:1009B00085FFFCCF8AE08093C6000895EF92FF92F6
:1009C0000F931F937B018C0197FF0FC08091C00094
:1009D00085FFFCCF8DE28093C60010950095F094C2
:1009E000E094E11CF11C011D111D2AE030E040E003
:1009F00050E0C801B7010E9432041F910F91FF908F
:100A0000EF900895FC0107C08091C00085FFFCCFE6
:100A100031969093C60090819923B1F7089597FB82
:100A2000092E07260AD077FD04D049D006D0002031
:100A30001AF4709561957F4F0895F6F7909581951A
:100A40009F4F0895A1E21A2EAA1BBB1BFD010DC0EA
:100A5000AA1FBB1FEE1FFF1FA217B307E407F5076E
:100A600020F0A21BB30BE40BF50B661F771F881F4A
:100A7000991F1A9469F760957095809590959B01E0
:100A8000AC01BD01CF01089597FB092E05260ED0BC
:100A900057FD04D0D7DF0AD0001C38F4509540959C
:100AA000309521953F4F4F4F5F4F0895F6F7909542
:100AB0008095709561957F4F8F4F9F4F0895AA1B2A
:100AC000BB1B51E107C0AA1FBB1FA617B70710F039
:100AD000A61BB70B881F991F5A95A9F7809590956B
:100AE000BC01CD010895EE0FFF1F0590F491E02D9C
:040AF0000994FFCF97
:100AF40053706565643A2000537769746368696E5E
:100B04006720646972656374696F6E732E00537431
:100B1400617274696E6720737465707065722065A4
:0A0B240078657263697365722E0034
:00000001FF
