:100000000C9480000C94A8000C94A8000C94A800F8
:100010000C94A8000C94A8000C94A8000C94A800C0
:100020000C94A8000C94A8000C94A8000C94A800B0
:100030000C94A8000C94A8000C94A8000C94A800A0
:100040000C94A8000C94A8000C94800E0C94A800AA
:100050000C94640D0C94A8000C94FE0C0C94A80055
:100060000C94A8000C94A8000C94A8000C94A80070
:100070000C94380D0C94A8000C94D00C7C3C3E5E83
:100080002B3D3F2F5B5D3B2C2A225C000021242767
:100090002A002225282B0020232629020202020200
:1000A000020202040404040404040403030303031B
:1000B0000303030101010101010101010204081010
:1000C0002040800102040810204080010204081032
:1000D000204080804020100804020100000001023E
:1000E00000000000000000040307060000000000FC
:1000F000000000000000000000000000D808C60951
:1001000011241FBECFEFD0E1DEBFCDBF11E0A0E0D4
:10011000B1E0E4E0F4E202C005900D92AE38B10720
:10012000D9F714E0AEE8B1E001C01D92A53FB107D8
:10013000E1F710E0C0E0D1E004C02297FE010E9488
:10014000FC11CC3FD107C9F70E94B1090C940012F1
:100150000C940000CF93DF93EC01DB0180E090E092
:1001600020E2FD01E80FF91F208301968B309105F5
:10017000C1F757E040E022C02E3219F08CE790E042
:1001800007C05A3029F15AE048E018C0321701F18F
:10019000FC01019634913323C9F75417C8F021327A
:1001A000B8F02F37A8F4822F81568A3110F4622FCD
:1001B0006052FD01E40FF11D60834F5F2991622FB2
:1001C0002223D1F690E08C91803219F091E001C0A9
:1001D00090E0892FDF91CF9108958091A503882326
:1001E00011F481E00895A0918E01B0918F01ED91FD
:1001F000FC91119740910001509101016091020121
:10020000709103010280F381E02D25EA31E0CD01F8
:100210000995882319F01092A50381E00895DF92D3
:10022000EF92FF920F931F937B018C01D42E82E0FB
:10023000481761F40E94ED008823D1F1E5EAF1E06E
:10024000119283E0E53AF807D9F723C080910001C5
:1002500090910101A0910201B09103018E159F05BB
:10026000A007B107F1F00E94ED00882309F1E091A9
:100270008E01F0918F01A081B1810D90BC91A02DD4
:1002800025EA31E0B801A701CF01FD0109958823D6
:1002900079F0E0920001F0920101009302011093C5
:1002A00003018091A5038D298093A50381E001C0FE
:1002B00080E01F910F91FF90EF90DF900895CF9312
:1002C000DF93EC01F62FE42F809197019091980134
:1002D00001968C179D0780F16D2F772780E090E0C5
:1002E0002091990130919A0140919B0150919C017C
:1002F000620F731F841F951F4E2F50E020919501B0
:1003000030919601D9014A9F90014B9F300D5A9F21
:10031000300D112440E050E0620F731F841F951FC1
:100320004F2F0E940F01882339F0BE017070660FB5
:10033000771F6B557E4F02C060E070E0CB01DF910C
:10034000CF910895CF93DF93EC01E62F8091930135
:1003500090919401C817D90720F5BE0134E0769535
:1003600067953A95E1F780E090E020919D0130910A
:100370009E0140919F015091A001620F731F841F45
:10038000951F4E2F0E940F01882359F0BE016F70F8
:10039000707025E0660F771F2A95E1F76B557E4F49
:1003A00002C060E070E0CB01DF91CF910895CF9261
:1003B000DF92EF92FF920F931F93CF93DF937C0115
:1003C000FC01C189D289209711F4C1E0D0E000E09E
:1003D00010E080919701909198010817190708F093
:1003E0004FC08C179D0710F4C1E0D0E0219640E08B
:1003F00060E0CE010E945F01FC01009709F440C05B
:1004000080819181892B19F00F5F1F4FE2CFF70197
:1004100081899289892B69F461E0838194810E94AA
:10042000A201FC01009761F1D38FC28FF701D6833F
:10043000C58310E0CC24CA94DC2C19C0F701818953
:100440009289009749F0412F61E00E945F01FC0111
:100450000097B1F0D183C083412F61E0CE010E94AB
:100460005F01FC01009761F0D182C0821F5F809123
:100470009101181718F3F701D28BC18B81E001C0ED
:1004800080E0DF91CF911F910F91FF90EF90DF906F
:10049000CF900895EF92FF920F931F93E090A101E8
:1004A000F090A2010091A3011091A401E60EF11CAD
:1004B000011D111D02972091920130E0BC01629F45
:1004C000C001639F900D729F900D1124A0E0B0E0D9
:1004D000E80EF91E0A1F1B1FC801B7010E940F0179
:1004E0001F910F91FF90EF900895AF92BF92CF921E
:1004F000DF92EF92FF920F931F93CF93DF936C01E4
:100500007B0180919001882309F44BC0F6010081A2
:100510001181A42EBB24809193019091940108171E
:10052000190708F03EC060E0C8010E94A201EC017A
:100530000097C9F18881E114F10429F4882369F155
:10054000853E41F52AC0882361F1853E19F18B85EE
:10055000282F30E0C9018F7390700F97D9F02A21AE
:100560003B21232BB9F4F70180818823B1F02AE0E5
:1005700001C02150E22FF0E0DE01AE0FBF1FEE0DF3
:10058000FF1D9C918081981719F4222391F705C0D3
:10059000222319F00F5F1F4FBECFF6011183008396
:1005A00002C0C0E0D0E0CE01DF91CF911F910F914A
:1005B000FF90EF90DF90CF90BF90AF9008956F9233
:1005C0007F928F929F92AF92BF92CF92DF92EF92E3
:1005D000FF920F931F93CF93DF939C01162F80916F
:1005E0009001882309F0E6C0653008F0E3C030933D
:1005F0008F0120938E01662321F4EE24FF248701CE
:1006000017C040E060E070E080E090E00E940F01E1
:10061000882309F4CFC0E12FF0E0A4E0EE0FFF1F24
:10062000AA95E1F7E55AFC4FE080F1800281138141
:1006300040E0C801B7010E940F01882309F4BAC045
:100640008091A303853509F0B5C08091A4038A3A4F
:1006500009F0B0C08090B501809291019090B201F4
:1006600090929201C091BB01D091BC01D0939601B0
:10067000C09395016091B6017091B7017093940198
:10068000609393016090B3017090B401930140E0D6
:1006900050E02E0D3F1D401F511F209399013093B4
:1006A0009A0140939B0150939C01882D90E0FC019E
:1006B000EC9FC001ED9F900DFC9F900D1124A0E0D8
:1006C000B0E0820F931FA41FB51F80939D019093EC
:1006D0009E01A0939F01B093A001F5E0660F771FE4
:1006E000FA95E1F761507E4F672F772766959B015A
:1006F00040E050E0280F391F4A1F5B1F2093A101E3
:100700003093A2014093A3015093A4018091B801BA
:100710009091B901009721F05C01CC24DD2408C040
:10072000A090C501B090C601C090C701D090C8018B
:10073000E21AF30A040B150BEA0CFB1C0C1D1D1D21
:10074000292D30E040E050E0C801B7010E94D811E7
:10075000A90130939801209397018091B001909165
:10076000B1018050924031F5209721F12FE0453FB3
:10077000520700F181E0A81680E0B80680E8C806BC
:1007800080E0D806B8F46728A9F0882099F0852F72
:100790009927C817D90770F0992061F0292D30E00A
:1007A000C901019782239323892B21F481E080934F
:1007B000900101C080E0DF91CF911F910F91FF90D8
:1007C000EF90DF90CF90BF90AF909F908F907F90F1
:1007D0006F90089540E060E00E945F01FC01009787
:1007E00019F420E030E002C020813181C901089570
:1007F0006F927F928F929F92AF92BF92CF92DF9231
:10080000EF92FF920F931F93CF93DF93EC014B0175
:100810005A018A8187FF82C0ED84FE840F85188982
:100820002F81388549855A85C501A0E0B0E08E0D3D
:100830009F1DA01FB11F281739074A075B0718F42F
:100840005901AE18BF086501612C02E0702E60C02E
:100850002D853E854F855889DA01C90119E0B69585
:10086000A795979587951A95D1F7109192011150F8
:100870001823BFEFEB2EB1E0FB2EE222F32211236F
:10088000A1F4E114F10489F48B859C85009719F09B
:100890000E94EA0302C08D819E819C878B878230F3
:1008A0009105E0F1885F9F4FC8F540E0612F8B858F
:1008B0009C850E944A02882389F1C3018E199F09F1
:1008C000A6018C159D0508F4AC0197012B553E4FF0
:1008D000B901640F751FD401F90102C081918D9394
:1008E000E617F707D9F7E21BF30B8E0E9F1EC41A0B
:1008F000D50A9A0140E050E08D859E85AF85B88984
:10090000820F931FA41FB51F8D879E87AF87B88B5B
:10091000C114D10409F09CCFA50102C04FEF5FEFD5
:10092000CA01DF91CF911F910F91FF90EF90DF905F
:10093000CF90BF90AF909F908F907F906F900895D1
:10094000DF93CF930F92CDB7DEB741E050E0BE0109
:100950006F5F7F4F0E94F803019719F02FEF3FEF71
:1009600003C08981282F30E0C9010F90CF91DF911A
:100970000895AF92BF92CF92DF92EF92FF920F93C2
:100980001F93CF93DF935C016A017B01FC0182819D
:1009900087FF38C087819085A185B2858417950728
:1009A000A607B70778F13AC0F5011486138623C06D
:1009B000F5010581168180919201382F330F20E0D7
:1009C000442737FD4095542FC701B6010E94D81126
:1009D000E9010CC0C8010E94EA038C018230910534
:1009E00088F02197FFEF883F9F0760F4209791F7E9
:1009F000F50114870387F501C586D686E786F08A58
:100A000081E001C080E0DF91CF911F910F91FF90B5
:100A1000EF90DF90CF90BF90AF90089541155105B2
:100A20006105710509F2C4CFCF93DF93EC018A8190
:100A300087FF18C086FF13C061E08B819C810E94F4
:100A4000A201FC01009771F08F819885A985BA8574
:100A5000848F958FA68FB78F8A818F7B8A830E9420
:100A6000ED0001C080E0DF91CF910895CF92DF9239
:100A7000EF92FF920F931F93CF93DF93EC016B01E3
:100A80008A8187FD59C080919001882309F454C060
:100A90005DC08081882309F44FC0853E09F44CC0B5
:100AA0009385892F887109F047C09F739A83828D3F
:100AB000938D9E838D83E48CF58C068D178DEF824C
:100AC000F88609871A871C861B861D861E861F8648
:100AD000188AE114F1040105110519F41A8A198A1A
:100AE00022C09A8B898B80919201382F330F20E09E
:100AF000442737FD4095542FC801B7010E94D811F3
:100B000089010EC089899A890E94EA039A8B898B90
:100B10008230910588F001501040885F9F4F60F44B
:100B20000115110579F78A8180688A83DC82CB827E
:100B3000CE010E94140501C080E0DF91CF911F918A
:100B40000F91FF90EF90DF90CF90089560E0C60185
:100B50000E94A201FC01009709F09BCFEDCFEF921C
:100B6000FF920F931F93DF93CF93CDB7DEB72D97EF
:100B70000FB6F894DEBF0FBECDBF7C01CB018E0156
:100B80000D5F1F4FB8010E94AA00882381F01A82CE
:100B9000198248E0B801CE0101960E947502892BA6
:100BA00031F069817A81C7010E94360501C080E079
:100BB0002D960FB6F894DEBF0FBECDBFCF91DF915B
:100BC0001F910F91FF90EF900895CF92DF92EF92D7
:100BD000FF920F931F93DF93CF93CDB7DEB72D977F
:100BE0000FB6F894DEBF0FBECDBF6C019B01FC01B8
:100BF000828187FD41C01A82198283E0E82EF12CA0
:100C0000EC0EFD1EB701C9010E94AA008823A1F1C4
:100C100048E0B7018E010F5F1F4FC8010E947502A7
:100C2000892B51F51A82198248E060E070E0C80112
:100C30000E947502AC010097F9F08091A5038160D4
:100C40008093A50320E030E0B7012B3010F080E066
:100C500004C0FB01E20FF31F8081FA01E20FF31FD2
:100C600080832F5F3F4F2032310579F769817A8188
:100C7000C6010E94360501C080E02D960FB6F8949B
:100C8000DEBF0FBECDBFCF91DF911F910F91FF90BF
:100C9000EF90DF90CF900895CF93DF93EC010E9407
:100CA0001405882311F01A8281E0DF91CF91089515
:100CB0006F927F929F92AF92BF92CF92DF92EF920C
:100CC000FF920F931F93CF93DF93EC015B01E42E10
:100CD000952E8A8187FF4AC080FD48C0842F952FBA
:100CE0009C016901612C52E0752E71C02F813885FD
:100CF00049855A85DA01C90149E0B695A7959795C6
:100D000087954A95D1F7F0909201FA94F8228901DB
:100D10001170FF20F1F40115110501F589899A89F7
:100D2000009729F48D819E81009781F406C00E946E
:100D3000EA032FEF883F920730F0CE010E94D701DF
:100D4000882351F413C08230910580F09A8B898BEF
:100D500003C00115110511F442E001C041E06F2DFF
:100D600089899A890E944A02882319F42FEF3FEF5C
:100D700035C09301201B310BA6012C153D0508F44D
:100D8000A90198012B553E4FB901640F751FD5017C
:100D9000F90102C08D918193E617F707D9F7E21B9D
:100DA000F30BAE0EBF1EC41AD50ACA01A0E0B0E014
:100DB0002F81388549855A85280F391F4A1F5B1FA7
:100DC0002F83388749875A878A8180648A83C11430
:100DD000D10409F08BCF8E2D992D9C01C901DF9193
:100DE000CF911F910F91FF90EF90DF90CF90BF9028
:100DF000AF909F907F906F900895DF93CF930F9265
:100E0000CDB7DEB7698341E050E0BE016F5F7F4F31
:100E10000E9458060F90CF91DF910895DF92EF92D4
:100E2000FF920F931F93D82E7A018B010E94B00876
:100E30008D2D80640E94B708812F9927AA27BB2790
:100E40000E94B708C801AA27BB270E94B708BB2782
:100E5000A12F902F8F2D0E94B7088E2D0E94B708CA
:100E6000DD2011F08FEF01C085E90E94B7081FEF68
:100E70000E94B0088F3F21F4112311F01150F8CFD8
:100E80001F910F91FF90EF90DF900895EF92FF92E6
:100E90000F931F93CF93DF937A018B01E90139E020
:100EA000EE0CFF1C001F111F3A95D1F7E114F1045D
:100EB00001051105C1F10E94BC08B801A70188E134
:100EC0000E940E07882311F58EEF0E94B70800E0FC
:100ED00010E0FE01E00FF11F80810E94B7080F5F54
:100EE0001F4F82E000301807A1F78FEF0E94B7086C
:100EF0008FEF0E94B7080E94B0088F71853099F477
:100F00000FEF1FEF08C00115110519F40E94C10869
:100F10000AC0015010400E94B0088F3FA1F70E9404
:100F2000C10881E001C080E0DF91CF911F910F9156
:100F3000FF90EF900895EF92FF920F931F93CF933E
:100F4000DF937C018B01C0E0D0E006C0219721F443
:100F50000E94C10880E018C00E94B0088E3FB1F71F
:100F6000C0E0D0E007C00E94B008F701EC0FFD1F01
:100F700080832196C017D107B0F30E94B0080E9469
:100F8000B0080E94C10881E0DF91CF911F910F91BD
:100F9000FF90EF900895EF92FF920F931F93CF93DE
:100FA000DF937A018B01E9010E94BC0849E0EE0C55
:100FB000FF1C001F111F4A95D1F7B801A70181E15D
:100FC0000E940E07882321F00E94C10880E005C01E
:100FD00060E072E0CE010E949B07DF91CF911F91EC
:100FE0000F91FF90EF900895EF92FF920F931F9350
:100FF000DF93CF93CDB7DEB760970FB6F894DEBF1F
:101000000FBECDBF0E94BC0840E050E060E070E041
:1010100089E00E940E07882319F00E94C10808C0C9
:1010200060E170E0CE0101960E949B07882321F4C5
:10103000EE24FF24870130C08F818370382F330F57
:10104000330F20E0888590E0880F991F880F991F43
:10105000282B392B8985829586958695837090E01B
:10106000282B392B2F5F3F4F790100E010E08E8154
:101070008F7090E007972A852370220F3B85331FDE
:101080003327331F232B820F911D04C0EE0CFF1C4E
:10109000001F111F8A95D2F7B701C80160960FB6DD
:1010A000F894DEBF0FBECDBFCF91DF911F910F919E
:1010B000FF90EF9008951F93CF93DF930E94C6088F
:1010C00010E08FEF0E94B7081F5F1A30D1F70E941F
:1010D000BC0840E050E060E070E080E00E940E0755
:1010E000C0E0D0E004C02197D1F00E94B008813068
:1010F000D1F7C0E0D0E040E050E060E070E087E38E
:101100000E940E0740E050E060E070E089E20E943B
:101110000E07882351F083E0C83ED80721F40E94CF
:10112000C10810E011C02196E6CF0E94A90840E056
:1011300052E060E070E080E10E940E0710E088233A
:1011400009F411E00E94C108812FDF91CF911F9116
:1011500008958CB58C7F8CBD8DB581608DBD089553
:101160008FEF8EBD0DB407FEFDCF8EB508958EBDF9
:101170000DB407FEFDCF089560E08AE00E947B0F6A
:10118000089561E08AE00E947B0F089561E08AE0A3
:101190000E945D0F0E94C10861E08BE00E945D0F1C
:1011A00061E08DE00E945D0F83E58CBD0895089598
:1011B0008EE091E09093A7038093A60388E091E0EE
:1011C0009093A9038093A8031092AA0308950F9304
:1011D0001F938C0162E171E08BEB93E00E94E90ABE
:1011E000B8018BEB93E00E94140BFFCFEF92FF92BC
:1011F0000F931F93DF93CF93CDB7DEB72C970FB626
:10120000F894DEBF0FBECDBF40E855E260E070E06D
:101210008BEB93E00E942E0B8BEB93E00E946D0A08
:101220006AE171E08BEB93E00E94140B8BEB93E08F
:101230000E94290B8823D1F386EA93E00E945B0881
:10124000882321F486E391E00E94E70861E086EAC2
:1012500093E00E94DF02882359F460E086EA93E07D
:101260000E94DF02882321F480E491E00E94E708D5
:10127000DE011196ECE7F1E08CE001900D928150D7
:10128000E1F710E07E010894E11CF11C812F6AE077
:101290000E94CC11805D8E83812F0E94CC11905DC5
:1012A0009F83B70188EA93E00E94E505882319F43B
:1012B0001F5F143659F78091AA0387FD04C08CE4A0
:1012C00091E00E94E70868E571E08BEB93E00E94F3
:1012D000E90ABE016F5F7F4F8BEB93E00E94140B16
:1012E000EE24FF24870166E671E088EA93E00E941D
:1012F000430B2AE030E0B801A70188EA93E00E949E
:10130000A20C6CE671E088EA93E00E94430B0E9415
:10131000DD0EAB01BC0188EA93E00E94390C089411
:10132000E11CF11C011D111D84E6E816F104010504
:101330001105C9F688EA93E00E94140567E771E099
:101340008BEB93E00E94140B2C960FB6F894DEBF43
:101350000FBECDBFCF91DF911F910F91FF90EF9006
:1013600008950E94230F0E94F608FFCFFC01662318
:1013700011F41082089581E080830895FC016623B2
:1013800011F41082089581E0808308951092BB03C8
:1013900081E08093BC030895DF93CF930F92CDB784
:1013A000DEB7FC01698341E0BE016F5F7F4F808142
:1013B0000E94900D0F90CF91DF910895DF93CF930E
:1013C0000F92CDB7DEB7FC01698341E0BE016F5FCC
:1013D0007F4F80810E94900D0F90CF91DF910895F3
:1013E0002F923F924F925F926F927F928F929F9235
:1013F000AF92BF92CF92DF92EF92FF920F931F9323
:10140000DF93CF93CDB7DEB7A0970FB6F894DEBFCA
:101410000FBECDBF2C016A017B014115510561054D
:10142000710521F460E30E94DE093EC0AA24BB24BA
:10143000622E7724882499241E010894211C311CD3
:1014400081010A0D1B1DC701B601A40193010E9471
:10145000D811F80160830894A11CB11CC701B60122
:10146000A40193010E94D811C901DA016C017D0128
:10147000C114D104E104F10419F775010894E108DD
:10148000F108E20CF31C0DC0F70160816A3010F422
:10149000605D01C0695CC2010E94DE090894E10838
:1014A000F108EC16FD0681F7A0960FB6F894DEBFA2
:1014B0000FBECDBFCF91DF911F910F91FF90EF90A5
:1014C000DF90CF90BF90AF909F908F907F906F9064
:1014D0005F904F903F902F9008950F931F938C0132
:1014E0006DE00E94DE096AE0C8010E94DE091F91DA
:1014F0000F9108950F931F938C010E94CC09C8018E
:101500000E946D0A1F910F9108950F931F938C01F4
:101510000E94DE09C8010E946D0A1F910F91089573
:10152000EF92FF920F931F93CF93DF93EC017A0119
:101530008B0177FF0BC06DE20E94DE0910950095CC
:10154000F094E094E11CF11C011D111D2AE0B8018A
:10155000A701CE010E94F009DF91CF911F910F9159
:10156000FF90EF9008950F931F938C010E94900AB3
:10157000C8010E946D0A1F910F910895AB01662763
:1015800057FD6095762F0E94B30A0895AB01662738
:1015900057FD6095762F0E94900A08952115310518
:1015A00021F4642F0E94DE0908952A30310519F4D0
:1015B0000E94900A08950E94F00908950F931F93C6
:1015C0008C010E94CE0AC8010E946D0A1F910F91E2
:1015D0000895CF92DF92EF92FF920F931F93CF93D4
:1015E000DF936C017B01DB010D900020E9F78D0199
:1015F00001501040061B170BC0E0D0E009C0B70136
:101600006C0F7D1F41E0F60180810E94900D2196B4
:10161000C017D107A4F3DF91CF911F910F91FF90D5
:10162000EF90DF90CF9008950F931F938C010E944D
:10163000E90AC8010E946D0A1F910F910895FC01EB
:1016400080810E94E20D0895FC0180810E942C0D92
:101650000895FC0180810E94C40C0895FC018081E2
:101660000E94EC0D0895DC01ED91FC910190F08158
:10167000E02D09950895DC01ED91FC910190F08138
:10168000E02D099508950F931F93CF93DF938C015D
:10169000EB0109C02196D801ED91FC910190F081F8
:1016A000E02DC801099568816623A1F7DF91CF91EC
:1016B0001F910F9108950F931F938C01DC01ED9101
:1016C000FC910190F081E02D6DE00995D801ED913C
:1016D000FC910190F081E02D6AE0C80109951F910D
:1016E0000F9108950F931F938C01DC01ED91FC91F4
:1016F0000190F081E02D0995C8010E945B0B1F91BC
:101700000F9108950F931F938C010E94430BC80102
:101710000E945B0B1F910F9108950F931F938C01F3
:10172000DC01ED91FC910190F081E02D0995C8015B
:101730000E945B0B1F910F9108952F923F924F9241
:101740005F926F927F928F929F92AF92BF92CF9251
:10175000DF92EF92FF920F931F93DF93CF93CDB75A
:10176000DEB7A0970FB6F894DEBF0FBECDBF1C0149
:101770006A017B01411551056105710549F4DC01E0
:10178000ED91FC910190F081E02D60E3099554C04A
:10179000882499245401422E55246624772401E09C
:1017A00010E00C0F1D1F080D191DC701B601A30184
:1017B00092010E94D811F80160830894811C911C49
:1017C000A11CB11CC701B601A30192010E94D8114E
:1017D000C901DA016C017D01C114D104E104F104F5
:1017E000F1F681E0E82EF12CEC0EFD1EE80CF91C60
:1017F0003E010894611C711CD501C4010197A10927
:10180000B1096C01C818D90814C0F601EE0DFF1D0E
:1018100060816A3010F4605D01C0695CD101ED91B6
:10182000FC910190F081E02DC10109950894E10837
:10183000F1086E147F0449F7A0960FB6F894DEBF46
:101840000FBECDBFCF91DF911F910F91FF90EF9011
:10185000DF90CF90BF90AF909F908F907F906F90D0
:101860005F904F903F902F9008952AE00E949D0B2B
:1018700008950F931F938C010E94350CC8010E949C
:101880005B0B1F910F910895AB0160E070E00E9427
:10189000350C08950F931F938C01AB0160E070E04D
:1018A0000E94350CC8010E945B0B1F910F91089597
:1018B000EF92FF920F931F93CF93DF93EC017A0186
:1018C0008B0177FF0FC0E881F9810190F081E02D55
:1018D0006DE2099510950095F094E094E11CF11CDF
:1018E000011D111D2AE0B801A701CE010E949D0B28
:1018F000DF91CF911F910F91FF90EF9008950F937B
:101900001F938C010E94580CC8010E945B0B1F9111
:101910000F910895AB01662757FD6095762F0E94C1
:10192000580C08950F931F938C01AB01662757FD48
:101930006095762F0E94580CC8010E945B0B1F9186
:101940000F910895DC012115310541F4ED91FC91D1
:101950000190F081E02D642F099508952A3031051A
:1019600019F40E94580C08950E949D0B08950F933E
:101970001F938C010E94A20CC8010E945B0B1F9157
:101980000F91089518951895882329F489ED94E00E
:101990000E947910089585EC94E00E9479100895D2
:1019A0001F920F920FB60F9211242F933F934F93D4
:1019B0005F936F937F938F939F93AF93BF93EF93B7
:1019C000FF9383EE94E00E947910882331F083EE38
:1019D00094E00E944A108093CE00FF91EF91BF9156
:1019E000AF919F918F917F916F915F914F913F91B7
:1019F0002F910F900FBE0F901F9018951F920F926E
:101A00000FB60F9211242F933F934F935F936F93D1
:101A10007F938F939F93AF93BF93EF93FF938FEC3D
:101A200094E00E947910882331F08FEC94E00E94BA
:101A30004A108093C600FF91EF91BF91AF919F91A3
:101A40008F917F916F915F914F913F912F910F9067
:101A50000FBE0F901F901895882329F489ED94E00C
:101A60000E944A10089585EC94E00E944A1008955F
:101A70001F920F920FB60F9211242F933F934F9303
:101A80005F936F937F938F939F93AF93BF93EF93E6
:101A9000FF936091CE008091C80084FD04C085EC66
:101AA00094E00E941E10FF91EF91BF91AF919F9122
:101AB0008F917F916F915F914F913F912F910F90F7
:101AC0000FBE0F901F9018951F920F920FB60F9296
:101AD00011242F933F934F935F936F937F938F9333
:101AE0009F93AF93BF93EF93FF936091C600809154
:101AF000C00084FD04C089ED94E00E941E10FF9197
:101B0000EF91BF91AF919F918F917F916F915F9175
:101B10004F913F912F910F900FBE0F901F901895EE
:101B2000FF920F931F93CF93DF93162F042F44231D
:101B300009F442C0FFB6F8948823E9F4862F972F62
:101B40009C01E90169918FEC94E00E941E109E01B6
:101B5000211B2017B8F38091C00080648093C000DF
:101B60008091C00085FFFCCF8FEC94E00E944A106A
:101B70008093C6001CC0862F972F9C01E9016991B4
:101B800083EE94E00E941E109E01211B2017B8F3E3
:101B90008091C80080648093C8008091C80085FF50
:101BA000FCCF83EE94E00E944A108093CE008FB762
:101BB00030E8F322F82AFFBEDF91CF911F910F91F9
:101BC000FF900895882319F489ED94E002C085EC14
:101BD00094E00E94C0100895EF92FF920F931F931C
:101BE0007A018B019A01AB01569547953795279558
:101BF0008823B1F5205C3D4B404F5F4FCA01B901CE
:101C0000A80197010E94D811C901DA010197A10921
:101C1000B109292F3A2F4B2F55270196A11DB11D30
:101C20002093C50081508093C4001092C000109290
:101C3000C1001092C20088ED8093C10086E08093BD
:101C4000C20040E850E06DEB73E089ED94E00E9443
:101C5000121040E850E06DE374E08FEC94E049C06E
:101C6000205C3D4B404F5F4FCA01B901A80197016D
:101C70000E94D811C901DA010197A109B109292FE0
:101C80003A2F4B2F55270196A11DB11D2093CD0052
:101C900081508093CC001092C8001092C90010921D
:101CA000CA0088ED8093C90086E08093CA0080E86E
:101CB00090E00E94CA108093EF049093F00480E8B3
:101CC00090E00E94CA108093ED049093EE0460911E
:101CD000EF047091F00442E050E085EC94E00E9443
:101CE00012106091ED047091EE0442E050E083EE3A
:101CF00094E00E9412101F910F91FF90EF900895B1
:101D00001F920F920FB60F9211242F938F939F93D0
:101D1000AF93BF938091BD049091BE04A091BF0486
:101D2000B091C0048050904CAF4FBF4F8093BD0422
:101D30009093BE04A093BF04B093C00427C08091C9
:101D4000BD049091BE04A091BF04B091C00480581E
:101D50009E43A040B0408093BD049093BE04A093E6
:101D6000BF04B093C0048091C1049091C204A091BB
:101D7000C304B091C4040196A11DB11D8093C10498
:101D80009093C204A093C304B093C4048091BD0493
:101D90009091BE04A091BF04B091C00481589E43AD
:101DA000A040B04060F6BF91AF919F918F912F916D
:101DB0000F900FBE0F901F9018958FB7F894209139
:101DC000C1043091C2044091C3045091C4048FBF38
:101DD000B901CA010895EF92FF920F931F937B01FF
:101DE0008C018FB7F8944091C1045091C204609166
:101DF000C3047091C4048FBF2FB7F8948091C104BD
:101E00009091C204A091C304B091C4042FBF841B5D
:101E1000950BA60BB70B8E159F05A007B10760F3B6
:101E20001F910F91FF90EF900895019759F0FC01D9
:101E3000EE0FFF1FEE0FFF1F32978FB7F894319709
:101E4000F1F78FBF0895789484B5826084BD84B51E
:101E5000816084BD85B5826085BD85B5816085BDA5
:101E6000EEE6F0E0808181608083E1E8F0E080814F
:101E700082608083808181608083E0E8F0E08081FF
:101E800081608083E1EBF0E0808184608083E0EB1F
:101E9000F0E0808181608083EAE7F0E08081846007
:101EA0008083808182608083808181608083808163
:101EB000806880831092C1000895282F30E0C90106
:101EC00085549F4FFC01949125563F4FF901849111
:101ED000882381F0E82FF0E0E457FF4FE491F0E031
:101EE000662329F4808190958923808308958081D9
:101EF000892B80830895482F50E0CA0185529F4F57
:101F0000FC012491CA0185549F4FFC0194914556D0
:101F10005F4FFA0134913323C1F1222331F1213093
:101F200019F484B58F7704C0223021F484B58F7DF5
:101F300084BD1BC0233021F4809180008F7705C0C1
:101F4000243031F4809180008F7D809380000DC01B
:101F5000263021F48091B0008F7705C0273029F416
:101F60008091B0008F7D8093B000E32FF0E0EF56BA
:101F7000FF4FE491F0E0662329F480819095892356
:101F8000808308958081892B80830895482F50E0B5
:101F9000CA0185529F4FFC012491CA0185549F4F6D
:101FA000FC01949145565F4FFA013491332319F4A3
:101FB00020E030E035C0222331F1213019F484B51E
:101FC0008F7704C0223021F484B58F7D84BD1BC07F
:101FD000233021F4809180008F7705C0243031F4C4
:101FE000809180008F7D809380000DC0263021F489
:101FF0008091B0008F7705C0273029F48091B00020
:102000008F7D8093B000E32FF0E0EA56FF4FE4911C
:10201000F0E0808120E030E0892311F021E030E021
:10202000C9010895FC015783468311861086718388
:10203000608373836283758364830895DC011896DB
:102040002D913C91199716968D919C911797281771
:102050003907F8F4ED91FC91119761931196FC9377
:10206000EE9318968D919C911997019619969C93D1
:102070008E93189714962D913C91159716968D91E5
:102080009C911797820F931FE817F90710F02D9373
:102090003C930895DC0118968D919C9119970097B7
:1020A00019F42FEF3FEF23C01296ED91FC91139797
:1020B00041911396FC93EE931297019719969C9376
:1020C0008E93189714962D913C91159716968D9195
:1020D0009C911797820F931FE817F90720F013962A
:1020E0003C932E931297242F332727FD3095C90157
:1020F0000895FC0180850895FC0180859185892BD8
:1021000011F480E008950280F381E02D808108952C
:10211000CF93DF93DC01562F18966D917C91199720
:102120006115710541F11296ED91FC911397CD91D6
:10213000DC91119740E01CC08081851711F4652F58
:102140001BC04F5F842F90E086179707A0F49F0174
:102150002F5F3F4F1496ED91FC91159716968D9138
:102160009C9117978E0F9F1F8217930708F0F90114
:10217000EC17FD0709F760E0862FDF91CF910895F6
:10218000FC011186108684819581918380839383DD
:1021900082830895CF93DF93BC018230910510F4C0
:1021A00062E070E0A091F304B091F404ED01E0E08E
:1021B000F0E040E050E021C08881998186179707C0
:1021C00069F48A819B81309719F09383828304C0DC
:1021D0009093F4048093F304FE0134C068177907E8
:1021E00038F44115510519F08417950708F4AC012E
:1021F000FE018A819B819C01E9012097E9F6411546
:102200005105A9F1CA01861B970B049708F4BA017E
:10221000E0E0F0E02AC08D919C911197841795071A
:10222000F9F46417750781F412968D919C911397B8
:10223000309719F09383828304C09093F4048093C1
:10224000F304FD0132964CC0CA01861B970BFD01B9
:10225000E80FF91F6193719302978D939C9340C08F
:10226000FD01828193819C01D9011097A1F6809193
:10227000F1049091F204892B41F480918A019091AC
:102280008B019093F2048093F10440918C01509162
:102290008D014115510541F44DB75EB7809188011C
:1022A00090918901481B590B2091F1043091F2045F
:1022B000CA01821B930B8617970780F0AB014E5F14
:1022C0005F4F8417950750F0420F531F5093F2044D
:1022D0004093F104F9016193719302C0E0E0F0E0F2
:1022E000CF01DF91CF910895CF93DF93009709F449
:1022F00050C0EC0122971B821A82A091F304B09186
:10230000F404109709F140E050E0AC17BD0708F164
:10231000BB83AA83FE0121913191E20FF31FAE1717
:10232000BF0779F48D919C911197280F391F2E5F6B
:102330003F4F3983288312968D919C9113979B83ED
:102340008A834115510571F4D093F404C093F304CA
:1023500020C012968D919C911397AD01009711F0BA
:10236000DC01D3CFFA01D383C28321913191E20FF3
:10237000F31FCE17DF0769F488819981280F391F71
:102380002E5F3F4FFA01318320838A819B819383A3
:102390008283DF91CF910895991B79E004C0991F42
:1023A000961708F0961B881F7A95C9F780950895AF
:1023B000A1E21A2EAA1BBB1BFD010DC0AA1FBB1F49
:1023C000EE1FFF1FA217B307E407F50720F0A21BBB
:1023D000B30BE40BF50B661F771F881F991F1A9428
:1023E00069F760957095809590959B01AC01BD0152
:1023F000CF010895EE0FFF1F0590F491E02D099491
:04240000F894FFCF7E
:10240400FFFFFFFF00000000FD0600000000CB07F7
:1024140046076572726F723A2000547970652061C4
:102424006E792063686172616374657220746F20D1
:10243400737461727400636172642E696E697400EE
:1024440046617431363A3A696E69740066696C653E
:102454002E637265617465005072696E74696E678B
:1024640020746F3A20006C696E652000206D696CE1
:102474006C6973203D2000446F6E65005052494ED4
:0E2484005430302E545854002000F50400004F
:00000001FF
