:020000040000FA
:0400000000000428D0
:0800080005281C2008238823B1
:10001000E900690803190E2869086722831203138F
:100020002B08031918282B08BF2383120313AB01D5
:1000300091206A2007280800583083160313810096
:10004000023083129F0083168501023086008312DE
:100050009501FF30831692000730831292009701BA
:1000600083168C0183128B018C010C30831699004E
:1000700004309800803083129800831698168312FB
:10008000181683161C11811283128B1285018601AA
:1000900083120313B001B101B201BD01BE01BF0162
:1000A000C001C101C201E830A7000330A800E83058
:1000B000A9000330AA00B830A4000B30A500A601A7
:1000C000B3010130A3000A30AF00AB01A021003022
:1000D00030220800FF3083120313A407031CA5037A
:1000E000A51B762825082404031D9028B830A400F9
:1000F0000B30A5002608013CA600440803198428FB
:100100008312031306109028831203132608031981
:100110008D288312031306149028831203130610EC
:100120000800FF3083120313A907031CAA03AA1BAC
:100130009D282A082904031DA3282708A9002808A8
:10014000AA00A4200F220800831203134408031DF1
:10015000E3284608FF008030FF064C067F02031D9F
:10016000B3284B084502031CE228E420CB0A0319FC
:10017000CC0A0130B4004708CD0748080318480FDF
:10018000CE074E084D04031DCE1BCE284508CD02D8
:100190004608031C460FCE020130B5004908CF07C0
:1001A0004A0803184A0FD00750084F04031DD01BFC
:1001B000E3284508CF024608031C460FD002013051
:1001C000B600E328A021080083120313431EEE2883
:1001D0003408A0003608B4002008B600C31DF62875
:1001E0003408A0003508B4002008B500340803190D
:1001F000FF28431CFD28B003FE28B00AF42135086F
:1002000003190829C31C0629B1030729B10AD521FE
:10021000360803191129431D0F29B2031029B20A08
:10022000B321B401B501B6010800831203133708E6
:100230003D02C5003E08C6003808031C380FC60240
:1002400039083F02C7004008C8003A08031C3A0FAB
:10025000C8023B084102C9004208CA003C08031C0E
:100260003C0FCA02C3014608803E803E03183F2966
:100270000130C300C509C609C50A0319C60A4808E2
:10028000803E803E03184A29C314C709C809C70A1B
:100290000319C80A4A08803E803E031855294315B1
:1002A000C909CA09C90A0319CA0A4608FF008030E9
:1002B000FF0648067F02031D5F2947084502031811
:1002C0006E29C3154508A1004608A2004708C500CD
:1002D0004808C6002108C7002208C8004608FF00D9
:1002E0008030FF064A067F02031D7829490845022F
:1002F0000318872943164508A1004608A2004908AB
:10030000C5004A08C6002108C9002208CA00CB015E
:10031000CC01B401B501B6010310C61B0314460C91
:10032000E500450CE4006409CD006509CE00CD0A66
:100330000319CE0A4D08CF004E08D000C4010800B2
:10034000831203133D08B7003E08B8003F08B90008
:100350004008BA004108BB004208BC000130C4009C
:100360006630AB00080001303D22033083120313D6
:10037000B205B21CBF2901303206E800C12932089B
:10038000E8003F30B305680EF039E8000310E80DCF
:100390000310E80D6808B3043308831203138500C3
:1003A000831203132F08AE00080001304B220330E4
:1003B00083120313B105B11CE12901303106E700B6
:1003C000E3293108E700F330B3050310E70D03100C
:1003D000E70D6708B3043308831203138500831203
:1003E00003132F08AD000800013059220330831297
:1003F0000313B005B01C002A01303006E600022AC3
:100400003008E600FC30B3056608B30433088312F5
:1004100003138500831203132F08AC000800831216
:100420000313AC032C08031D1B2A00305922013092
:1004300083120313AC00AD032D08031D252A0030E1
:100440004B22013083120313AD00AE032E08031DAF
:100450002F2A00303D22013083120313AE00080022
:1004600083120313E50059228312031365084B22FC
:100470008312031365083D22080083120313E4006E
:1004800064080319472A8312031386124A2A831227
:1004900003138616080083120313E400640803198B
:1004A000552A831203130613582A831203130617BF
:1004B000080083120313E40064080319632A8312FB
:1004C00003138613662A8312031386170800831208
:1004D0000313E300303A0319012B6308313A03197F
:1004E000FE2A6308443A0319BF2A6308453A0319F0
:1004F000A82A6308493A0319F72A63084C3A0319F2
:10050000BD2A63084E3A0319E52A6308583A0319CD
:10051000AB2A6308593A0319B12A63085A3A0319F6
:10052000B72A6308643A0319DD2A6308653A031998
:10053000A62A6308693A0319F42A6308703A031972
:10054000C92A6308763A0319FA2A042BA301062B59
:100550000130A300062B1D232108BD002208BE0088
:10056000062B1D232108BF002208C000062B1D23D7
:100570002108C1002208C200062B1521062B1D23CD
:100580002108A7002208A8002708A9002808AA0017
:10059000062B3708A1003808A20048238312031352
:1005A0003908A1003A08A2004823831203133B082C
:1005B000A1003C08A2004823062B8312031327083E
:1005C000A1002808A2004823062B831203133D082C
:1005D000B7003E08B8003F08B9004008BA0041081B
:1005E000BB004208BC00062B2F085623062B2823ED
:1005F000AF00062B4408E3005623062B01303022BF
:10060000062B00303022062B3F30BF230823080082
:100610008312031323080319122B13233E30BF2325
:100620002030BF23080083120313230803191C2B57
:100630000D30BF230A30BF2308002823E100E20069
:10064000A200A1012823E100A1040030A2040800B7
:100650007E23DF003A305F02031C312BA930DF0715
:10066000352BD03083120313DF077E23831203134D
:10067000E0003A306002031C402BA930E007422B17
:10068000D030E0075F0EF039DF00E00460080800BA
:10069000831203132208DD00DE01DD1BDE03DE0111
:1006A0005D0856232108DD0056230800831203133A
:1006B000DB005B0E0F39DC000A305C02031C642B8C
:1006C00057305C07BF23692B3030831203135C075C
:1006D000BF230F30831203135B05DC000A305C027A
:1006E000031C772B57305C07DB00BF237D2B30309A
:1006F00083120313DC075C08BF23080088238312DE
:100700000313D900DA00590803197E2B5A08080090
:10071000831203138C1A8E2B00309A2B1A08831223
:100720000313D80023080319972B5808BF238312FB
:1007300003135808080083120313D3007F08D20064
:10074000D40154085207D5005308D6000318D60A1E
:10075000550884000008D7000319BE2B5408D500A3
:10076000D40A55085207D5005308D6000318D60AF4
:10077000550884000008D700BF23A12B080083126E
:100780000313D10083160313981CC22B8312031387
:0A07900051088312031399000800BA
:02400E00103F61
:00000001FF
