:100000000C945D000C9485000C9485000C94850084
:100010000C9485000C9485000C9485000C9485004C
:100020000C9485000C9485000C9485000C9485003C
:100030000C9485000C9485000C9485000C9485002C
:100040000C9485000C9485000C9407010C94850099
:100050000C9423040C9485000C94BD030C9485002F
:100060000C9485000C9485000C9485000C948500FC
:100070000C94F7030C9485000C948F03494E464969
:100080004E4954594E414ECDCCCC3D0AD7233C1756
:10009000B7D13877CC2B329595E6241FB14F0A00A3
:1000A0000020410000C84200401C4620BCBE4CCA93
:1000B0001B0E5AAEC59D7400780311241FBECFEFEE
:1000C000D0E1DEBFCDBF11E0A0E0B1E0E0E2F5E1BC
:1000D00002C005900D92AC31B107D9F712E0ACE146
:1000E000B1E001C01D92AA35B107E1F710E0CAEBFB
:1000F000D0E004C02297FE010E94080AC83BD10745
:10010000C9F70E94FE000C948F0A0C940000089519
:10011000EF92FF920F931F9340E05BE460E070E08A
:1001200086E291E00E94680360E071E086E291E07F
:100130000E944D036CE171E080910F0190911001DC
:100140000E94E606609311017093120180931301DF
:100150009093140120E030E04AE754E40E9436090D
:1001600020E030E040E05FE30E944C080E94B008CD
:10017000DC01CB0168EE73E00E94BD0986E291E0EC
:100180000E941A0366E071E086E291E00E94220379
:1001900020E030E04AE754E46091110170911201CF
:1001A00080911301909114010E94360920E030E003
:1001B00040E05FE30E944C087B018C0120E030E0CE
:1001C00040E050E00E94320918161CF4C801B70143
:1001D00003C0C801B70190580E94B008DC01CB01F0
:1001E00068EE73E00E94BD09BC0186E291E00E94C6
:1001F000F7021F910F91FF90EF900895CFEFD0E19C
:10020000DEBFCDBF0E947D010E948800FFCF1F92FC
:100210000F920FB60F9211242F938F939F93AF934A
:10022000BF9380911E0190911F01A0912001B09178
:1002300021018050904CAF4FBF4F80931E0190938F
:100240001F01A0932001B093210127C080911E01BE
:1002500090911F01A0912001B091210180589E43EF
:10026000A040B04080931E0190931F01A0932001F5
:10027000B09321018091220190912301A09124014A
:10028000B09125010196A11DB11D8093220190938B
:100290002301A0932401B093250180911E01909128
:1002A0001F01A0912001B091210181589E43A040DF
:1002B000B04060F6BF91AF919F918F912F910F90B9
:1002C0000FBE0F901F9018952FB7F89460912201E0
:1002D0007091230180912401909125012FBF0895F1
:1002E000019751F0880F991F880F991F02972FB718
:1002F000F8940197F1F72FBF0895789484B5826040
:1003000084BD84B5816084BD85B5826085BD85B5B9
:10031000816085BDEEE6F0E0808181608083E1E868
:10032000F0E0808182608083808181608083E0E86A
:10033000F0E0808181608083E1EBF0E08081846087
:100340008083E0EBF0E0808181608083EAE7F0E089
:1003500080818460808380818260808380818160ED
:1003600080838081806880831092C1000895EF921D
:10037000FF920F931F937B018C018FB7F8944091EC
:1003800022015091230160912401709125018FBFBA
:100390002FB7F8948091220190912301A09124011C
:1003A000B09125012FBF841B950BA60BB70B8E15A3
:1003B0009F05A007B10760F31F910F91FF90EF9089
:1003C0000895FC01662311F41082089581E0808372
:1003D0000895FC01662311F41082089581E0808362
:1003E0000895CF93DF93CDB7DEB721970FB6F8947A
:1003F000DEBF0FBECDBFFC01698341E0BE016F5F70
:100400007F4F80810E944F0421960FB6F894DEBF83
:100410000FBECDBFDF91CF910895CF93DF93CDB7BE
:10042000DEB721970FB6F894DEBF0FBECDBFFC013B
:10043000698341E0BE016F5F7F4F80810E944F045E
:1004400021960FB6F894DEBF0FBECDBFDF91CF91DE
:1004500008952F923F924F925F926F927F928F9268
:100460009F92AF92BF92CF92DF92EF92FF920F9343
:100470001F93CF93DF93CDB7DEB7A0970FB6F89455
:10048000DEBF0FBECDBF1C016A017B0141155105C6
:100490006105710521F460E30E940D023EC06624EF
:1004A0007724822E9924AA24BB242E010894411C6F
:1004B000511C8201060D171DC701B601A50194014B
:1004C0000E94D009F80160830894611C711CC70167
:1004D000B601A50194010E94D00969017A01211594
:1004E00031054105510529F773010894E108F10828
:1004F0006201CE0CDF1CF60160816A3010F4605D91
:1005000001C0695CC1010E940D020894E108F10874
:100510000894C108D108F7FEEECFA0960FB6F89464
:10052000DEBF0FBECDBFDF91CF911F910F91FF9026
:10053000EF90DF90CF90BF90AF909F908F907F9083
:100540006F905F904F903F902F9008950F931F935F
:100550008C016DE00E940D026AE0C8010E940D024C
:100560001F910F9108950F931F938C010E94F10129
:10057000C8010E94A6021F910F9108950F931F9327
:100580008C010E940D02C8010E94A6021F910F91CA
:100590000895EF92FF920F931F93CF93DF93EC0197
:1005A0007A018B0177FF0BC06DE20E940D0210955E
:1005B0000095F094E094E11CF11C011D111D2AE04E
:1005C000B801A701CE010E942902DF91CF911F91AE
:1005D0000F91FF90EF9008950F931F938C010E944D
:1005E000C902C8010E94A6021F910F910895AB0194
:1005F000662757FD6095762F0E94EC02089521151D
:10060000310521F4642F0E940D0208952A3031052E
:1006100019F40E94C90208950E94290208950F93B7
:100620001F938C010E94FF02C8010E94A6021F9125
:100630000F910895AB01662757FD6095762F0E94B4
:10064000C9020895CF92DF92EF92FF920F931F930A
:10065000CF93DF936C018B01EB0109900020E9F748
:100660002197C61BD70BEE24FF240BC0B8016E0DDB
:100670007F1D41E0F60180810E944F040894E11C37
:10068000F11CEC16FD0694F3DF91CF911F910F91B1
:10069000FF90EF90DF90CF9008950F931F938C0100
:1006A0000E942203C8010E94A6021F910F91089583
:1006B000FC0180810E94A4040895FC0180810E94B5
:1006C000EB030895FC0180810E948103992708951E
:1006D000FC0180810E94AE040895019741F46F5F90
:1006E0007F4F29F41092260181E08093270108951D
:1006F0006FEF7FEF81E090E00E946D030895189501
:100700001895882331F48CE392E00E94990599278B
:10071000089588E292E00E949905992708951F9212
:100720000F920FB60F9211242F933F934F935F9325
:100730006F937F938F939F93AF93BF93EF93FF93A9
:1007400086E492E00E949905882331F086E492E0E5
:100750000E9473058093CE00FF91EF91BF91AF91FE
:100760009F918F917F916F915F914F913F912F91C9
:100770000F900FBE0F901F9018951F920F920FB6FB
:100780000F9211242F933F934F935F936F937F9317
:100790008F939F93AF93BF93EF93FF9382E392E086
:1007A0000E949905882331F082E392E00E9473054C
:1007B0008093C600FF91EF91BF91AF919F918F9170
:1007C0007F916F915F914F913F912F910F900FBE4D
:1007D0000F901F901895882329F48CE392E00E94D3
:1007E0007305089588E292E00E94730508951F92B0
:1007F0000F920FB60F9211242F933F934F935F9355
:100800006F937F938F939F93AF93BF93EF93FF93D8
:100810006091CE008091C80084FD04C088E292E01F
:100820000E944E05FF91EF91BF91AF919F918F91E3
:100830007F916F915F914F913F912F910F900FBEDC
:100840000F901F9018951F920F920FB60F921124C0
:100850002F933F934F935F936F937F938F939F93C8
:10086000AF93BF93EF93FF936091C6008091C00058
:1008700084FD04C08CE392E00E944E05FF91EF914D
:10088000BF91AF919F918F917F916F915F914F91A8
:100890003F912F910F900FBE0F901F901895DF92F0
:1008A000EF92FF920F931F93CF93DF93042F442374
:1008B00009F442C0DFB6F8948823E9F4EB0110E0B4
:1008C00092E3E92E92E0F92E6991C7010E944E054C
:1008D0001F5F1017C9F78091C00080648093C0002B
:1008E0008091C00085FFFCCF82E392E00E947305F7
:1008F0008093C6001CC0EB0110E086E4E82E82E085
:10090000F82E6991C7010E944E051F5F1017C9F7A5
:100910008091C80080648093C8008091C80085FFE2
:10092000FCCF86E492E00E9473058093CE008FB7DF
:1009300090E8D922D82ADFBEDF91CF911F910F9185
:10094000FF90EF90DF900895882319F48CE392E0F4
:1009500002C088E292E00E94DF050895EF92FF92C4
:100960000F931F937A018B019A01AB01569547951E
:10097000379527958823B1F5205C3D4B404F5F4F5D
:10098000CA01B901A80197010E94D0092150304045
:1009900040405040BB27A52F942F832F2F5F3F4F00
:1009A0004F4F5F4F8093C50021502093C400109299
:1009B000C0001092C1001092C20088ED8093C10067
:1009C00086E08093C20040E850E068E271E08CE38A
:1009D00092E00E94420540E850E068EA71E082E35C
:1009E00092E049C0205C3D4B404F5F4FCA01B901C6
:1009F000A80197010E94D00921503040404050404A
:100A0000BB27A52F942F832F2F5F3F4F4F4F5F4F53
:100A10008093CD0021502093CC001092C8001092FA
:100A2000C9001092CA0088ED8093C90086E08093C7
:100A3000CA0080E890E00E94E905909353028093F9
:100A4000520280E890E00E94E90590935102809361
:100A50005002609152027091530242E050E088E2ED
:100A600092E00E944205609150027091510242E072
:100A700050E086E492E00E9442051F910F91FF90A2
:100A8000EF900895FC015783468311861086718389
:100A9000608373836283758364830895CF93DF9348
:100AA000DC01EC01288539858E819F812817390763
:100AB000B8F4ED91FC91119761931196FC93EE932C
:100AC000888599850196998788872C813D818E81BB
:100AD0009F81820F931FE817F90710F02D933C9325
:100AE000DF91CF910895CF93DF93DC01EC018885EE
:100AF0009985009719F48FEF9FEF18C0ED01EA81F7
:100B0000FB814191FB83EA830197998788872C8138
:100B10003D818E819F81820F931FE817F90710F0A6
:100B20003B832A83842F992787FD9095DF91CF916E
:100B30000895FC01808599270895FC0180859185A1
:100B4000892B19F480E090E008950280F381E02D74
:100B50008081992708950F931F93CF93DF93DC0132
:100B6000EC01488559854115510511F1EA81FB8158
:100B70000D911C91119770E018C08081861719F4AF
:100B8000862F992717C07F5F872F9927841795078E
:100B900078F43196ED012C813D818E819F81820F09
:100BA000931F8E179F0708F4F901E017F10729F743
:100BB00080E090E0DF91CF911F910F910895FC01AB
:100BC00011861086848195819183808393838283AB
:100BD0000895CF93DF93AC01029710F442E050E008
:100BE000A0915602B0915702FD01C0E0D0E020E094
:100BF00030E020C0808191818417950769F482815B
:100C00009381209719F09B838A8304C090935702A5
:100C1000809356029F0132C04817590738F42115B6
:100C2000310519F08217930708F49C01EF01028047
:100C3000F381E02D3097F1F62115310599F1C901C5
:100C4000841B950B049708F4A901E0E0F0E028C0AC
:100C50008D919C91119782179307F9F448175907C2
:100C600081F4ED018A819B81309719F0938382830F
:100C700004C090935702809356029D012E5F3F4F10
:100C80004BC0841B950BFD01E80FF91F4193519355
:100C900002978D939C939F013FC0FD01A281B38178
:100CA0001097B1F68091540290915502892B41F42E
:100CB00080911701909118019093550280935402EE
:100CC0002091190130911A012115310541F42DB7F8
:100CD0003EB78091150190911601281B390BA09108
:100CE0005402B09155022A1B3B0B2417350790F094
:100CF000CA0102962817390768F09D012E5F3F4F01
:100D0000C901840F951F90935502809354024D930F
:100D10005C9302C020E030E0C901DF91CF910895DB
:100D2000CF93DF93009709F44EC0EC0122971B820A
:100D30001A82A0915602B0915702109711F140E02B
:100D400050E001C0DC01AC17BD0700F1BB83AA83F2
:100D5000FE0121913191E20FF31FEA17FB0771F4B5
:100D60008D919C911197280F391F2E5F3F4F39832A
:100D70002883FD01828193819B838A8341155105DC
:100D800059F4D0935702C09356021DC0FD018281D1
:100D90009381AD010097B1F6FA01D383C28321910B
:100DA0003191E20FF31FEC17FD0769F488819981F7
:100DB000280F391F2E5F3F4FFA01318320838A812C
:100DC0009B8193838283DF91CF910895A0E0B0E06F
:100DD000ECEEF6E00C945C0AEC015B016115710528
:100DE00019F0FB0191838083D9908D2D99270E9462
:100DF0000C0A892BC9F7FDE2DF1621F4D990CC2427
:100E0000C39405C08BE2D81609F4D990CC248E0186
:100E10000150104043E050E06CE770E0C8010E94D0
:100E20003308892B09F58E010E5F1F4F45E050E016
:100E30006FE770E0C8010E943308892B19F48E0116
:100E4000095F1F4FA114B10419F0F501118300834C
:100E5000C0FE05C060E070E080E89FEFFFC060E08A
:100E600070E080E89FE7FAC043E050E064E870E09B
:100E7000C8010E943308892B61F4A114B10421F048
:100E80002296F501D183C08360E070E080EC9FE79B
:100E9000E5C088249924EE24FF2487014D2D40537A
:100EA0004A30A8F5F2E0CF2A8C2D99279C012870B2
:100EB000307082FF06C0232B81F50894811C911CA1
:100EC0002CC0232B19F0089481089108D801C70180
:100ED000E2E0880F991FAA1FBB1FEA95D1F7E80E21
:100EE000F91E0A1F1B1FEE0CFF1C001F111FE40E32
:100EF000F11C011D111D88E9E81689E9F80689E948
:100F0000080789E1180748F0E4E0CE2A06C04E3F02
:100F100031F4C3FC3AC0F8E0CF2AD990BFCF4533B3
:100F200011F0453191F589918D3219F480E1C82A8B
:100F300005C08B3219F021E030E003C0899122E036
:100F400030E0482F40534A3018F420E030E007C02A
:100F5000C21BD30B1AC0ECE020383E075CF4C90179
:100F6000880F991F880F991F280F391F220F331FD1
:100F7000240F311D499140534A3068F3C4FE03C029
:100F8000309521953F4F820E931EDD2492E0692E0D
:100F9000712C6C207D20C1FE07C0A114B10421F08A
:100FA0002197F501D183C083C801B7010E94180AB7
:100FB0007B018C01C0FE06C0672821F017FB10954D
:100FC00017F910955701680120E030E040E050E04B
:100FD000C801B7010E94140A882309F43DC097FE96
:100FE00009C0CBE9D0E0909481949108939400E2F9
:100FF00010E010C0C3EBD0E0FACFFE01259135918F
:1010000045915491C601B5010E9436095B016C01FE
:10101000801A910A8016910684F715950795011597
:10102000110511F02497F6CF860175018C2D880FDC
:101030008D2D881F8F3F51F020E030E040E050E0E0
:10104000C601B5010E94140A882331F482E290E0BF
:101050009093590280935802C801B701EEE0CDB7D2
:10106000DEB70C94780AFB01DC014150504088F057
:101070008D9181341CF08B350CF4805E6591613468
:101080001CF06B350CF4605E861B611171F3990BDB
:101090000895881BFCCF5058BB27AA270ED0A8C0A4
:1010A00099D030F09ED020F031F49F3F11F41EF41F
:1010B0008EC00EF4E095E7FB84C0E92FAAD080F340
:1010C000BA17620773078407950718F071F49EF545
:1010D000C2C00EF4E0950B2EBA2FA02D0B01B90162
:1010E00090010C01CA01A0011124FF27591B99F09E
:1010F000593F50F4503E68F11A16F040A22F232FAA
:10110000342F4427585FF3CF469537952795A795F9
:10111000F0405395C9F77EF41F16BA0B620B730BA0
:10112000840BBAF09150A1F0FF0FBB1F661F771F11
:10113000881FC2F70EC0BA0F621F731F841F48F4C6
:10114000879577956795B795F7959E3F08F0B3CF4C
:101150009395880F08F09927EE0F97958795089536
:1011600004D06894B11178C008955BD088F09F577F
:1011700090F0B92F9927B751A0F0D1F0660F771FE3
:10118000881F991F1AF0BA95C9F712C0B13081F0C3
:1011900062D0B1E008955FC0672F782F8827B85FCD
:1011A00039F0B93FCCF3869577956795B395D9F724
:1011B0003EF490958095709561957F4F8F4F9F4F2E
:1011C000089597F99F6780E870E060E008959FEFC9
:1011D00080EC089500240A941616170618060906CE
:1011E000089500240A94121613061406050608959D
:1011F000092E0394000C11F4882352F0BB0F40F425
:10120000BF2B11F460FF04C06F5F7F4F8F4F9F4F64
:10121000089557FD9058440F551F59F05F3F71F0E6
:101220004795880F97FB991F61F09F3F79F087954D
:101230000895121613061406551FF2CF4695F1DFD6
:1012400008C0161617061806991FF1CF8695710566
:10125000610508940895E894BB2766277727CB019A
:1012600097F9089566D008F48FEF08950BD0C0CF9A
:10127000B1DF28F0B6DF18F0952309F0A2CFA7CF91
:101280001124EACFC6DFA0F3959FD1F3950F50E06C
:10129000551F629FF001729FBB27F00DB11D639F28
:1012A000AA27F00DB11DAA1F649F6627B00DA11DCE
:1012B000661F829F2227B00DA11D621F739FB00D74
:1012C000A11D621F839FA00D611D221F749F3327E4
:1012D000A00D611D231F849F600D211D822F762F7D
:1012E0006A2F11249F5750408AF0E1F088234AF07A
:1012F000EE0FFF1FBB1F661F771F881F91505040C6
:10130000A9F79E3F510570F05CCFA6CF5F3FECF38D
:10131000983EDCF3869577956795B795F795E795B1
:101320009F5FC1F7FE2B880F911D9695879597F9C2
:101330000895990F0008550FAA0BE0E8FEEF161666
:101340001706E807F907C0F012161306E407F507B9
:1013500098F0621B730B840B950B39F40A2661F02D
:10136000232B242B252B21F408950A2609F4A140D0
:10137000A6958FEF811D811D089597FB092E0726E5
:101380000AD077FD04D02ED006D000201AF4709534
:1013900061957F4F0895F6F7909581959F4F089539
:1013A000A1E21A2EAA1BBB1BFD010DC0AA1FBB1F69
:1013B000EE1FFF1FA217B307E407F50720F0A21BDB
:1013C000B30BE40BF50B661F771F881F991F1A9448
:1013D00069F760957095809590959B01AC01BD0172
:1013E000CF010895AA1BBB1B51E107C0AA1FBB1F59
:1013F000A617B70710F0A61BB70B881F991F5A95A1
:10140000A9F780959095BC01CD010895EE0FFF1FBF
:101410000590F491E02D0994911147C0803219F0A4
:1014200089508550D0F7089584DF08F481E008954D
:10143000E89409C097FB3EF490958095709561956E
:101440007F4F8F4F9F4F9923A9F0F92F96E9BB2724
:101450009395F695879577956795B795F111F8CFA0
:10146000FAF4BB0F11F460FF1BC06F5F7F4F8F4F0B
:101470009F4F16C0882311F096E911C0772321F001
:101480009EE8872F762F05C0662371F096E8862F99
:1014900070E060E02AF09A95660F771F881FDAF7F0
:1014A000880F9695879597F9089599278827089525
:1014B0002F923F924F925F926F927F928F929F9264
:1014C000AF92BF92CF92DF92EF92FF920F931F9352
:1014D000CF93DF93CDB7DEB7CA1BDB0B0FB6F89403
:1014E000DEBF0FBECDBF09942A88398848885F8443
:1014F0006E847D848C849B84AA84B984C884DF80B4
:10150000EE80FD800C811B81AA81B981CE0FD11D97
:101510000FB6F894DEBF0FBECDBFED010895FFCF2B
:101520007374617274002E0031322E33343500082A
:0C1530000177BE8FBF20005A02000000AF
:00000001FF
