:020000040000FA
:0400000000000428D0
:0800080005281420FD227D23D0
:1000100083120313E80068080319102868085C229B
:1000200088206120072808005830831603138100B8
:10003000023083129F0083168501023086008312EE
:100040009501FF30831692000730831292009701CA
:1000500083168C0183128B018C010C30831699005E
:10006000043098008030831298008316981683120B
:10007000181683161C11811283128B1285018601BA
:1000800083120313AF01B001B101BC01BD01BE0178
:10009000BF01C001C101E830A7000330A800E8306B
:1000A000A9000330AA00B830A4000B30A500A601B7
:1000B000B2010130A3000A30AE00972100302522A2
:1000C0000800FF3083120313A407031CA503A51B1C
:1000D0006D2825082404031D8728B830A4000B30A0
:1000E000A5002608013CA600430803197B288312BB
:1000F0000313061087288312031326080319842884
:1001000083120313061487288312031306100800B2
:10011000FF3083120313A907031CAA03AA1B942808
:100120002A082904031D9A282708A9002808AA00DC
:100130009B2004220800831203134308031DDA28BE
:100140004508FF008030FF064B067F02031DAA28EA
:100150004A084402031CD928DB20CA0A0319CB0A27
:100160000130B3004608CC0747080318470FCD07F6
:100170004D084C04031DCD1BC5284408CC0245087E
:10018000031C450FCD020130B4004808CE074908D2
:100190000318490FCF074F084E04031DCF1BDA2861
:1001A0004408CE024508031C450FCF020130B500BC
:1001B000DA289721080083120313421EE52833082A
:1001C000A0003508B3002008B500C21DED28330893
:1001D000A0003408B3002008B40033080319F6283F
:1001E000421CF428AF03F528AF0AE92134080319AB
:1001F000FF28C21CFD28B003FE28B00ACA2135081A
:1002000003190829421D0629B1030729B10AA821AB
:10021000B301B401B50108008312031336083C0290
:10022000C4003D08C5003708031C370FC502380855
:100230003E02C6003F08C7003908031C390FC70239
:100240003A084002C8004108C9003B08031C3B0FA4
:10025000C902C2014508803E803E0318362901309C
:10026000C200C409C509C40A0319C50A4708803E6B
:10027000803E03184129C214C609C709C60A0319DA
:10028000C70A4908803E803E03184C294215C80918
:10029000C909C80A0319C90A4508FF008030FF06CA
:1002A00047067F02031D56294608440203186529A4
:1002B000C2154408A1004508A2004608C40047082A
:1002C000C5002108C6002208C7004508FF0080308D
:1002D000FF0649067F02031D6F29480844020318E0
:1002E0007E2942164408A1004508A2004808C4001F
:1002F0004908C5002108C8002208C900CA01CB016D
:10030000B301B401B5010310C51B0314450CE4008F
:10031000440CE3006309CC006409CD00CC0A031946
:10032000CD0A4C08CE004D08CF00C301080083124F
:1003300003133C08B6003D08B7003E08B8003F086C
:10034000B9004008BA004108BB000130C3000800F2
:1003500001303222033083120313B105B11CB429DA
:1003600001303106E700B6293108E7003F30B20519
:10037000670EF039E7000310E70D0310E70D67087B
:10038000B2043208831203138500831203132E086C
:10039000AD00080001304022033083120313B00582
:1003A000B01CD62901303006E600D8293008E60016
:1003B000F330B2050310E60D0310E60D6608B20433
:1003C0003208831203138500831203132E08AC0036
:1003D000080001304E22033083120313AF05AF1C17
:1003E000F52901302F06E500F7292F08E500FC303C
:1003F000B2056508B2043208831203138500831224
:1004000003132E08AB00080083120313AB032B0861
:10041000031D102A00304E22013083120313AB005B
:10042000AC032C08031D1A2A00304022013083122D
:100430000313AC00AD032D08031D242A0030322223
:10044000013083120313AD00080083120313E4008C
:100450004E2283120313640840228312031364089C
:100460003222080083120313E300630803193C2AB5
:100470008312031386123F2A831203138616080081
:1004800083120313E300630803194A2A8312031338
:1004900006134D2A83120313061708008312031351
:1004A000E30063080319582A8312031386135B2A97
:1004B000831203138617080083120313E200303AF5
:1004C0000319F62A6208313A0319F32A6208443AFA
:1004D0000319B42A6208453A03199D2A6208493A69
:1004E0000319EC2A62084C3A0319B22A62084E3A00
:1004F0000319DA2A6208583A0319A02A6208593AFD
:100500000319A62A62085A3A0319AC2A6208643A07
:100510000319D22A6208653A03199B2A6208693ACC
:100520000319E92A6208703A0319BE2A6208763A6A
:100530000319EF2AF92AA301FB2A0130A300FB2AA1
:1005400012232108BC002208BD00FB2A1223210827
:10055000BE002208BF00FB2A12232108C000220887
:10056000C100FB2A0C21FB2A12232108A700220824
:10057000A8002708A9002808AA00FB2A3608A1001D
:100580003708A2003D23831203133808A10039085D
:10059000A2003D23831203133A08A1003B08A200E6
:1005A0003D23FB2A831203132708A1002808A20079
:1005B0003D23FB2A831203133C08B6003D08B70015
:1005C0003E08B8003F08B9004008BA004108BB0027
:1005D000FB2A2E084B23FB2A1D23AE00FB2A4308CF
:1005E000E2004B23FB2A01302522FB2A0030252282
:1005F000FB2A3F30B423FD22080083120313230893
:100600000319072B08233E30B4232030B4230800FD
:100610008312031323080319112B0D30B4230A305E
:10062000B42308001D23E000E100A200A1011D2366
:10063000E000A1040030A20408007323DE003A3079
:100640005E02031C262BA930DE072A2BD030831232
:100650000313DE07732383120313DF003A305F02B4
:10066000031C352BA930DF07372BD030DF075E0E98
:10067000F039DE00DF045F0808008312031322084C
:10068000DC00DD01DC1BDD03DD015C084B23210800
:10069000DC004B23080083120313DA005A0E0F39D3
:1006A000DB000A305B02031C592B57305B07B42375
:1006B0005E2B3030831203135B07B4230F30831299
:1006C00003135A05DB000A305B02031C6C2B573006
:1006D0005B07DA00B423722B303083120313DB077D
:1006E0005B08B42308007D2383120313D800D900CC
:1006F00058080319732B59080800831203138C1A26
:10070000832B00308F2B1A0883120313D700230882
:1007100003198C2B5708B4238312031357080800BE
:1007200083120313D2007F08D100D301530851076D
:10073000D4005208D5000318D50A540884000008D4
:10074000D6000319B32B5308D400D30A5408510719
:10075000D4005208D5000318D50A540884000008B4
:10076000D600B423962B080083120313D0008316FF
:100770000313981CB72B831203135008831203131F
:0407800099000800D4
:02400E00103F61
:00000001FF
