:100000000C9499000C94C1000C94C1000C94C10094
:100010000C94C1000C94C1000C94C1000C94C1005C
:100020000C94C1000C94C1000C94C1000C94C1004C
:100030000C94C1000C94C1000C94C1000C94C1003C
:100040000C9422130C94C1000C94FF110C94C10069
:100050000C94C1000C94C1000C94C1000C94C1001C
:100060000C94C1000C94C1000829573F9F2D49CB27
:10007000A5310F76C73493F27E37D00D013AB60B17
:10008000613D2AAAAB3F0000003F800000004120F4
:10009000000042C80000461C40004CBEBC205A0E66
:1000A0001BCA749DC5AE3DCCCCCD3C23D70A38D1FC
:1000B000B717322BCC7724E695950A4FB11F083B32
:1000C0003BD74ABC846E023D2FC1FEBD9A31743DC0
:1000D000DA3D83BE117FC73E4CBBE5BEAAAA6C3F8A
:1000E00080000000000024272A000025282B0000A3
:1000F0002326290404040404040404020202020264
:1001000002030303030303010204081020408001DB
:10011000020408102001020408102000000007005B
:1001200002010000030406000000000000000000BF
:10013000841111241FBECFEFD4E0DEBFCDBF11E08C
:10014000A0E0B1E0ECE4F5E302C005900D92A43824
:10015000B107D9F713E0A4E8B1E001C01D92AE30B9
:10016000B107E1F711E0C2E3D1E004C02297FE013C
:100170000E948F1AC033D107C9F70E94B4100C94A3
:10018000A51A0C94000090930E0280930D02AA27EA
:1001900097FDA095BA2FBC01CD010E9414172DEC3C
:1001A0003CEC4CE85FE30E9422180E94F716709323
:1001B000100260930F0208950E9422180E94F71601
:1001C000089560E08FE00E94B11460E08FE00E942B
:1001D000B11460E08FE00E94B114089520911D02D7
:1001E00030911E0240911F0250912002609129021D
:1001F00070912A0280912B0290912C020E9431175B
:10020000882351F52091210230912202409123024E
:100210005091240260912D0270912E0280912F0244
:10022000909130020E9431178823B1F42091250269
:1002300030912602409127025091280260913102AC
:100240007091320280913302909134020E943117F2
:10025000882311F460E001C061E08FE00E94B114D6
:1002600020912102309122024091230250912402D8
:1002700060912D0270912E0280912F029091300298
:100280000E943117882351F520911D0230911E02E2
:1002900040911F02509120026091290270912A0220
:1002A00080912B0290912C020E9431178823B1F487
:1002B0002091250230912602409127025091280278
:1002C0006091310270913202809133029091340238
:1002D0000E943117882311F460E001C061E08FE0D3
:1002E0000E94B114209125023091260240912702EC
:1002F0005091280260913102709132028091330254
:10030000909134020E943117882351F520911D02EB
:1003100030911E0240911F025091200260912902EB
:1003200070912A0280912B0290912C020E94311729
:100330008823B1F4209121023091220240912302BE
:100340005091240260912D0270912E0280912F0213
:10035000909130020E943117882311F460E001C0AF
:1003600061E08FE00E94B11408952F923F924F9266
:100370005F926F927F928F929F92AF92BF92CF9235
:10038000DF92EF92FF920F931F93CF93DF93CDB73E
:10039000DEB7A0970FB6F894DEBF0FBECDBF809139
:1003A000290290912A02A0912B02B0912C028D8FEC
:1003B0009E8FAF8FB8A380911D0290911E02A091D5
:1003C0001F02B0912002898F9A8FAB8FBC8F9C0146
:1003D000AD016D8D7E8D8F8D98A10E941A167B01C7
:1003E0008C0120E030E040E050E00E943417181605
:1003F00024F017FB109517F91095E0923502F09252
:100400003602009337021093380280912D029091AA
:100410002E02A0912F02B09130028D8B9E8BAF8B5C
:10042000B88F8091210290912202A0912302B09175
:100430002402898B9A8BAB8BBC8B9C01AD016D899F
:100440007E898F89988D0E941A167B018C0120E08D
:1004500030E040E050E00E943417181624F017FBFB
:10046000109517F91095E0923902F0923A02009334
:100470003B0210933C028091310290913202A09194
:100480003302B09134028D879E87AF87B88B8091FD
:10049000250290912602A0912702B0912802898717
:1004A0009A87AB87BC879C01AD016D857E858F8562
:1004B00098890E941A167B018C0120E030E040E010
:1004C00050E00E943417181624F017FB109517F906
:1004D0001095E0923D02F0923E0200933F0210938D
:1004E0004002E0906F01F090700100917101109155
:1004F0007201298D3A8D4B8D5C8DC801B7010E9428
:1005000022180E94F7160E9414171B012C016093F9
:1005100041027093420280934302909344026090A0
:100520007301709074018090750190907601298913
:100530003A894B895C89C401B3010E9422180E9448
:10054000F7160E9414176D837E838F8398876093BC
:100550004502709346028093470290934802A09010
:100560007701B0907801C0907901D0907A01298507
:100570003A854B855C85C601B5010E9422180E9410
:10058000F7160E94141769837A838B839C83609388
:10059000490270934A0280934B0290934C022D8D36
:1005A0003E8D4F8D58A1C801B7010E9422180E94AC
:1005B000F7160E9414177B018C0160934D02709313
:1005C0004E0280934F02909350022D893E894F89AD
:1005D000588DC401B3010E9422180E94F7160E9490
:1005E00014173B014C0160935102709352028093A7
:1005F0005302909354022D853E854F855889C6013C
:10060000B5010E9422180E94F7160E9414175B0180
:100610006C01609355027093560280935702909339
:100620005802A2019101C801B7010E941A167B016C
:100630008C0120E030E040E050E00E9434171816B2
:1006400024F017FB109517F91095E0925902F092DB
:100650005A0200935B0210935C022D813E814F8110
:100660005885C401B3010E941A167B018C0120E059
:1006700030E040E050E00E943417181624F017FBD9
:10068000109517F91095E0925D02F0925E020093CA
:100690005F021093600229813A814B815C81C6011F
:1006A000B5010E941A167B018C0120E030E040E089
:1006B00050E00E943417181624F017FB109517F914
:1006C0001095E0926102F09262020093630210932F
:1006D000640210E0298D3A8D4B8D5C8D6D8D7E8D81
:1006E0008F8D98A10E94341788230CF011E010938D
:1006F0007F011092800129893A894B895C896D8933
:100700007E898F89988D0E94341788231CF081E0A0
:10071000809380011092810129853A854B855C8503
:100720006D857E858F8598890E94341788231CF0FB
:1007300081E080938101612F83E00E94B114609178
:10074000800187E00E94B1146091810182E10E94E2
:10075000B114A0960FB6F894DEBF0FBECDBFDF91E7
:10076000CF911F910F91FF90EF90DF90CF90BF90AE
:10077000AF909F908F907F906F905F904F903F9041
:100780002F900895EF92FF920F931F9360931D0295
:1007900070931E0280931F029093200220932102E7
:1007A000309322024093230250932402E0922502C8
:1007B000F092260200932702109328020E94B501AE
:1007C0001F910F91FF90EF900895EF92FF920F937A
:1007D0001F936093290270932A0280932B029093B7
:1007E0002C0220932D0230932E0240932F0250931F
:1007F0003002E0923102F092320200933302109301
:1008000034020E94B5011F910F91FF90EF9008955F
:1008100080936E01682F8CE00E94B11408952F928E
:100820003F924F925F926F927F928F929F92AF9280
:10083000BF92CF92DF92EF92FF920F931F93CF93CD
:10084000DF93CDB7DEB72C970FB6F894DEBF0FBE9F
:10085000CDBF69877A878B879C872090350230903F
:1008600036024090370250903802809139029091C0
:100870003A02A0913B02B0913C028D839E83AF83EC
:10088000B88780913D0290913E02A0913F02B091C5
:10089000400289839A83AB83BC8360905902709035
:1008A0005A0280905B0290905C02A0905D02B09032
:1008B0005E02C0905F02D0906002A6019501C40163
:1008C000B3010E943417E0906102F090620200913F
:1008D00063021091640218165CF4A4019301C8012C
:1008E000B7010E94341718165CF0C401B3010DC0A3
:1008F000A6019501C801B7010E94341718161CF40F
:10090000C801B70102C0C601B5010E94F7165B011C
:100910006C01A2019101C201B1010E9422187B0168
:100920008C012D813E814F815885CA01B9010E94F9
:1009300022189B01AC01C801B7010E941B167B0164
:100940008C0129813A814B815C81CA01B9010E94E5
:1009500022189B01AC01C801B7010E941B160E941E
:100960007D1820EC31EE44E65CE40E9422182985D3
:100970003A854B855C850E94B1167B018C01C601CE
:10098000B5010E9414179B01AC01C801B7010E9478
:10099000B1160E94F7162C960FB6F894DEBF0FBE64
:1009A000CDBFDF91CF911F910F91FF90EF90DF901E
:1009B000CF90BF90AF909F908F907F906F905F90FF
:1009C0004F903F902F90089520E030E040E050E0BD
:1009D0006091610270916202809163029091640261
:1009E0000E94341718163CF460E070E088E492E44A
:1009F0000E940F04089560E070E08AE794E40E948A
:100A00000F0408951F93182F0E946514892B11F469
:100A100020E007C0812F0E94651420E0892B09F097
:100A200021E0822F99271F910895CF92DF92EF92B4
:100A3000FF920F931F93D62EE216F30604071507B5
:100A400061F00E940205882359F0CC2049F405C0CA
:100A500080E090E0CC2059F408C080E090E007C02E
:100A60008D2D0E940205882399F781E090E01F9167
:100A70000F91FF90EF90DF90CF9008951F93182F64
:100A800061E00E94B11485E090E00E94811360E073
:100A9000812F0E94B1141F9108950E94E10080E00F
:100AA00090E0A0E0B0E080931D0290931E02A0931E
:100AB0001F02B09320028093210290932202A09300
:100AC0002302B09324028093250290932602A093E0
:100AD0002702B09328028093290290932A02A093C0
:100AE0002B02B0932C0280932D0290932E02A093A0
:100AF0002F02B09330028093310290933202A09380
:100B00003302B093340261E082E00E94471461E056
:100B100083E00E94471461E08FE00E94471460E088
:100B200084E00E94471460E089E00E94471461E07D
:100B30008AE00E94471461E087E00E94471461E068
:100B40008FE00E94471460E088E00E94471460E054
:100B50008DE00E94471461E083E10E94471461E048
:100B600082E10E94471461E08FE00E94471460E038
:100B700081E10E94471460E080E10E9447140E94D6
:100B8000B5010895AF92BF92CF92DF92EF92FF929C
:100B90000F931F93CF93DF93CDB7DEB722970FB696
:100BA000F894DEBF0FBECDBF8C017B016A015901F5
:100BB0004AE050E0BE016F5F7F4F0E94FC14298124
:100BC0003A81201B310B121613065CF4F701718376
:100BD0006083F601808191818A299B29918380839A
:100BE00003C0F70111821082C90122960FB6F89452
:100BF000DEBF0FBECDBFDF91CF911F910F91FF9050
:100C0000EF90DF90CF90BF90AF900895AF92BF92DA
:100C1000CF92DF92EF92FF920F931F93CF93DF93C8
:100C2000CDB7DEB722970FB6F894DEBF0FBECDBFAB
:100C30008C017B016A015901BE016F5F7F4F0E94E9
:100C4000C11829813A81201B310B121613066CF44E
:100C5000F7016083718382839383F60180819181A0
:100C60008A299B299183808309C080E090E0A0E0DD
:100C7000B0E0F70180839183A283B383C9012296F8
:100C80000FB6F894DEBF0FBECDBFDF91CF911F919D
:100C90000F91FF90EF90DF90CF90BF90AF900895AD
:100CA0002F923F924F925F926F927F928F929F927C
:100CB000AF92BF92CF92DF92EF92FF920F931F936A
:100CC000CF93DF93CDB7DEB760970FB6F894DEBF52
:100CD0000FBECDBF988B8F876B015A834983FC0170
:100CE00011821082EE24FF243696FC83EB838B0165
:100CF0000F5F1F4F0A969E838D83EF85F8893E967E
:100D0000F887EF838F85988942969A878987EF8540
:100D1000F889BA96FC87EB878F85988986969E8797
:100D20008D8746E1242E312CEF85F8892E0E3F1E4B
:100D30003AE1432E512C4E0E5F1E24E0622E712CA0
:100D40006E0E7F1E9EE1892E912C8E0E9F1E82E0DC
:100D5000A82EB12CAE0EBF1E80C0F601EE0DFF1DF9
:100D6000E081E035A9F1E1358CF4E93409F44CC0B7
:100D7000EA3434F4E63409F453C0E734A9F417C074
:100D8000EA3409F447C0ED3479F417C0E83539F195
:100D9000E93534F4E13509F450C0E23529F446C0B0
:100DA000E93521F1EA3549F180E090E051C021E0D8
:100DB00030E04F855889B50105C022E030E04F850D
:100DC0005889B301C8018E0D9F1D0E94C20540C005
:100DD00024E030E04F8558896B817C8134C028E065
:100DE00030E04F8558896D817E812DC020E130E053
:100DF0004F8558896F81788526C020E230E04F8585
:100E0000588969857A851FC020E430E04F8558896C
:100E1000B10119C020E830E04F855889B20113C0F4
:100E200020E032E04F855889B4010DC020E030E168
:100E30004F8558896D857E8506C020E038E04F8556
:100E400058896B857C85C8018E0D9F1D0E94060602
:100E50000894E11CF11CE80EF91E89819A81E816BC
:100E6000F9060CF47ACF60960FB6F894DEBF0FBE89
:100E7000CDBFDF91CF911F910F91FF90EF90DF9049
:100E8000CF90BF90AF909F908F907F906F905F902A
:100E90004F903F902F90089580E090E004C0FF278E
:100EA000EC57FE4F1082E82F019681389105B9F773
:100EB0001092040210920C020E94471360930702E2
:100EC000709308028093090290930A02089599276B
:100ED000BC0185E00E94F31308959927BC018BE0C3
:100EE0000E94F313089585E190E00E94C30061E041
:100EF0008CE00E94471461E08BE00E94471461E09F
:100F000086E00E94471461E085E00E94471461E09A
:100F10008CE00E94B11460E070E085E00E94F31361
:100F200060E070E086E00E94F31360E070E08BE028
:100F30000E94F31308950F931F93CF93DF93082F0D
:100F4000C0E0D0E010E0802F0E94D813C80FD91F56
:100F50001F5F1530C1F7CE0165E070E00E94F21905
:100F6000CB01DF91CF911F910F9108958FEF0E94D8
:100F70009B07AA2797FDA095BA2FBC01CD010E941F
:100F8000141720E030E040EA50E40E94221820E0EC
:100F900030E048EC52E40E94221820E030E040E8C3
:100FA0005AE30E9422180E94F716DC01CB01089533
:100FB0000F931F9380E00E949B07AC01EEE1F1E0EC
:100FC000A1E0B0E060817181461757074CF5AA0F88
:100FD000BB1FAA0FBB1FFD01EA5EFE4F02811381FA
:100FE00020813181421B530BA65EBE4FFD018281E1
:100FF0009381801B910B621B730B9C01429FC0016C
:10100000439F900D529F900D11240E94F219600F82
:10101000711F6F3F710559F054F06FEF70E007C01A
:1010200011963496A431B10569F660E070E0CB0109
:101030001F910F9108950E94D80708950E941B08E0
:101040009C0180910D0290910E02281739071CF423
:1010500060916D0109C080910F02909110022817D4
:10106000390724F460916C01772702C060E070E0DA
:1010700086E00E94F31308953F924F925F926F9221
:101080007F928F929F92AF92BF92CF92DF92EF9218
:10109000FF920F931F93CF93DF93CDB7DEB72897BF
:1010A0000FB6F894DEBF0FBECDBF6D837E838F83F6
:1010B00098870E94EE00A0905902B0905A02C0900A
:1010C0005B02D0905C02E0905D02F0905E020091C5
:1010D0005F0210916002A8019701C601B5010E944C
:1010E000341718161CF4C601B50102C0C801B701B7
:1010F0000E94F71660936E0270936F0280937002E5
:1011000090937102A0906102B0906202C09063025D
:10111000D09064020E9414177B018C019B01AC01EA
:10112000C601B5010E94341718161CF4C601B5019A
:1011300002C0C801B7010E94F71660936E02709357
:101140006F02809370029093710222E030E040E0E1
:1011500050E00E94271A442455243201421A530AAF
:10116000640A750A2D813E814F8158852F3F8FE398
:10117000380780E0480780E058076CF0CA01B901E1
:1011800028EE33E040E050E00E94271A30938202BC
:101190002093810204C010928202109281025301B6
:1011A000420149825A826B827C8260914D02709129
:1011B0004E0280914F02909150020E94F7167B01DF
:1011C0008C016091410270914202809143029091A2
:1011D00044020E94F7169B01AC01C0907F0169E0B8
:1011E00084E00E941505382E6091510270915202E0
:1011F00080915302909154020E94F7167B018C015A
:101200006091450270914602809147029091480298
:101210000E94F7169B01AC01C09080016DE088E050
:101220000E941505D82E609155027091560280914A
:101230005702909158020E94F7167B018C01609131
:10124000490270914A0280914B0290914C020E9497
:10125000F7169B01AC01C090810160E181E10E9421
:101260001505182F332009F44FC0C301B2010E94A5
:1012700014172091590230915A0240915B0250910B
:101280005C020E941B160E94F7162B013C011616E9
:10129000170618061906C4F582E00E943E058091E3
:1012A0006E0290916F02A0917002B0917102481A83
:1012B000590A6A0A7B0A80917F01882379F020E02D
:1012C00030E040E85FE3609141027091420280911A
:1012D0004302909144020E941B160EC020E030E0B1
:1012E00040E85FE3609141027091420280914302C5
:1012F000909144020E941A16609341027093420238
:101300008093430290934402DD2009F45CC069811C
:101310007A818B819C810E94141720915D0230910B
:101320005E0240915F02509160020E941B160E9473
:10133000F71669837A838B839C8316161706180623
:1013400019060CF040C08AE00E943E0580916E02B2
:1013500090916F02A0917002B091710229813A813F
:101360004B815C81281B390B4A0B5B0B29833A8329
:101370004B835C8380918001882379F020E030E00A
:1013800040E85FE360914502709146028091470218
:10139000909148020E941B160EC020E030E040E809
:1013A0005FE36091450270914602809147029091FF
:1013B00048020E941A166093450270934602809379
:1013C000470290934802112309F44FC0C501B401AC
:1013D0000E941417209161023091620240916302D1
:1013E000509164020E941B160E94F7164B015C018B
:1013F0001616170618061906C4F583E10E943E0565
:1014000080916E0290916F02A0917002B091710272
:10141000881A990AAA0ABB0A80918101882379F067
:1014200020E030E040E85FE36091490270914A02B9
:1014300080914B0290914C020E941B160EC020E03E
:1014400030E040E85FE36091490270914A02809188
:101450004B0290914C020E941A16609349027093BD
:101460004A0280934B0290934C020E941E086091A6
:10147000810270918202161617063CF4882777FDC8
:101480008095982F0E945F1304C08D819E810E94D9
:101490008113332009F089CEDD2009F086CE112397
:1014A00009F083CE8091290290912A02A0912B020B
:1014B000B0912C0280931D0290931E02A0931F02F4
:1014C000B093200280912D0290912E02A0912F02C4
:1014D000B09130028093210290932202A0932302C4
:1014E000B09324028091310290913202A091330294
:1014F000B09134028093250290932602A093270294
:10150000B09328020E94B50128960FB6F894DEBF6A
:101510000FBECDBFDF91CF911F910F91FF90EF9044
:10152000DF90CF90BF90AF909F908F907F906F9003
:101530005F904F903F9008952F923F924F925F920D
:101540006F927F928F929F92AF92BF92CF92DF92D3
:10155000EF92FF920F931F93CF93DF93CDB7DEB738
:10156000CB55D0400FB6F894DEBF0FBECDBFFC0107
:10157000AB0180818F3209F449C5BF01CE010196CC
:101580000E945006E980FA80E0FEA7C40B811C810E
:10159000109383010093820180912502909126028D
:1015A000A0912702B09128028FA798ABA9ABBAAB44
:1015B0002090210230902202409023025090240279
:1015C000A0901D02B0901E02C0901F02D090200279
:1015D0009091650268969FAF6897C7018870907078
:1015E0006896AFAD6897AA2349F1892B29F4ABAE71
:1015F000BCAECDAEDEAE08C08B859C85AD85BE850C
:101600008BAF9CAFADAFBEAFE4FC07C023962CAE52
:101610003DAE4EAE5FAE23970AC08F859889A989EB
:10162000BA8923968CAF9DAFAEAFBFAF2397E5FECF
:1016300042C08B899C89AD89BE8941C0892B29F420
:10164000ABAEBCAECDAEDEAE0CC02B853C854D85C1
:101650005E85C601B5010E941B166BAF7CAF8DAFD6
:101660009EAFE4FC07C023962CAE3DAE4EAE5FAEFF
:1016700023970EC02F85388949895A89C201B10143
:101680000E941B1623966CAF7DAF8EAF9FAF239742
:10169000E5FE11C02B893C894D895E896FA578A92B
:1016A00089A99AA90E941B1627966CAF7DAF8EAFB1
:1016B0009FAF27970AC08FA598A9A9A9BAA927966D
:1016C0008CAF9DAFAEAFBFAF2797F1FE0CC08F8D33
:1016D00098A1A9A1BAA18093660290936702A093F2
:1016E0006802B09369020531110509F480C2063120
:1016F00011059CF4043011053CF4023011050CF086
:101700005DC017FF27C0D7C30430110509F437C2E5
:101710000431110509F0CFC345C2043511056CF43D
:10172000013511050CF0BDC20C31110509F4A4C23C
:101730000E31110509F0BFC389C20B35110509F43B
:10174000A6C30C35110509F4A5C30A35110509F026
:10175000B2C399C32796ECACFDAC0EAD1FAD279775
:1017600023962CAD3DAD4EAD5FAD23976BAD7CADFB
:101770008DAD9EAD0E94E5038B819C81019759F44C
:10178000609166027091670280916802909169028F
:101790000E940F0402C00E94E40460936A027093E6
:1017A0006B0280936C0290936D0260916A0270915B
:1017B0006B0280916C0290916D0270C2E6FC05C0D4
:1017C000ABAABCAACDAADEAA0CC02F89388D498D40
:1017D0005A8DC601B5010E941B166BAB7CAB8DAB5D
:1017E0009EABE7FE0CC02B8D3C8D4D8D5E8DC201F6
:1017F000B1010E941B166FAB78AF89AF9AAF2BA9CE
:101800003CA94DA95EA9C601B5010E941A162F96E2
:101810006CAF7DAF8EAF9FAF2F972FA938AD49AD7D
:101820005AADC201B1010E941A162B013C012BA92D
:101830003CA94DA95EA96BAD7CAD8DAD9EAD0E945E
:101840001A164B015C012FA938AD49AD5AAD23964C
:101850006CAD7DAD8EAD9FAD23970E941A166B01C6
:101860007C010230110599F4A50194010E945D16D6
:1018700067966CAF7DAF8EAF9FAF67972F962CADFD
:101880003DAD4EAD5FAD2F97C301B20114C02F9691
:101890002CAD3DAD4EAD5FAD2F97C301B2010E949F
:1018A0005D1667966CAF7DAF8EAF9FAF6797A50152
:1018B0009401C701B6010E945D167B018C016796F9
:1018C0002CAD3DAD4EAD5FAD67970E943117181638
:1018D00054F02BED3FE049EC50E4C801B7010E9401
:1018E0001B167B018C0167962CAD3DAD4EAD5FADF7
:1018F0006797C801B7010E941A1663966CAF7DAF57
:101900008EAF9FAF63972F962CAD3DAD4EAD5FADC3
:101910002F97CA01B9010E9422187B018C01A301F3
:101920009201C301B2010E9422189B01AC01C801BF
:10193000B7010E941B160E947D181B012C012AE989
:1019400039E949E150E463966CAD7DAD8EAD9FAD54
:1019500063970E9422187B018C0163962CAD3DADEC
:101960004EAD5FAD6397C201B1010E942218209174
:101970007B0130917C0140917D0150917E010E945C
:10198000B1165B016C019B01AC01C801B7010E945B
:101990003417181614F086017501C801B7010E94AA
:1019A00090160E94F7162B967FAF6EAF2B97A1E093
:1019B000B0E02996BFAFAEAF2997CB01AA2797FD1C
:1019C000A095BA2F6C968CAF9DAFAEAFBFAF6C97A2
:1019D000C9C08B819C81039729F429960EAD1FAD58
:1019E00029970AC02B960EAD1FAD2B972996AEAD49
:1019F000BFAD29970A1B1B0B6C966CAD7DAD8EADF0
:101A00009FAD6C970E9414175B016C01B801882789
:101A100077FD8095982F0E941417A60195010E94CA
:101A2000B1169B01AC0163966CAD7DAD8EAD9FADE3
:101A300063970E9422189B01AC0167966CAD7DAD47
:101A40008EAD9FAD67970E941B163B014C012FA5E1
:101A500038A949A95AA927966CAD7DAD8EAD9FAD29
:101A600027970E941A167B018C0129962EAD3FAD57
:101A70002997B901882777FD8095982F0E94141720
:101A80009B01AC01C801B7010E942218A601950173
:101A90000E94B1169B01AC016FA578A989A99AA9EA
:101AA0000E941B167B018C01C401B3010E946A18BD
:101AB0009B01AC01C201B1010E9422189B01AC0143
:101AC0006FA978AD89AD9AAD0E941B165B016C01C0
:101AD000C401B3010E94AB169B01AC01C201B1016C
:101AE0000E9422189B01AC016BA97CA98DA99EA91B
:101AF0000E941B16A60195010E94E503E090660274
:101B0000F0906702009168021091690220E030E0D5
:101B100040E050E0C801B7010E94341718162CF4B9
:101B2000C801B7010E940F0402C00E94E404609340
:101B30006A0270936B0280936C0290936D026091C5
:101B40006A0270916B0280916C0290916D020E940A
:101B50003C0829968EAD9FAD2997019629969FAF97
:101B60008EAF29972996AEADBFAD29972B962EAD96
:101B70003FAD2B972A173B070CF02BCFAEC120E0CF
:101B800030E04AE754E46F81788589859A850E9420
:101B900022180E94F716882777FD8095982F0E94BB
:101BA0005F139BC18CE092E2ABE4B3E480936F01DE
:101BB00090937001A0937101B093720180937301AF
:101BC00090937401A0937501B093760180E090E04A
:101BD000AEEFB5E48093770190937801A0937901FB
:101BE000B0937A0180E792E4A1EABCE324C08BE4DD
:101BF0009AEEAFEFB0E480936F0190937001A093E1
:101C00007101B09372018093730190937401A0935A
:101C10007501B093760180E090E0A0EAB3E4809390
:101C2000770190937801A0937901B0937A0180E0D5
:101C300090E0A0E0BFE380937B0190937C01A093B0
:101C40007D01B0937E010E94B50147C12796ECAC9F
:101C5000FDAC0EAD1FAD279723962CAD3DAD4EAD1F
:101C60005FAD23976BAD7CAD8DAD9EAD0E94E5035E
:101C70000E94E4040E943C080F2EF0E0EF2EF0E0FA
:101C8000FF2EF0E00F2FF0E01F2FF02DA80197019D
:101C9000C801B7010E94E5030E94E4040E943C08C9
:101CA0001CC16FA078A489A49AA468963FAD6897D8
:101CB000332351F42FA538A949A95AA9C401B30166
:101CC0000E941B163B014C01A40193016FA578A94A
:101CD00089A99AA90E943117882364F484017301A9
:101CE000A2019101C601B5010E94E5030E94E4042E
:101CF0000E943C08E0902502F09026020091270205
:101D00001091280223962CAD3DAD4EAD5FAD2397CB
:101D10006BAD7CAD8DAD9EAD0E94E5030E94E404E9
:101D20000E943C088B819C818335910529F42BA46A
:101D30003CA44DA45EA40CC027962CAD3DAD4EAD89
:101D40005FAD2797C401B3010E941A161B012C0135
:101D5000640153018601750123962CAD3DAD4EAD56
:101D60005FAD23976BAD7CAD8DAD9EAD0E94E5035D
:101D70000E94E4040E943C08A2019101C601B50141
:101D80000E941A165B016C0127962CAD3DAD4EAD3D
:101D90005FAD27970E943117882334F42796ACACA7
:101DA000BDACCEACDFAC27978601750123962CAD78
:101DB0003DAD4EAD5FAD23976BAD7CAD8DAD9EADB2
:101DC0000E94E503E0906602F090670200916802CD
:101DD0001091690220E030E040E050E0C801B70116
:101DE0000E94341718162CF4C801B7010E940F0482
:101DF00002C00E94E40460936A0270936B028093B5
:101E00006C0290936D0260916A0270916B028091F6
:101E10006C0290916D020E943C088B819C818235FE
:101E2000910591F420E030E04AE754E46F81788531
:101E300089859A850E9422180E94F716882777FDC7
:101E40008095982F0E945F138401730123962CAD17
:101E50003DAD4EAD5FAD23976BAD7CAD8DAD9EAD11
:101E60000E94E5030E94E4040E943C0827962CADE2
:101E70003DAD4EAD5FAD2797C601B5010E94341749
:101E800018165CF567CF81E08093650226C010923A
:101E9000650223C00F2EF0E0EF2EF0E0FF2EF0E001
:101EA0000F2FF0E01F2FF02DA8019701C801B701F7
:101EB0000E94C20312C063E071E083E892E00E94D6
:101EC00065114B815C81662757FD6095762F2AE06E
:101ED00030E083E892E00E94471129813A8121FF96
:101EE00095C08D819E818836910571F18936910565
:101EF00074F486369105F1F0873691050CF500975C
:101F000009F484C08536910509F06EC011C08A3687
:101F1000910509F456C08A3691050CF444C08B36FD
:101F2000910509F450C08C36910509F05DC04FC091
:101F300081E001C080E00E94080480916A0101C034
:101F400080E00E946D0762C032FF60C06BA17CA17F
:101F50008DA19EA10E94F716DC01CB010E94C30057
:101F6000AAE0EA2EA1E0FA2E03E812E012C00E94D5
:101F70001E08B701C8010E9465110E941B08BC0120
:101F8000C8010E945A1168EE73E080E090E00E9460
:101F90005F130E941B0820910D0230910E028217E0
:101FA00093072CF333C06AE071E083E892E00E946B
:101FB00065110E941B08BC0183E892E00E945A113F
:101FC00025C08FEF01C080E00E9467071FC032FF6D
:101FD0001DC06BA17CA18DA19EA10E94F7167093DC
:101FE0006B0160936A0112C06DE071E083E892E0DA
:101FF0000E9465114D815E81662757FD6095762FA1
:102000002AE030E083E892E00E94471160E071E04E
:1020100083E892E00E946911C55ADF4F0FB6F89429
:10202000DEBF0FBECDBFDF91CF911F910F91FF900B
:10203000EF90DF90CF90BF90AF909F908F907F9068
:102040006F905F904F903F902F9008951F930E9444
:102050001E0883E892E00E947A11882339F183E810
:1020600092E00E9477119C01182F109206021092A4
:1020700005028A30B9F0883219F481E080930B02AE
:1020800080910B02882351F480910402E82FFF27EE
:10209000EC57FE4F20838F5F80930402193211F4B6
:1020A00010920B0281E080930C0226C00E9447131D
:1020B00020910702309108024091090250910A02D2
:1020C000621B730B840B950B6436710581059105BA
:1020D00098F0809105029091060201969093060275
:1020E000809305020E9447136093070270930802D1
:1020F0008093090290930A0280910C02882389F050
:102100001A3031F08091050290910602892B49F036
:1021100060910402772784E891E00E949C0A0E9463
:102120004C0780910502909106020B9714F00E94D3
:10213000E1001F9108950F931F9303E812E040E020
:102140005BE460E070E0C8010E947E1164E171E030
:10215000C8010E9469110E944C070E944D050E940F
:1021600073071F910F910895CFEFD4E0DEBFCDBF6D
:102170000E948E130E949B100E942610FDCF08958E
:102180000895CB01BA013327442755270E944512F1
:1021900008952AE00E94C1100895AB0166277727B1
:1021A0000E94C9100895862F0E943D120895862F1F
:1021B0000E943D1208950F931F938C016DE00E94C1
:1021C000D7106AE0C8010E94D7101F910F9108959F
:1021D0000F931F938C010E94C910C8010E94DB104D
:1021E0001F910F9108950F931F938C010E94D3109C
:1021F000C8010E94DB101F910F9108950F931F9348
:102200008C010E94D710C8010E94DB101F910F9112
:102210000895EF92FF920F931F93CF93DF93EC01FA
:102220007A018B0177FF0BC06DE20E94D7101095E9
:102230000095F094E094E11CF11C011D111D2AE0B1
:10224000B801A701CE010E94C110DF91CF911F916B
:102250000F91FF90EF9008950F931F938C010E94B0
:102260000911C8010E94DB101F910F9108952115DB
:10227000310521F4642F0E94D71008952A303105CA
:1022800019F40E94091108950E94C11008950F9336
:102290001F938C010E943711C8010E94DB101F910F
:1022A0000F910895AB01662757FD6095762F0E9428
:1022B000091108950F931F938C010E945211C801B8
:1022C0000E94DB101F910F910895CB010E941513FE
:1022D00008950F931F938C010E946511C8010E94FD
:1022E000DB101F910F9108950E94F61108950E942E
:1022F000D71108950E94C61199270895CB01BA01FC
:102300000E948511089508950895EF92FF920F930A
:102310001F937B018C0122E030E040E050E00E94FE
:10232000271A205C3D4B404F5F4FCA01B901A801FD
:1023300097010E94271A2150304040405040BB274F
:1023400057FDBA95A52F942F832F2F5F3F4F4F4FE7
:102350005F4F8093C50021502093C400E1ECF0E072
:1023600080818061808380818860808380818068B3
:1023700080831F910F91FF90EF900895982F809187
:10238000C00085FFFCCF9093C60008958091840221
:102390009091850280589F4F20918602309187024C
:1023A000821B930B60E870E00E94F219089540913F
:1023B0008602509187028091840290918502841751
:1023C000950719F48FEF9FEF0895FA01E857FD4F35
:1023D0002081CA01019660E870E00E94F219909392
:1023E000870280938602822F992708958091860222
:1023F00090918702909385028093840208951F92A2
:102400000F920FB60F9211242F933F934F935F9328
:102410006F937F938F939F93AF93BF93EF93FF93AC
:102420004091C600E0918402F0918502CF010196AF
:1024300060E870E00E94F2199C0180918602909100
:1024400087022817390739F0E857FD4F408330934A
:10245000850220938402FF91EF91BF91AF919F91EC
:102460008F917F916F915F914F913F912F910F903D
:102470000FBE0F901F9018950895982F8091C0005F
:1024800085FFFCCF9093C60008952F923F924F9204
:102490005F926F927F928F929F92AF92BF92CF92F4
:1024A000DF92EF92FF920F931F93CF93DF93CDB7FD
:1024B000DEB7A0970FB6F894DEBF0FBECDBF6B019D
:1024C0007C0129013A01611571058105910541F4ED
:1024D0008091C00085FFFCCF80E38093C6004BC095
:1024E0008824992454011E010894211C311C810167
:1024F000080D191DC701B601A30192010E94051A1A
:10250000F80160830894811C911CA11CB11CC701B7
:10251000B601A30192010E94051A69017A012115F1
:1025200031054105510519F7089481089108A10862
:10253000B108F101E80DF91D0894811C911CA11C42
:10254000B11C14C0089481089108A108B1088081C9
:102550008A3018F4982F905D02C0982F995C809172
:10256000C00085FFFCCF9093C60031978114910481
:10257000A104B10439F7A0960FB6F894DEBF0FBEE0
:10258000CDBFDF91CF911F910F91FF90EF90DF9022
:10259000CF90BF90AF909F908F907F906F905F9003
:1025A0004F903F902F90089520E130E040E050E0C0
:1025B0000E944512089528E030E040E050E00E947B
:1025C0004512089522E030E040E050E00E944512BC
:1025D00008958091C00085FFFCCF8AE08093C600FB
:1025E0000895EF92FF920F931F937B018C0197FF49
:1025F0000FC08091C00085FFFCCF8DE28093C600A4
:1026000010950095F094E094E11CF11C011D111D42
:102610002AE030E040E050E0C801B7010E944512D6
:102620001F910F91FF90EF900895FC0107C08091DA
:10263000C00085FFFCCF31969093C600908199230E
:10264000B1F708951F920F920FB60F9211248F9336
:102650009F93AF93BF938091080390910903A0913A
:102660000A03B0910B030196A11DB11D80930803CD
:1026700090930903A0930A03B0930B03BF91AF910A
:102680009F918F910F900FBE0F901F9018956091A2
:1026900008037091090380910A0390910B0327E0CE
:1026A000660F771F881F991F2A95D1F72DE730E015
:1026B00040E050E00E94051ACA01B9010895AF92A6
:1026C000BF92CF92DF92EF92FF920F931F935B0125
:1026D0006C010E9447137B018C010E9447136E1905
:1026E0007F09800B910B6A157B058C059D05A8F36E
:1026F0001F910F91FF90EF90DF90CF90BF90AF9020
:102700000895019751F0880F991F880F991F02971C
:102710002FB7F8940197F1F72FBF0895789410928E
:1027200008031092090310920A0310920B0384B558
:10273000826084BD84B5816084BD85B5826085BDBD
:1027400085B5816085BDEEE6F0E0808181608083A3
:10275000E1E8F0E080818260808380818160808315
:10276000E0E8F0E0808181608083E1EBF0E080814F
:1027700084608083E0EBF0E0808181608083ECE71F
:10278000F0E080818F778083808180648083EAE7B6
:10279000F0E080818460808380818260808380819A
:1027A000816080838081806880831092C100089559
:1027B00090917C008F70907F892B80937C0080911A
:1027C0007A00806480937A0080917A0086FDFCCF45
:1027D00020917800809179009927982F88273327B6
:1027E000822B932B08951F93CF93DF93182FEB0128
:1027F00061E00E944714E12FFF27E55EFE4F8491C0
:10280000833051F480918000806880938000D09361
:102810008900C093880037C0843051F480918000D3
:10282000806280938000D0938B00C0938A002BC07D
:10283000813029F484B5806884BDC7BD24C082304E
:1028400029F484B5806284BDC8BD1DC0863041F4C2
:102850008091B00080688093B000C093B30013C033
:10286000873041F48091B00080628093B000C093C3
:10287000B40009C0C038D10514F460E001C061E0C3
:10288000812F0E94B114DF91CF911F910895282FBD
:102890003327C901895F9E4FFC0194912D503F4F12
:1028A000F9018491882381F0E82FFF27EC51FF4F35
:1028B000E491FF27662329F4808190958923808302
:1028C00008958081892B80830895482F5527CA0158
:1028D000855E9E4FFC012491CA01895F9E4FFC01D9
:1028E00094914D505F4FFA013491332319F480E0F5
:1028F00090E00895222331F1233021F4809180006B
:102900008F7705C0243031F4809180008F7D8093D3
:10291000800018C0213019F484B58F7704C02230AC
:1029200021F484B58F7D84BD0DC0263021F48091C3
:10293000B0008F7705C0273029F48091B0008F7DDB
:102940008093B000E32FFF27E251FF4FE491FF2770
:10295000808120E030E0892311F021E030E0C901DE
:102960000895482F5527CA01855E9E4FFC0124918A
:10297000CA01895F9E4FFC0194914D505F4FFA014F
:1029800034913323C1F1222331F1233021F480919A
:1029900080008F7705C0243031F4809180008F7DD6
:1029A0008093800018C0213019F484B58F7704C05B
:1029B000223021F484B58F7D84BD0DC0263021F4F2
:1029C0008091B0008F7705C0273029F48091B00046
:1029D0008F7D8093B000E32FFF27E751FF4FE491F5
:1029E000FF27662329F480819095892380830895A9
:1029F0008081892B80830895A0E0B0E0E2E0F5E1DA
:102A00000C94431A8C012B01EA016115710519F030
:102A1000FB0191838083209749F0CE010297839731
:102A200028F060E070E080E090E0F7C0F801E1900D
:102A30008F018E2D99270E94931A892BB9F7FDE2F9
:102A4000EF1631F4F801E1908F013324339407C07D
:102A5000FBE2EF1619F4F801E1908F01332420977F
:102A600019F0C031D105E1F4F0E3EF1679F4F80183
:102A70008081883711F0883549F4F801E1800E5FD4
:102A80001F4FF2E03F2AC0E1D0E00AC0209741F496
:102A900080E3E81619F4C8E0D0E002C0CAE0D0E054
:102AA000C830D10571F0C930D10524F4C230D10548
:102AB00019F50DC0CA30D10581F0C031D105E1F45E
:102AC00015C0A12CB12CC12CB0E1DB2E22C0A12C51
:102AD000B12CC12CA0E4DA2E1CC0FCECAF2EFCEC17
:102AE000BF2EFCECCF2EFCE0DF2E13C0A12CB12CAE
:102AF000C12CE8E0DE2E0DC09E01442737FD409535
:102B0000542F60E070E080E090E80E94051A5901BF
:102B10006A0120E030E040E050E060E03E018824BF
:102B200077FC8094982C70EDF72EFE0CE9E0EF1501
:102B300070F48E2D81548A3118F499ECF92E06C068
:102B40008E2D81568A3150F589EAF82EFE0C8F2D94
:102B500099278C179D0714F567FD1CC0A216B306B4
:102B6000C406D506B0F0CA01B901A40193010E94C0
:102B7000D3199B01AC012F0D311D411D511D213079
:102B8000F0E03F07F0E04F07F0E85F0710F461E086
:102B900001C06FEFF801E1908F01C5CF41145104DE
:102BA00081F0662331F001501040F201118300835F
:102BB00008C031FE1AC002501040F2011183008398
:102BC00014C067FF12C030FE05C020E030E040E0D6
:102BD00050E804C02FEF3FEF4FEF5FE782E290E055
:102BE00090930D0380930C0316C030FE08C05095DF
:102BF0004095309521953F4F4F4F5F4F0CC057FF89
:102C00000AC082E290E090930D0380930C032FEFB3
:102C10003FEF4FEF5FE7CA01B901E1E1CDB7DEB7A2
:102C20000C945F1A7AE0979F902D879F802D910DCD
:102C3000112408955058192EA7D101D057C1BA17A1
:102C40006207730784079507B1F188F40EF41094B6
:102C50000B2EBA2FA02D062E622F202D072E732F9C
:102C6000302D082E842F402D092E952F502DFF2713
:102C70005523B9F0591B49F0573E98F046953795C2
:102C80002795A795F0405395C9F776F0BA0F621FC4
:102C9000731F841F30F4879577956795B795F0403B
:102CA000939517FA0F2E0895BF1BBB27BA0B620B23
:102CB000730B840BF6CFDEF693C1552319F09923DD
:102CC00051F018C09923A1F097FB6BED7FE089ECE0
:102CD0009FE397F90895552359F02AF46BED7FE0AF
:102CE00089E490E40895662777278827992708952F
:102CF0000C948E171F93112797FD116057FD1260DA
:102D00000E94B1160E947B1911FF08C02BED3FE015
:102D100049E450E410FD50680E941B161F9108956D
:102D20004DD19F3770F43EF0992329F09FE380E85E
:102D300077276627089551C1869577956795B11DC8
:102D400093959639C8F32EF0BB2319F06F5F7F4F30
:102D50008F4FBB27CBC050E449EC3FE02BED6ED04A
:102D6000A2C012D101D0C2C0552359F0992369F0F5
:102D70009F575F57951B33F442F4903811F49158E4
:102D800005C0CCC091589F3F09F42AC1BB2711242C
:102D900062177307840730F4660F771F881FBB1F05
:102DA000915098F311D00F920FD00F920DD0A0E850
:102DB0002617370748071B0609F0A048BA2F602DD1
:102DC0007F918F9100240895A0E800246217730773
:102DD0008407B10528F0621B730B840BB1090A2A22
:102DE000660F771F881FBB1FA69581F7089597FB75
:102DF000D7D09F3738F0FEE9F91B982F872F762F11
:102E00006B2F05C0EAC09695879577956795F15029
:102E1000D0F73EF490958095709561957F4F8F4FD8
:102E20009F4F0895E89403C097FB0EF4F3DFB62F8D
:102E3000672F782F892F9EE9002458C05F7755238C
:102E400019F444230AF06AC02F933F934F935F9382
:102E500088DF55274427C6D05F914F913F912F912E
:102E6000F1C00ED05EF004C00BD026F001C008D037
:102E700019F020F48FEF089580E0089581E008951F
:102E800097FB092E052600F8689481D0E89407FC8A
:102E900007C0621773078407950721F008F40094B0
:102EA0000794989408951F939F7750EC49E43FE06E
:102EB0002BEDC1DE10E89F775FE349EC3FE02BED9F
:102EC000621773078407950720F050EC49E4B3DEDE
:102ED000112751D19068E8E6F0E023D091271F91A7
:102EE00008959A95BB0F661F771F881F1124992399
:102EF000A1F08823B2F79F3F59F0BB0F48F421F4AB
:102F0000002011F460FF04C06F5F7F4F8F4F9F4F11
:102F1000881F9795879597F908955FC09FEF80EC7C
:102F20000895FF92EF92DF92CF92BF926B017C01E6
:102F3000B59016D0B590BB2069F09F938F937F9387
:102F40006F93B601C7010CD02F913F914F915F91C4
:102F50000E94B116BF90CF90DF90EF90FF90089540
:102F6000F9D102C09601A701EF93FF930E942218A6
:102F7000FF91EF91EFD1EF93FF930E941B16FF910A
:102F8000EF91BA9479F70895052E092607FA440FB0
:102F9000551F5F3F79F0AA27A51708F051E0479524
:102FA000880F991F9F3F31F0BB27B91708F091E0B8
:102FB000879508959F919F911124B0CF97FB880F1B
:102FC000991F9F3F31F0BB27B91708F091E0879513
:102FD00008959F919F911124A1CF66277727882775
:102FE00099270895EBDFCF93DF93D52FC42F552773
:102FF0004427332722279923D9F09F37C8F0F92F88
:1030000075DF592F482F372F262FF63968F4EFDE5A
:103010000BDFC030CD0721F06993799389939993A1
:103020009058DF91CF9107CE992788277727662779
:10303000C030CD0721F02993399349935993DF91FB
:10304000CF9154CFA1DF01D051CF992339F055232F
:1030500029F09F575F57950F13F49AF1C1CF9158FC
:103060009F3FE1F3629FA12D0F92BB27639FA00DAD
:10307000B11DEE27729FA00DB11DEE1FAF93AA27C1
:10308000649FB00DE11D739FB00DE11DAA1F66275F
:10309000829FB00DE11DA61F5527749FE00DA11D55
:1030A000551F839FE00DA11D561F849FA00D511D2C
:1030B000852F7A2F6E2F1F900F9088231AF49395E7
:1030C00039F42CCF000C111CBB1F661F771F881F03
:1030D000012808959F939F77993358F050E449EC65
:1030E0003FE02BEDABDE5FEB49EC3FE02BEDA3DDEA
:1030F000DADE5F9150789527089597FD0FCF9923D9
:1031000009F40895482F5ADFF92FFF57F5959F1BB3
:103110009F1BFF93EBDEFF92EF92DF92CF92BF9265
:10312000AF929F928F926B017C0140584795332755
:10313000222740685FE3B601C70149015A010E9496
:10314000B1169401A5010E941B164FEF5FEF0FD13E
:103150009B01AC0182169306A406B50661F78F9019
:103160009F90AF90BF90CF90DF90EF90FF905F91D6
:1031700025DF950FBBCE9B01AC010C94221877275D
:103180006627B3D0C82FD92F7F936F939D2E8C2E97
:1031900009910032E9F30930D9F30637C9F30C304D
:1031A000B9F30A30A9F30D3099F353D070D0EEF192
:1031B00039DE17FB97F9C92ED82EE72EF62E882771
:1031C0000062053651F4099144D04BD0992319F08F
:1031D00017FD3DC036C017FD8195EEE8F0E0182FD1
:1031E0009C2D8D2D7E2D6F2D9F7798178707760745
:1031F0006105D9F01A0D3AF411957896912F9B1923
:1032000097322CF504C0912F9B0D9732D4F49C2D4E
:10321000112359F0159538F49DD0EF93FF9312DFE9
:10322000FF91EF91F5CF3496F3CFEF91FF91E0301E
:10323000EF0711F081929082ECE0CDB7DD270C947E
:10324000641A9C2D9F678FE77FEF6FEFEECFC5DE8F
:10325000ECCF11270B3219F00D3211F410680991DF
:1032600008958827992700338CF011F415FF0AC0C0
:103270000A3364F41062992329F40E9412160F7025
:10328000800F911D9D2E8C2E0991EDCF089568948D
:10329000A4DEBB24BA94AA240E3229F416FD24C05D
:1032A000106406F11DC00033FCF019F4E89415FF1A
:1032B00012C00A33CCF410629F3084F4B394E894C3
:1032C0005527442733272AE00E94D3190F70600F37
:1032D000711D811D911D16FDAA9402C016FFA394B5
:1032E0009D2E8C2E0991D8CF0895AA27BB27FF9138
:1032F000EF910C94481A1F930F930027192F107801
:103300009F775FE340E8613071058407950718F007
:1033100000680E94AF19912B6F937F938F939F93B7
:103320000E94BB18EEEBF0E0FCDD5F914F913F9106
:103330002F910E942218002351F02BED3FE049EC21
:103340005FE300E8902717FD50680E941B160F915D
:103350001F910895559145913591259108959B01AF
:10336000AC019FE380E8772766270C94B11626DE30
:10337000992359F0AA27940FA51F43F032F04FEF7D
:1033800050E09417A50714F4B1CD27CE0EF006C077
:1033900000C09FEF80E870E060E008959FE780E85C
:1033A00070E060E00895629FD001739FF001829FFA
:1033B000E00DF11D649FE00DF11D929FF00D839FC4
:1033C000F00D749FF00D659FF00D9927729FB00D61
:1033D000E11DF91F639FB00DE11DF91FBD01CF0174
:1033E0001124089597FB092E07260AD077FD04D0F3
:1033F00080D006D000201AF4709561957F4F089513
:10340000F6F7909581959F4F0895A1E21A2EAA1B79
:10341000BB1BFD010DC0AA1FBB1FEE1FFF1FA21784
:10342000B307E407F50720F0A21BB30BE40BF50B81
:10343000661F771F881F991F1A9469F7609570950A
:10344000809590959B01AC01BD01CF01089597FB3C
:10345000092E05260ED057FD04D0D7DF0AD0001C58
:1034600038F450954095309521953F4F4F4F5F4F21
:103470000895F6F790958095709561957F4F8F4FE1
:103480009F4F08952F923F924F925F926F927F923B
:103490008F929F92AF92BF92CF92DF92EF92FF9264
:1034A0000F931F93CF93DF93CDB7DEB7CA1BDB0B10
:1034B0000FB6F894DEBF0FBECDBF09942A883988B5
:1034C00048885F846E847D848C849B84AA84B984BC
:1034D000C884DF80EE80FD800C811B81AA81B981C8
:1034E000CE0FD11D0FB6F894DEBF0FBECDBFED01DC
:1034F0000895AA1BBB1B51E107C0AA1FBB1FA6173B
:10350000B70710F0A61BB70B881F991F5A95A9F78C
:1035100080959095BC01CD010895EE0FFF1F059099
:10352000F491E02D099491110DC0803251F08A3050
:1035300041F08C3031F08D3021F0893011F08B303A
:0C35400099F70895992788270895FFCF78
:10354C006F6B006875683F204700543A00487568F7
:10355C003F204D0073746172740001004903360002
:10356C00FF006B00D100A000B800D500A6000A0136
:10357C0099003F018E0074018400A9017C00DE01DA
:10358C00740013026C00480265007D025D00B202FB
:10359C005600E7024E001C03460051033D00860313
:1035AC003200BB032200F0030300800040FF014BFC
:1035BC00EAFF404BEAFF400000A0430000003F013F
:0435CC000101FFFFFB
:00000001FF
