:020000040000FA
:0400000000000428D0
:08000800052815208821EB21D9
:1000100083120317BD003D08031910283D0827214E
:100020009A205720F520072808005F308316031315
:100030008100023083129F00313083168500263004
:10004000860083129501FF308316920007308312D9
:100050009200970183168C0183128B018C01193059
:1000600083169900980180308312980083169816A1
:1000700083121816203083169F001C1183128501ED
:10008000860183120317A2010530A500A6012C22C8
:100090008E2152301E2265301E2270301E225230B8
:1000A0001E2261301E2270301E228E210800831213
:1000B00003172008B900BA01AA2083120317BB0056
:1000C000BC013B08B9023C08031C3C0FBA02BA1B36
:1000D000722800303A02023003193902031C7228D8
:1000E00093209228182183120317B90039030319AA
:1000F0007E283908023A031986289128230883129A
:10010000031395000C3097000612922883120317F0
:100110002308FF3C8312031395000C30970006164A
:1001200092289320080083120313970195018611EA
:1001300006120800AA2083120317B800200838020C
:100140000318A628831203138514A9288312031306
:10015000851008008312031721080319B4282030E2
:10016000831603139F00B728831603139F019F175D
:10017000F0309F050F3083120317B7008316031367
:100180009F1583121F1FCB28073083120317B70058
:10019000831603139F1183161F1583121F1FD72861
:1001A0000B3083120317B705831603131F11831631
:1001B0009F1483121F1FE3280D3083120317B70506
:1001C000831603139F1083161F1483121F1FEF281B
:1001D0000E3083120317B705831603131F108316FF
:1001E0009F1383120317370808001821831203177F
:1001F000B600360803191429A40A2408031D172978
:10020000A5032508031D17290530A5002608013C74
:10021000A600260803191029831203138613172931
:1002200083120313861717298312031386170800F6
:1002300083120317220803191F2922082629831273
:100240000313861A2529013026290030080083125D
:100250000317B500463A031964293508483A0319CB
:10026000772935084C3A031970293508523A031991
:1002700067293508533A03196D293508543A03198B
:10028000592935086C3A03197E2935086D3A031946
:1002900062293508733A03196A293508743A031933
:1002A00056293508763A03195C2983292008B32199
:1002B00085299321A0008529AA2083120317B50060
:1002C000B3218529A20185290130A20085290230A8
:1002D000A20085292308B32185299321A30085291C
:1002E0000130A1002030831603139F00852983125B
:1002F0000317A101831603139F0185298312031796
:100300002108B32185293F301E2288214D22080073
:100310008E213E301E2220301E2208000D301E226B
:100320000A301E220800E121B3003A303302031CD8
:100330009C29A930B307A029D03083120317B30733
:10034000E12183120317B4003A303402031CAB29B5
:10035000A930B407AD29D030B407330EF039B3005B
:10036000B4043408080083120317B10030301E2291
:1003700078301E2283120317310E0F39B2000A3073
:100380003202031CC729573032071E22CC293030D5
:100390008312031732071E220F3083120317310511
:1003A000B2000A303202031CDA2957303207B1009A
:1003B0001E22E029303083120317B20732081E22B2
:1003C0000800EB2183120317AF00B0002F080319B8
:1003D000E12930080800831203138C1AF129003038
:1003E000F9291A0883120317AE001E22831203177D
:1003F0002E08080083120317A9007F08A800AA018D
:100400002A082807AB002908AC000318AC0A2B08FF
:1004100084000008AD0003191D2A2A08AB00AA0AAF
:100420002B082807AB002908AC000318AC0A2B08DE
:1004300084000008AD001E22002A08008312031762
:10044000A70083160313981C212A83120317270879
:100450008312031399000800831603131C182C2A17
:1004600001309B001C141A0883120317A300831683
:1004700003131C18372A9B011C141A088312031734
:10048000A000831603131C18412A02309B001C1481
:100490001A0883120317A1000800831603139C187F
:1004A0004D2A01309B008312031723088316031380
:1004B0009A001C1555309D00AA309D009C149C1874
:1004C0005F2A9B01831203172008831603139A00E7
:1004D0001C1555309D00AA309D009C149C186E2A56
:1004E00002309B00831203172108831603139A001E
:0E04F0001C1555309D00AA309D009C1408007C
:02400E00113F60
:00000001FF
